:020000040000FA
:0400000065EF0AF0AE
:1008000000546F75636820496E7374727563637406
:10081000696F6E206973206E6F74207265636F67F5
:100820006E697A6564004672616D657320617265F8
:10083000206E6F7420696E73657274656420636FD7
:1008400072726563746C7900436F6D6D616E647371
:100850002077657265206E6F74207265636F676EB6
:10086000697A656400537572706173736573206390
:100870006F6F7264696E617465732073697A650065
:1008800056657269667920436F6D706C6574656436
:1008900000456E74657220636F6D6D616E64005704
:1008A000616974696E672E2E2E00536C6964650051
:0708B000436C69636B00005B
:1008B800000E1B6EAB88000E1D6E000E1C6E58ECF1
:1008C8000AF0196E100E1C24D96E000E1D20DA6E67
:1008D80019C0DFFF080E1C181D10D8A476EF04F00D
:1008E80078EF04F07AEF04F0AB98839A1C4A1D2A3B
:1008F8001DBE88EF04F01D5009E1090E1C5CD8A04C
:1009080088EF04F08AEF04F063EF04F0ABA28FEFF6
:1009180004F091EF04F09DEF04F0AC9AAB98270E29
:100928000C6EF50EE82EFED70C2EFCD700F0AC8A24
:10093800AB8802C0D9FF03C0DAFF10C0DFFF04C0D4
:10094800D9FF05C0DAFF11C0DFFF0AC0D9FF0BC00D
:10095800DAFF18C0DFFF020E1E6E100E1E24D96EBD
:10096800DA6A000EDA223A0EDF60BDEF04F0BFEF5C
:1009780004F0CEEF04F0100E1E24D96EDA6A000ED1
:10098800DA222F0EDF64CBEF04F0CDEF04F0CEEFC8
:1009980004F01B2A1E2A070E1E64D5EF04F0D7EFB9
:1009A80004F0B1EF04F0060E1B18D8A4DEEF04F033
:1009B800E0EF04F0E2EF04F0E8EF04F0000E036E5D
:1009C800000E026E2CEF05F0300E0C6EEB0E0D6E65
:1009D8001250640DF3CF0EF0F4CF0FF013500A0D40
:1009E800F3500E26F4500F2214500E26000E0F223C
:1009F8000C500E260D500F2206C0D9FF07C0DAFF93
:100A08000EC0DEFF0FC0DDFF300E0C6EEB0E0D6E5C
:100A18001550640DF3CF0EF0F4CF0FF016500A0DF9
:100A2800F3500E26F4500F2217500E26000E0F22F8
:100A38000C500E260D500F2208C0D9FF09C0DAFF4E
:100A48000EC0DEFF0FC0DDFF000E036E010E026E4A
:100A58001200000E246E010E236E000E226E010E8F
:100A6800216E3E503F10D8A43CEF05F03EEF05F054
:100A780044EF05F037C033F038C034F04AEF05F0E2
:100A88003E50375C336E3F503858346E34BE51EFA9
:100A980005F04FEF05F05DEF05F083808382336C3E
:100AA800341ED8B0342A000E246E000E236E63EF75
:100AB80005F083908392000E246E010E236E33C0DE
:100AC80001F034C002F0000E046E050E036E23EC34
:100AD8000AF001C027F002C028F027C001F028C0A2
:100AE80002F037EC09F023502410D8A47EEF05F06B
:100AF80080EF05F088EF05F033503E5C3E6E3450D1
:100B08003F583F6E97EF05F023042410D8A48FEFC9
:100B180005F091EF05F097EF05F03E5033243E6E57
:100B28003F5034203F6E3C503D10D8A49EEF05F056
:100B3800A0EF05F0A6EF05F035C031F036C032F071
:100B4800ACEF05F03C50355C316E3D503658326E96
:100B580032BEB3EF05F0B1EF05F0BFEF05F08390BB
:100B68008382316C321ED8B0322A000E226E000EFB
:100B7800216EC5EF05F083808392000E226E010E70
:100B8800216E31C001F032C002F0000E046E050E75
:100B9800036E23EC0AF001C025F002C026F025C040
:100BA80001F026C002F037EC09F021502210D8A439
:100BB800E0EF05F0E2EF05F0EAEF05F031503C5CBC
:100BC8003C6E32503D583D6EF9EF05F0210422107D
:100BD800D8A4F1EF05F0F3EF05F0F9EF05F03C507C
:100BE80031243C6E3D5032203D6E12003EC006F06E
:100BF8003FC007F0000E096E640E086E90EC07F017
:100C08000650300F0D6E000E046E640E036E3EC06B
:100C180001F03FC002F0A6EC08F001C006F002C0E7
:100C280007F0000E096E0A0E086E90EC07F00650E9
:100C3800300F0E6E000E046E640E036E3EC001F09F
:100C48003FC002F0A6EC08F001C013F002C014F097
:100C580013C001F014C002F0000E046E0A0E036EF9
:100C6800A6EC08F00150300F0F6E3CC006F03DC0F6
:100C780007F0000E096E640E086E90EC07F006503F
:100C8800300F106E000E046E640E036E3CC001F04F
:100C98003DC002F0A6EC08F001C006F002C007F063
:100CA800000E096E0A0E086E90EC07F00650300F21
:100CB800116E000E046E640E036E3CC001F03DC060
:100CC80002F0A6EC08F001C013F002C014F013C043
:100CD80001F014C002F0000E046E0A0E036EA6ECBA
:100CE80008F00150300F126E000E166E000E156ED1
:100CF8000D0E1524D96E000E1620DA6EDF507BEC2F
:100D08000AF0154A162A16BE93EF06F0165009E1A6
:100D1800030E155CD8A093EF06F095EF06F07CEF74
:100D280006F02C0E7BEC0AF0000E186E000E176E03
:100D3800100E1724D96E000E1820DA6EDF507BECE7
:100D48000AF0174A182A18BEB3EF06F0185009E13E
:100D5800030E175CD8A0B3EF06F0B5EF06F09CEFD2
:100D680006F01200000E0A6E08BEBFEF06F0BDEFD7
:100D780006F0C9EF06F0081E071E061E056C000ED9
:100D8800062207220822010E0A6E04BED0EF06F0E2
:100D9800CEEF06F0DAEF06F0041E031E021E016C09
:100DA800000E022203220422010E0A1A000E0B6E04
:100DB800000E0C6E000E0D6E000E0E6E0550061025
:100DC80007100810D8B4EBEF06F0EDEF06F023EFAC
:100DD80007F0010E096EF7EF06F0D89005360636D3
:100DE80007360836092A08AEFCEF06F0FEEF06F0D3
:100DF800F1EF06F0D8900B360C360D360E3605504E
:100E0800015C065002580750035808500458D8A0EF
:100E180010EF07F012EF07F01BEF07F00550015E27
:100E28000650025A0750035A0850045A0B80D890AB
:100E38000832073206320532092EFEEF06F00A5054
:100E4800D8B429EF07F02BEF07F033EF07F00E1EA9
:100E58000D1E0C1E0B6C000E0C220D220E220BC058
:100E680001F00CC002F00DC003F00EC004F0120037
:100E7800000E306E86EF07F070EC0AF0306E86EFE9
:100E880007F003EC08F0306E86EF07F0B3EC09F0DA
:100E9800306E86EF07F065EC09F0306E86EF07F0EC
:100EA8008DEC09F0306E86EF07F036EC0AF086EF2D
:100EB80007F0010E306E86EF07F030501F6E206A83
:100EC8002050000AD8B46BEF07F05DEF07F01F5011
:100ED800000AD8B440EF07F0010AD8B445EF07F08C
:100EE800030AD8B44AEF07F0010AD8B44FEF07F065
:100EF800070AD8B454EF07F0010AD8B459EF07F03D
:100F08005DEF07F02D042E10D8B48DEF07F08FEFAA
:100F180007F061EF07F01200000E0B6E000E0A6E6C
:100F280008500910D8B49BEF07F09DEF07F0C5EF04
:100F380007F0010E0C6EA5EF07F0D89008360936B9
:100F48000C2A09AEAAEF07F0ACEF07F0A1EF07F003
:100F5800D8900A360B360850065C09500758D8A0B6
:100F6800B8EF07F0BAEF07F0BFEF07F00850065EDA
:100F78000950075A0A80D890093208320C2EACEF73
:100F880007F00AC006F00BC007F01200949C948E7C
:100F98000FC005F010C006F0000E06BEFF0E076E6B
:100FA800086E000E016E120E026E7A0E036E000EAF
:100FB800046EB6EC06F001C011F002C012F003C0D6
:100FC80013F004C014F011C001F012C002F013C0F5
:100FD80003F014C004F0400E056E000E066E000EFD
:100FE800076E000E086EB6EC06F00104AF6EAC9406
:100FF800AC98AB8EAC9CAC8AAB9CAB8812000D0E47
:101008007BEC0AF0910E026E080E036ED8EC08F025
:101018003B0E026E000E036E3A0E046E000E056E55
:10102800370E066E000E076E350E086E000E096E3E
:10103800390E0A6E000E0B6E5CEC04F0020403100D
:10104800D8A429EF08F02BEF08F02EEF08F0020ED5
:101058003AEF08F0480E026E080E036ED8EC08F05E
:101068000A0E7BEC0AF047EC0AF0010E12002F047E
:10107800D8A441EF08F043EF08F05AEF08F02DEC40
:1010880005F0838E0D0E086E2D0E076ED80EE82E15
:10109800FED7072EFCD7082EFAD7839EB00E026E15
:1010A800080E036ED8EC08F06CEF08F02F50D8A4A7
:1010B80060EF08F062EF08F06CEF08F0838E2DEC1B
:1010C80005F0839EAA0E026E080E036ED8EC08F097
:1010D800000E2E6E010E2D6E12008380838277EF34
:1010E80008F08394839681A27CEF08F07EEF08F0E5
:1010F80075EF08F08384838681A285EF08F087EF77
:1011080008F08BEF08F0000E3F6E000E3E6E8390E5
:10111800838291EF08F08394839681A096EF08F07C
:1011280098EF08F08FEF08F08384838681A09FEF03
:1011380008F0A1EF08F0A5EF08F0000E3D6E000ED4
:101148003C6E120003500410D8B4ADEF08F0AFEFB6
:1011580008F0D3EF08F0010E056EB7EF08F0D8904D
:1011680003360436052A04AEBCEF08F0BEEF08F0DB
:10117800B3EF08F00350015C04500258D8A0C7EF41
:1011880008F0C9EF08F0CDEF08F00350015E0450F5
:10119800025AD89004320332052EBEEF08F001C07F
:1011A80001F002C002F01200000E066E0650022482
:1011B800046E000E0320056E04C0F6FF05C0F7FF9D
:1011C8000800F5500009D8A4ECEF08F0EEEF08F09D
:1011D800F0EF08F007EF09F006500224046E000E45
:1011E8000320056E04C0F6FF05C0F7FF0800F550A0
:1011F8007BEC0AF0062A0628D8A405EF09F007EFC9
:1012080009F0DAEF08F01200720ED36EB468B59EDA
:101218000F0EC16E000E836E000E8C6E000E956E62
:10122800000E826E000E8B6E000E946E000E816EA4
:10123800000E8A6E9368250E106E800E0F6ECAEC33
:1012480007F0000E946EF90ECB6E0C0EBD6E7D0E7F
:10125800BE6E0C0EBA6E7D0EBB6E030ECA6E000E0D
:10126800CC6ECA841200000E2C6E000E2B6E000E7F
:101278002A6E000E296E8394839657EF09F082A494
:1012880048EF09F04AEF09F04CEF09F0F5EC09F0E6
:1012980029042A10D8A453EF09F055EF09F057EFA5
:1012A80009F00EEC0AF001502B5C02502C58D8A023
:1012B80060EF09F062EF09F043EF09F08384838659
:1012C8001200430E3A18D8A46CEF09F06EEF09F03B
:1012D80073EF09F0010E2F6E040E8CEF09F0530E18
:1012E8003A18D8A47AEF09F07CEF09F080EF09F0FA
:1012F800000E2F6E70EF09F0010E026E080E036EDD
:10130800D8EC08F00A0E7BEC0AF047EC0AF0010E64
:1013180012002D0E375C010E3858D8B096EF09F040
:1013280098EF09F0A6EF09F02D0E355C010E36583E
:10133800D8B0A1EF09F0A3EF09F0A6EF09F0050E68
:10134800B2EF09F0650E026E080E036ED8EC08F0D5
:101358000A0E7BEC0AF047EC0AF0010E12003C0E74
:101368003B18D8A4BAEF09F0BCEF09F0C8EF09F0B0
:101378003E0E3918D8A4C3EF09F0C5EF09F0C8EF3D
:1013880009F0030ED4EF09F0260E026E080E036E64
:10139800D8EC08F00A0E7BEC0AF047EC0AF0010ED4
:1013A800120008EC09F08388000E3F6E010E3E6EB5
:1013B800000E3D6E010E3C6E8384838671EC08F04E
:1013C800838A000E2E6E010E2D6E3CEC07F0FAECAF
:1013D80005F03BEC08F0FAEC05F0E4EF09F000EF5B
:1013E80000F029042A10D8A4FCEF09F0FEEF09F058
:1013F80000EF0AF00DEF0AF082A405EF0AF007EFFC
:101408000AF00DEF0AF02B4A2C2A000E2A6E010E64
:10141800296E120082A413EF0AF015EF0AF017EFF5
:101428000AF022EF0AF082B41CEF0AF01EEF0AF06D
:1014380022EF0AF0000E2A6E000E296E12000150EB
:101448000302F3CF05F0F4CF06F001500402F35085
:10145800062602500302F350062605C001F006C016
:1014680002F012000D0E7BEC0AF0800E026E080EE0
:10147800036ED8EC08F00A0E7BEC0AF0000E2E6E14
:10148800000E2D6E1200838C839A070E026E170EC3
:10149800016E6A0EE82EFED7012EFCD7022EFAD76F
:1014A80000D0839C838A12009EAA5DEF0AF05FEF4A
:1014B8000AF058EF0AF0AECF01F0000EAE6E015000
:1014C800120000EE21F01B0EEE6AE806FDE1000EA8
:1014D800F86E0001D5EF09F00D0E7BEC0AF09F0EB7
:1014E800026E080E036ED8EC08F0010E1200016EB1
:1014F8009EA881EF0AF083EF0AF07CEF0AF001C0A2
:04150800ADFF120021
:020000040020DA
:08000000FFFFFFFFFFFFFFFF00
:020000040030CA
:0E00000000091F1EFF8381FF0FC00FE00F409D
:00000001FF
