:020000040000FA
:04000000A6EF3AF03D
:1073E500736C696465636C69636B4572726F729ED9
:1073F500AAFFEF39F001EF3AF0FAEF39F0AE50128B
:1074050000016E9EA809EF3AF00BEF3AF004EF3A4F
:10741500F001C0ADFF1200456E7465725F636F6D5C
:107425006D616E6457616974696E672E2E2E4772A1
:10743500616369617301500302F3CF05F0F4CF0670
:10744500F001500402F350062602500302F35006E1
:107455002605C001F006C002F0120082A435EF3AFD
:10746500F037EF3AF039EF3AF044EF3AF082B43EB4
:10747500EF3AF040EF3AF044EF3AF0000E346E0088
:107485000E336E120033043410D8A44CEF3AF04E8C
:10749500EF3AF050EF3AF05DEF3AF082A455EF3A4B
:1074A500F057EF3AF05DEF3AF0354A362A000E34E0
:1074B5006E010E336E12000D0E03EC3AF0000E0352
:1074C5006E000E026E6D0E0224D96E000E0320DAD8
:1074D5006EDF5003EC3AF0024A032A03BE7CEF3A12
:1074E500F0035009E10A0E025CD8A07CEF3AF07E69
:1074F500EF3AF065EF3AF08268010E12000D0E03C7
:10750500EC3AF0000E036E000E026E770E0224D9DF
:107515006E000E0320DA6EDF5003EC3AF0024A03E8
:107525002A03BE9FEF3AF0035009E1070E025CD82B
:10753500A09FEF3AF0A1EF3AF088EF3AF0000E5A2B
:107545006E000E596E12001C0EF66E740EF76E006C
:107555000EF86E00EE60F010EE1EF00900F5CFEEAD
:10756500FFE550E150FAE1E50EF66E730EF76E0099
:107575000EF86E00EE4AF010EE0FF00900F5CFEEB2
:10758500FFE550E150FAE100EE2BF01F0EEE6AE840
:1075950006FDE1000EF86E000130EF3FF0000E36FB
:1075A5006E000E356E000E346E000E336E839483BE
:1075B50096F1EF3AF082A4E2EF3AF0E4EF3AF0E622
:1075C500EF3AF045EC3AF033043410D8A4EDEF3A35
:1075D500F0EFEF3AF0F1EF3AF030EC3AF0015035D8
:1075E5005C02503658D8A0FAEF3AF0FCEF3AF0DDDD
:1075F500EF3AF0838483861200720ED36EB468B5B9
:107605009E0F0EC16E000E836E000E8C6EF00E95F1
:107615006E000E826E000E8B6E000E946E000E8153
:107625006E000E8A6E9368250E106E800E0F6E60CA
:10763500EC3BF0000E946EF90ECB6E0C0EBD6E7D1C
:107645000EBE6E0C0EBA6E7D0EBB6E030ECA6E00BC
:107655000ECC6ECA84120003500410D8B435EF3B2B
:10766500F037EF3BF05BEF3BF0010E056E3FEF3B74
:10767500F0D89003360436052A04AE44EF3BF046B5
:10768500EF3BF03BEF3BF00350015C04500258D850
:10769500A04FEF3BF051EF3BF055EF3BF0035001AE
:1076A5005E0450025AD89004320332052E46EF3B51
:1076B500F001C001F002C002F01200949C948E0FFC
:1076C500C005F010C006F0000E06BEFF0E076E08DE
:1076D5006E000E016E120E026E7A0E036E000E041F
:1076E5006E01EC3EF001C011F002C012F003C013B0
:1076F500F004C014F011C001F012C002F013C00371
:10770500F014C004F0400E056E000E066E000E0764
:107715006E000E086E01EC3EF00104AF6EAC94AC49
:1077250098AB8EAC9CAC8AAB9CAB881200000E82E9
:107735006E3C0E4918D8A4A2EF3BF0A4EF3BF0B085
:10774500EF3BF03E0E4718D8A4ABEF3BF0ADEF3B57
:10775500F0B0EF3BF0030ED1EF3BF00D0E03EC3A2A
:10776500F0000E036E000E026E540E0224D96E0058
:107775000E0320DA6EDF5003EC3AF0024A032A03C7
:10778500BECEEF3BF0035009E1050E025CD8A0CE5A
:10779500EF3BF0D0EF3BF0B7EF3BF0010E120000EE
:1077A5000E0B6E000E0A6E08500910D8B4DDEF3BC3
:1077B500F0DFEF3BF007EF3CF0010E0C6EE7EF3B1F
:1077C500F0D890083609360C2A09AEECEF3BF0EEFE
:1077D500EF3BF0E3EF3BF0D8900A360B3608500646
:1077E5005C09500758D8A0FAEF3BF0FCEF3BF001DD
:1077F500EF3CF00850065E0950075A0A80D89009F8
:107805003208320C2EEEEF3BF00AC006F00BC00733
:10781500F012000D0E03EC3AF0000E826E000E1C05
:107825006E000E1B6E600E1B24D96E000E1C20DA36
:107835006EDF5003EC3AF01B4A1C2A1CBE2CEF3CB1
:10784500F01C5009E10A0E1B5CD8A02CEF3CF02E71
:10785500EF3CF015EF3CF0490E016E000E026E484C
:107865000E036E000E046E450E056E000E066E4389
:107875000E076E000E086E470E096E000E0A6E1C8E
:10788500EC3DF0020E1200000E826E2D0E455C01DD
:107895000E4658D8B051EF3CF053EF3CF063EF3C47
:1078A500F02D0E435C010E4458D8B05CEF3CF05E01
:1078B500EF3CF063EF3CF0020E826E050E86EF3C66
:1078C500F00D0E03EC3AF0000E036E000E026E543E
:1078D5000E0224D96E000E0320DA6EDF5003EC3A57
:1078E500F0024A032A03BE81EF3CF0035009E1058B
:1078F5000E025CD8A081EF3CF083EF3CF06AEF3CD0
:10790500F0040E826E010E1200000E826E430E48C8
:1079150018D8A490EF3CF092EF3CF099EF3CF002C0
:107925000E826E010E3D6E040ECBEF3CF0530E48F9
:1079350018D8A4A0EF3CF0A2EF3CF0A8EF3CF00271
:107945000E826E000E3D6E96EF3CF00D0E03EC3A86
:10795500F0000E036E000E026E540E0224D96E0066
:107965000E0320DA6EDF5003EC3AF0024A032A03D5
:10797500BEC6EF3CF0035009E1050E025CD8A0C677
:10798500EF3CF0C8EF3CF0AFEF3CF0040E826E0127
:107995000E1200000E3E6E12EF3DF05EEC3AF03E28
:1079A5006E12EF3DF00CEC3CF03E6E12EF3DF0999F
:1079B500EC3BF03E6E12EF3DF087EC3CF03E6E1274
:1079C500EF3DF046EC3CF03E6E12EF3DF081EC3AB7
:1079D500F012EF3DF03E501D6E1E6A1E50000AD893
:1079E500B4F7EF3CF012EF3DF01D50000AD8B4D0CB
:1079F500EF3CF0010AD8B4D5EF3CF0030AD8B4DA6D
:107A0500EF3CF0010AD8B4DFEF3CF0070AD8B4E444
:107A1500EF3CF0010AD8B4E9EF3CF012EF3DF05924
:107A2500045A10D8B419EF3DF01BEF3DF0EDEF3CD3
:107A3500F01200000E1A6E000E196EFAEC39F018ED
:107A45006E0F0E1924D96E000E1A20DA6E18C0DFDB
:107A5500FF194A1A2A1ABE39EF3DF01A5009E109F1
:107A65000E195CD8A039EF3DF03BEF3DF020EF3D1E
:107A7500F001C0D9FF02C0DAFF0FC0DFFF03C0D994
:107A8500FF04C0DAFF10C0DFFF300E0B6EEB0E0CEB
:107A95006E1150640DF3CF0DF0F4CF0EF012500AB5
:107AA5000DF3500D26F4500E2213500D26000E0E28
:107AB500220B500D260C500E2205C0D9FF06C0DA48
:107AC500FF0DC0DEFF0EC0DDFF300E0B6EEB0E0CA2
:107AD5006E1450640DF3CF0DF0F4CF0EF015500A6F
:107AE5000DF3500D26F4500E2216500D26000E0EE5
:107AF500220B500D260C500E2207C0D9FF08C0DA04
:107B0500FF0DC0DEFF0EC0DDFF09C0D9FF0AC0DAD8
:107B1500FF17C0DFFF12003D04D8A494EF3DF09697
:107B2500EF3DF0CEEF3DF087EC3EF0838E020E0880
:107B35006E040E076EBA0EE82EFED7072EFCD70888
:107B45002EFAD700D0839E20EE4FF010EE09F004F8
:107B55000EDBCFE3FFE806FCE2000E146E000E1309
:107B65006E090E1324D96E000E1420DA6EDF500351
:107B7500EC3AF0134A142A14BECAEF3DF01450092A
:107B8500E1050E135CD8A0CAEF3DF0CCEF3DF0B394
:107B9500EF3DF000EF3EF03D50D8A4D4EF3DF0D6D8
:107BA500EF3DF000EF3EF0838E87EC3EF0839E20A4
:107BB500EE4AF010EE0EF0040EDBCFE3FFE806FC14
:107BC500E2000E166E000E156E0E0E1524D96E000F
:107BD5000E1620DA6EDF5003EC3AF0154A162A1617
:107BE500BEFEEF3DF0165009E1050E155CD8A0FE6E
:107BF500EF3DF000EF3EF0E7EF3DF01200000E0A1A
:107C05006E08BE0AEF3EF008EF3EF014EF3EF008B6
:107C15001E071E061E056C000E06220722082201FD
:107C25000E0A6E04BE1BEF3EF019EF3EF025EF3E47
:107C3500F0041E031E021E016C000E022203220424
:107C450022010E0A1A000E0B6E000E0C6E000E0DB0
:107C55006E000E0E6E0550061007100810D8B436CB
:107C6500EF3EF038EF3EF06EEF3EF0010E096E424A
:107C7500EF3EF0D8900536063607360836092A084D
:107C8500AE47EF3EF049EF3EF03CEF3EF0D8900BAB
:107C9500360C360D360E360550015C065002580777
:107CA50050035808500458D8A05BEF3EF05DEF3EF6
:107CB500F066EF3EF00550015E0650025A0750038C
:107CC5005A0850045A0B80D89008320732063205FC
:107CD50032092E49EF3EF00A50D8B474EF3EF076E3
:107CE500EF3EF07EEF3EF00E1E0D1E0C1E0B6C00DF
:107CF5000E0C220D220E220BC001F00CC002F00D5D
:107D0500C003F00EC004F01200000E2E6E010E2D01
:107D15006E000E2C6E010E2B6E3B503C10D8A496B7
:107D2500EF3EF098EF3EF09EEF3EF045C041F04645
:107D3500C042F0A4EF3EF03B50455C416E3C5046DE
:107D450058426E42BEABEF3EF0A9EF3EF0B7EF3EB4
:107D5500F083908392416C421ED8B0422A000E2EC9
:107D65006E000E2D6EBDEF3EF083808382000E2ED9
:107D75006E010E2D6E41C001F042C002F0000E04EE
:107D85006E050E036E1DEC3AF001C031F002C032F3
:107D9500F031C001F032C002F0D1EC3AF0000E2E05
:107DA5006E000E2D6E000E2E6E010E2D6E3B504197
:107DB500243B6E3C5042203C6E39503A10D8A4E624
:107DC500EF3EF0E8EF3EF0EEEF3EF043C03FF0440B
:107DD500C040F0F4EF3EF03950435C3F6E3A5044FA
:107DE50058406E40BEFBEF3EF0F9EF3EF007EF3F27
:107DF500F0839083823F6C401ED8B0402A000E2C41
:107E05006E000E2B6E0DEF3FF083808382000E2CEB
:107E15006E010E2B6E3FC001F040C002F0000E0453
:107E25006E050E036E1DEC3AF001C02FF002C03056
:107E3500F02FC001F030C002F0D1EC3AF0000E2C6A
:107E45006E000E2B6E000E2C6E010E2B6E39503F00
:107E550024396E3A5040203A6E1200FFEC3AF00099
:107E65000E3C6E000E3B6E000E3A6E000E396E83B0
:107E7500848386000E5A6E010E596ECCEC3CF08E52
:107E8500EC3DF03BC006F03CC007F0000E096E6407
:107E95000E086ED2EC3BF00650300F1F6E000E043C
:107EA5006E640E036E3BC001F03CC002F02EEC3B4D
:107EB500F001C006F002C007F0000E096E0A0E08B8
:107EC5006ED2EC3BF00650300F206E000E046E644F
:107ED5000E036E3BC001F03CC002F02EEC3BF001FE
:107EE500C025F002C026F025C001F026C002F00032
:107EF5000E046E0A0E036E2EEC3BF00150300F217E
:107F05006E39C006F03AC007F0000E096E640E081F
:107F15006ED2EC3BF00650300F226E000E046E64FC
:107F25000E036E39C001F03AC002F02EEC3BF001B1
:107F3500C006F002C007F0000E096E0A0E086ED2E8
:107F4500EC3BF00650300F236E000E046E640E03FA
:107F55006E39C001F03AC002F02EEC3BF001C025AD
:107F6500F002C026F025C001F026C002F0000E0484
:107F75006E0A0E036E2EEC3BF00150300F246E009E
:107F85000E286E000E276E1F0E2724D96E000E28B0
:107F950020DA6EDF5003EC3AF0274A282A28BEDDA6
:107FA500EF3FF0285009E1030E275CD8A0DDEF3F35
:107FB500F0DFEF3FF0C6EF3FF0000E2A6E000E290E
:107FC5006E220E2924D96E000E2A20DA6EDF5003A8
:107FD500EC3AF0294A2A2A2ABEFAEF3FF02A50093C
:107FE500E1030E295CD8A0FAEF3FF0FCEF3FF0E388
:0B7FF500EF3FF03CEF3FF000EF00F02A
:020000040020DA
:08000000FFFFFFFFFFFFFFFF00
:020000040030CA
:0E00000000091F1EFF0381FF0FC00FE00F401D
:00000001FF
