:020000040000FA
:0400000067EF3DF079
:1079EB00456E7465725F636F6D6D616E649EAA0107
:0F79FB00EF3DF003EF3DF0FCEF3CF0AE5012001B
:107A0B0057616974696E672E2E2E4572726F724FB5
:107A1B006B61792C6E9EA815EF3DF017EF3DF010C2
:107A2B00EF3DF02CC0ADFF1200720ED36E250E3B56
:107A3B006E800E3A6E92EC3DF0000E946EC0EC3EF2
:107A4B00F000EF00F0000E2E6E000E2D6E590E2D75
:107A5B0024D96E000E2E20DA6EDF500FEC3DF02D88
:107A6B004A2E2A2EBE43EF3DF02E5009E1040E2D77
:107A7B005CD8A043EF3DF045EF3DF02CEF3DF0829D
:107A8B00681200000E2E6E000E2D6E4A0E2D24D99C
:107A9B006E000E2E20DA6EDF500FEC3DF02D4A2ECD
:107AAB002A2EBE62EF3DF02E5009E10A0E2D5CD856
:107ABB00A062EF3DF064EF3DF04BEF3DF0826801CB
:107ACB000E1200EB0EF66E790EF76E000EF86E00CE
:107ADB00EE60F010EE0DF00900F5CFEEFFE550E192
:107AEB0050FAE10B0EF66E7A0EF76E000EF86E0082
:107AFB00EE4AF010EE13F00900F5CFEEFFE550E182
:107B0B0050FAE100EE01F02B0EEE6AE806FDE10003
:107B1B000EF86E00011AEF3DF0949C948E3AC03033
:107B2B00F03BC031F0000E31BEFF0E326E336E00F3
:107B3B000E2C6E120E2D6E7A0E2E6E000E2F6E7A8E
:107B4B00EC3FF02CC03CF02DC03DF02EC03EF02F92
:107B5B00C03FF03CC02CF03DC02DF03EC02EF03F9E
:107B6B00C02FF0400E306E000E316E000E326E00E4
:107B7B000E336E7AEC3FF02C04AF6EAC94AC98AB3A
:107B8B008EAC9CAC8AAB9CAB881200000E826E3C18
:107B9B000E2B18D8A4D4EF3DF0D6EF3DF0E4EF3D1B
:107BAB00F03E0E2918D8A4DDEF3DF0DFEF3DF0E4F9
:107BBB00EF3DF0020E826E030E04EF3EF0000E2E30
:107BCB006E000E2D6E540E2D24D96E000E2E20DA63
:107BDB006EDF500FEC3DF02D4A2E2A2EBEFFEF3DEF
:107BEB00F02E5009E1050E2D5CD8A0FFEF3DF00102
:107BFB00EF3EF0E8EF3DF0040E826E010E12000D29
:107C0B000E0FEC3DF0000E826E000E476E000E461E
:107C1B006E600E4624D96E000E4720DA6EDF500FD1
:107C2B00EC3DF0464A472A47BE25EF3EF047500948
:107C3B00E10A0E465CD8A025EF3EF027EF3EF00E92
:107C4B00EF3EF02B0E2C6E000E2D6E2A0E2E6E00BC
:107C5B000E2F6E270E306E000E316E250E326E001B
:107C6B000E336E290E346E000E356E08EC3FF0822B
:107C7B0068020E1200000E826E2D0E275C010E287C
:107C8B0058D8B04BEF3EF04DEF3EF05DEF3EF02D90
:107C9B000E255C010E2658D8B056EF3EF058EF3E3D
:107CAB00F05DEF3EF0020E826E060E7DEF3EF000B1
:107CBB000E2E6E000E2D6E540E2D24D96E000E2E30
:107CCB0020DA6EDF500FEC3DF02D4A2E2A2EBE78B7
:107CDB00EF3EF02E5009E1050E2D5CD8A078EF3E5B
:107CEB00F07AEF3EF061EF3EF0040E826E010E1261
:107CFB0000000E826E430E2A18D8A487EF3EF0893F
:107D0B00EF3EF090EF3EF0020E826E010E236E04FA
:107D1B000EBFEF3EF0530E2A18D8A497EF3EF09902
:107D2B00EF3EF09FEF3EF0020E826E000E236E8D43
:107D3B00EF3EF0000E2E6E000E2D6E540E2D24D93C
:107D4B006E000E2E20DA6EDF500FEC3DF02D4A2E1A
:107D5B002A2EBEBAEF3EF02E5009E1050E2D5CD84F
:107D6B00A0BAEF3EF0BCEF3EF0A3EF3EF0040E8264
:107D7B006E010E1200000E246EE1EF3EF047EC3D5B
:107D8B00F0246E07EF3FF005EC3EF0246E07EF3F5B
:107D9B00F0CBEC3DF0246E07EF3FF07EEC3EF02491
:107DAB006E07EF3FF040EC3EF0246E07EF3FF028FC
:107DBB00EC3DF007EF3FF0000E486E000E496E49A8
:107DCB0050000AD8B4ECEF3EF007EF3FF0485000FC
:107DDB000AD8B4C4EF3EF0010AD8B4C9EF3EF003A1
:107DEB000AD8B4CEEF3EF0010AD8B4D3EF3EF00779
:107DFB000AD8B4D8EF3EF0020AD8B4DDEF3EF00754
:107E0B00EF3FF01200000E456E000E446EFCEC3C92
:107E1B00F0436E3A0E4424D96E000E4520DA6E43C1
:107E2B00C0DFFF444A452A45BE25EF3FF0455009C8
:107E3B00E1090E445CD8A025EF3FF027EF3FF00C93
:107E4B00EF3FF02CC0D9FF2DC0DAFF3AC0DFFF2E79
:107E5B00C0D9FF2FC0DAFF3BC0DFFF300E366EEB11
:107E6B000E376E3C50640DF3CF38F0F4CF39F03D44
:107E7B00500A0DF3503826F45039223E5038260064
:107E8B000E3922365038263750392230C0D9FF31BF
:107E9B00C0DAFF38C0DEFF39C0DDFF300E366EEBC7
:107EAB000E376E3F50640DF3CF38F0F4CF39F040FE
:107EBB00500A0DF3503826F4503922415038260021
:107ECB000E3922365038263750392232C0D9FF337B
:107EDB00C0DAFF38C0DEFF39C0DDFF34C0D9FF3553
:107EEB00C0DAFF42C0DFFF1200000E356E33BE83D7
:107EFB00EF3FF081EF3FF08DEF3FF0331E321E313D
:107F0B001E306C000E312232223322010E356E2FC1
:107F1B00BE94EF3FF092EF3FF09EEF3FF02F1E2EFF
:107F2B001E2D1E2C6C000E2D222E222F22010E3503
:107F3B001A000E366E000E376E000E386E000E39BC
:107F4B006E3050311032103310D8B4AFEF3FF0B168
:107F5B00EF3FF0E7EF3FF0010E346EBBEF3FF0D891
:107F6B00903036313632363336342A33AEC0EF3FAB
:107F7B00F0C2EF3FF0B5EF3FF0D8903636373638DA
:107F8B0036393630502C5C31502D5832502E5833F8
:107F9B00502F58D8A0D4EF3FF0D6EF3FF0DFEF3F94
:107FAB00F030502C5E31502D5A32502E5A33502F08
:107FBB005A3680D8903332323231323032342EC28C
:107FCB00EF3FF03550D8B4EDEF3FF0EFEF3FF0F768
:107FDB00EF3FF0391E381E371E366C000E37223835
:107FEB0022392236C02CF037C02DF038C02EF03994
:057FFB00C02FF0120090
:020000040020DA
:08000000FFFFFFFFFFFFFFFF00
:020000040030CA
:0E000000010B1F1EFF0181FF0FC00FE00F401C
:00000001FF
