:020000040000FA
:0400000042EF3DF09E
:107A20009EAA15EF3DF017EF3DF010EF3DF0AE5080
:107A30001200216E9EA81FEF3DF021EF3DF01AEFDE
:107A40003DF021C0ADFF1200720ED36E250E306ED8
:107A5000800E2F6E9CEC3DF0000E946E88EC3EF094
:107A600000EF00F0456E7465725F636F6D6D616E5F
:107A70006457616974696E672E2E2E4572726F723B
:107A80004F6B6179640EF66E7A0EF76E000EF86E2B
:107A900000EE01F010EE20F00900F5CFEEFFE5500A
:107AA000E150FAE100EE3FF0170EEE6AE806FDE164
:107AB000000EF86E000124EF3DF0000E236E000E64
:107AC000226E1D0E2224D96E000E2320DA6EDF50A6
:107AD00019EC3DF0224A232A23BE78EF3DF02350D3
:107AE00009E1040E225CD8A078EF3DF07AEF3DF07A
:107AF00061EF3DF082681200000E236E000E226ED0
:107B00000E0E2224D96E000E2320DA6EDF5019ECFF
:107B10003DF0224A232A23BE97EF3DF0235009E18E
:107B20000A0E225CD8A097EF3DF099EF3DF080EF70
:107B30003DF08268010E1200949C948E2FC025F0B7
:107B400030C026F0000E26BEFF0E276E286E000EF7
:107B5000216E120E226E7A0E236E000E246E7AECC7
:107B60003FF021C031F022C032F023C033F024C0F6
:107B700034F031C021F032C022F033C023F034C0E1
:107B800024F0400E256E000E266E000E276E000EAD
:107B9000286E7AEC3FF02104AF6EAC94AC98AB8EBB
:107BA000AC9CAC8AAB9CAB881200000E826E3C0E83
:107BB0005518D8A4DEEF3DF0E0EF3DF0EEEF3DF0DC
:107BC0003E0E5318D8A4E7EF3DF0E9EF3DF0EEEF9D
:107BD0003DF0020E826E030E0EEF3EF0000E236E9D
:107BE000000E226E180E2224D96E000E2320DA6EAB
:107BF000DF5019EC3DF0224A232A23BE09EF3EF064
:107C0000235009E1050E225CD8A009EF3EF00BEFEE
:107C10003EF0F2EF3DF0040E826E010E12000D0EEA
:107C200019EC3DF0000E826E000E3C6E000E3B6EB5
:107C3000010E3B24D96E000E3C20DA6EDF5019ECA9
:107C40003DF03B4A3C2A3CBE2FEF3EF03C5009E160
:107C50000A0E3B5CD8A02FEF3EF031EF3EF018EF5C
:107C60003EF0550E216E000E226E540E236E000E55
:107C7000246E510E256E000E266E4F0E276E000EDE
:107C8000286E530E296E000E2A6E08EC3FF08268B3
:107C9000020E1200000E826E2D0E515C010E525823
:107CA000D8B055EF3EF057EF3EF067EF3EF02D0EA7
:107CB0004F5C010E5058D8B060EF3EF062EF3EF0DE
:107CC00067EF3EF0020E826E060E87EF3EF0000E6A
:107CD000236E000E226E180E2224D96E000E232071
:107CE000DA6EDF5019EC3DF0224A232A23BE82EFE0
:107CF0003EF0235009E1050E225CD8A082EF3EF051
:107D000084EF3EF06BEF3EF0040E826E010E120027
:107D1000000E4E6E9FEF3EF07CEC3DF04E6E0FEC91
:107D20003EF04E6ED5EC3DF04E6EC6EC3EF04E6E23
:107D30004AEC3EF04E6E5DEC3DF0C5EF3EF0000EBD
:107D40003D6E000E3E6E3E50000AD8B4AAEF3EF0E3
:107D5000C5EF3EF03D50000AD8B48CEF3EF0010A6A
:107D6000D8B48FEF3EF0030AD8B492EF3EF0010A88
:107D7000D8B495EF3EF0070AD8B498EF3EF0020A67
:107D8000D8B49BEF3EF0C5EF3EF01200000E826EBD
:107D9000430E5418D8A4CFEF3EF0D1EF3EF0D8EF09
:107DA0003EF0020E826E010E4D6E040E07EF3FF0A4
:107DB000530E5418D8A4DFEF3EF0E1EF3EF0E7EFAA
:107DC0003EF0020E826E000E4D6ED5EF3EF0000EBC
:107DD000236E000E226E180E2224D96E000E232070
:107DE000DA6EDF5019EC3DF0224A232A23BE02EF5F
:107DF0003FF0235009E1050E225CD8A002EF3FF0CE
:107E000004EF3FF0EBEF3EF0040E826E010E120025
:107E1000000E3A6E000E396E10EC3DF0386E2F0EEB
:107E20003924D96E000E3A20DA6E38C0DFFF394AA5
:107E30003A2A3ABE25EF3FF03A5009E1090E395C83
:107E4000D8A025EF3FF027EF3FF00CEF3FF021C027
:107E5000D9FF22C0DAFF2FC0DFFF23C0D9FF24C023
:107E6000DAFF30C0DFFF300E2B6EEB0E2C6E315080
:107E7000640DF3CF2DF0F4CF2EF032500A0DF350F5
:107E80002D26F4502E2233502D26000E2E222B505C
:107E90002D262C502E2225C0D9FF26C0DAFF2DC05A
:107EA000DEFF2EC0DDFF300E2B6EEB0E2C6E34503D
:107EB000640DF3CF2DF0F4CF2EF035500A0DF350B2
:107EC0002D26F4502E2236502D26000E2E222B5019
:107ED0002D262C502E2227C0D9FF28C0DAFF2DC016
:107EE000DEFF2EC0DDFF29C0D9FF2AC0DAFF37C070
:107EF000DFFF1200000E2A6E28BE83EF3FF081EFF5
:107F00003FF08DEF3FF0281E271E261E256C000E29
:107F1000262227222822010E2A6E24BE94EF3FF04B
:107F200092EF3FF09EEF3FF0241E231E221E216C95
:107F3000000E222223222422010E2A1A000E2B6E6A
:107F4000000E2C6E000E2D6E000E2E6E255026108B
:107F500027102810D8B4AFEF3FF0B1EF3FF0E7EFB4
:107F60003FF0010E296EBBEF3FF0D8902536263644
:107F700027362836292A28AEC0EF3FF0C2EF3FF05F
:107F8000B5EF3FF0D8902B362C362D362E362550B7
:107F9000215C265022582750235828502458D8A016
:107FA000D4EF3FF0D6EF3FF0DFEF3FF02550215EFA
:107FB0002650225A2750235A2850245A2B80D890D2
:107FC0002832273226322532292EC2EF3FF02A509E
:107FD000D8B4EDEF3FF0EFEF3FF0F7EF3FF02E1E9C
:107FE0002D1E2C1E2B6C000E2C222D222E222BC07F
:107FF00021F02CC022F02DC023F02EC024F012005E
:020000040020DA
:08000000FFFFFFFFFFFFFFFF00
:020000040030CA
:0E000000010B1F1EFF0181FF0FC00FE00F401C
:00000001FF
