:020000040000FA
:0400000007EF00F016
:100008005B8205ED04F027EF06F0000E276E010E67
:10001800266E000E256E010E246E34503510D8A4BD
:1000280018EF00F01AEF00F020EF00F03EC03AF0B1
:100038003FC03BF026EF00F034503E5C3A6E35503E
:100048003F583B6E3BBE2DEF00F02BEF00F039EF31
:1000580000F0839083923A6C3B1ED8B03B2A000E86
:10006800276E000E266E3FEF00F083808382000E1D
:10007800276E010E266E3AC004F03BC005F0000E54
:10008800076E050E066E13EC07F004C02AF005C0D3
:100098002BF02AC004F02BC005F0CBEC05F026505D
:1000A8002710D8A45AEF00F05CEF00F064EF00F0DE
:1000B8003A50345C346E3B503558356E73EF00F06F
:1000C80026042710D8A46BEF00F06DEF00F073EF53
:1000D80000F034503A24346E35503B20356E32509F
:1000E8003310D8A47AEF00F07CEF00F082EF00F034
:1000F8003CC038F03DC039F088EF00F032503C5C2D
:10010800386E33503D58396E39BE8FEF00F08DEFA1
:1001180000F09BEF00F083808392386C391ED8B0D2
:10012800392A000E256E000E246EA1EF00F0839090
:100138008382000E256E010E246E38C004F039C08B
:1001480005F0000E076E050E066E13EC07F004C0EE
:1001580028F005C029F028C004F029C005F0CBEC30
:1001680005F024502510D8A4BCEF00F0BEEF00F035
:10017800C6EF00F03850325C326E39503358336E67
:10018800D5EF00F024042510D8A4CDEF00F0CFEF70
:1001980000F0D5EF00F032503824326E3350392059
:1001A800336E1200000E1E6EAB88000E206E000E1D
:1001B8001F6E090E1F182010D8A4E5EF00F0E7EF16
:1001C80000F0E8EF00F0AB989BEC06F01C6E130E05
:1001D8001F24D96E000E2020DA6E1CC0DFFF1F4AD4
:1001E800202A20BE01EF01F0205009E1090E1F5C12
:1001F800D8A001EF01F003EF01F0DDEF00F005C03A
:10020800D9FF06C0DAFF13C0DFFF07C0D9FF08C057
:10021800DAFF14C0DFFF0DC0D9FF0EC0DAFF1BC024
:10022800DFFF020E216E130E2124D96EDA6A000E4A
:10023800DA223A0EDF6023EF01F025EF01F034EF08
:1002480001F0130E2124D96EDA6A000EDA222F0E7D
:10025800DF6431EF01F033EF01F034EF01F01E2AD3
:10026800212A070E21643BEF01F03DEF01F017EF63
:1002780001F0060E1E18D8A444EF01F046EF01F075
:1002880048EF01F04EEF01F0000E066E000E056E0D
:1002980092EF01F0300E0F6EEB0E106E1550640DDC
:1002A800F3CF11F0F4CF12F016500A0DF3501126C7
:1002B800F450122217501126000E12220F50112648
:1002C8001050122209C0D9FF0AC0DAFF11C0DEFFA0
:1002D80012C0DDFF300E0F6EEB0E106E1850640D5D
:1002E800F3CF11F0F4CF12F019500A0DF350112684
:1002F800F45012221A501126000E12220F50112605
:10030800105012220BC0D9FF0CC0DAFF11C0DEFF5B
:1003180012C0DDFF000E066E010E056E120034C01D
:1003280009F035C00AF0000E0C6E640E0B6EC0ECBE
:1003380004F00950300F106E000E076E640E066E42
:1003480034C004F035C005F06AEC05F004C009F0CB
:1003580005C00AF0000E0C6E0A0E0B6EC0EC04F01D
:100368000950300F116E000E076E640E066E34C011
:1003780004F035C005F06AEC05F004C016F005C0BD
:1003880017F016C004F017C005F0000E076E0A0E2D
:10039800066E6AEC05F00450300F126E32C009F098
:1003A80033C00AF0000E0C6E640E0B6EC0EC04F045
:1003B8000950300F136E000E076E640E066E32C0C1
:1003C80004F033C005F06AEC05F004C009F005C07C
:1003D8000AF0000E0C6E0A0E0B6EC0EC04F0095009
:1003E800300F146E000E076E640E066E32C004F0F5
:1003F80033C005F06AEC05F004C016F005C017F02C
:1004080016C004F017C005F0000E076E0A0E066E3F
:100418006AEC05F00450300F156E000E196E000ED0
:10042800186E100E1824D96E000E1920DA6EDF50DF
:100438006DEC07F0184A192A19BE2CEF02F0195072
:1004480009E1030E185CD8A02CEF02F02EEF02F0A1
:1004580015EF02F0000E1B6E000E1A6E130E1A2412
:10046800D96E000E1B20DA6EDF506DEC07F01A4AC9
:100478001B2A1BBE49EF02F01B5009E1030E1A5C50
:10048800D8A049EF02F04BEF02F032EF02F0120071
:10049800000E0D6E0BBE55EF02F053EF02F05FEF4A
:1004A80002F00B1E0A1E091E086C000E09220A2201
:1004B8000B22010E0D6E07BE66EF02F064EF02F02C
:1004C80070EF02F0071E061E051E046C000E0522C2
:1004D80006220722010E0D1A000E0E6E000E0F6E78
:1004E800000E106E000E116E085009100A100B1045
:1004F800D8B481EF02F083EF02F0B9EF02F0010EF9
:100508000C6E8DEF02F0D890083609360A360B3695
:100518000C2A0BAE92EF02F094EF02F087EF02F094
:10052800D8900E360F36103611360850045C095034
:1005380005580A5006580B500758D8A0A6EF02F0E5
:10054800A8EF02F0B1EF02F00850045E0950055A16
:100558000A50065A0B50075A0E80D8900B320A32AE
:10056800093208320C2E94EF02F00D50D8B4BFEFC8
:1005780002F0C1EF02F0C9EF02F0111E101E0F1EAB
:100588000E6C000E0F22102211220EC004F00FC0B4
:1005980005F010C006F011C007F012003604D8A408
:1005A800D8EF02F0DAEF02F012EF03F009EC00F0F6
:1005B800838E020E0B6E040E0A6EBA0EE82EFED75C
:1005C8000A2EFCD70B2EFAD700D0839E20EE4FF0D0
:1005D80010EE0CF0040EDBCFE3FFE806FCE2000EA1
:1005E800176E000E166E0C0E1624D96E000E17200C
:1005F800DA6EDF506DEC07F0164A172A17BE0EEFB9
:1006080003F0175009E1050E165CD8A00EEF03F0B1
:1006180010EF03F0F7EF02F044EF03F03650D8A4E0
:1006280018EF03F01AEF03F044EF03F0838E09ECA0
:1006380000F0839E20EE4AF010EE11F0040EDBCF9E
:10064800E3FFE806FCE2000E196E000E186E110EAC
:100658001824D96E000E1920DA6EDF506DEC07F001
:10066800184A192A19BE42EF03F0195009E1050E7C
:10067800185CD8A042EF03F044EF03F02BEF03F02F
:10068800000E5A6E010E596E12000D0E6DEC07F039
:10069800000E0001786F000E776F600E7725D96E17
:1006A800000E7821DA6EDF506DEC07F00001774B11
:1006B800782B78BF69EF03F0785109E10A0E775D6E
:1006C800D8A069EF03F06BEF03F051EF03F0420E8F
:1006D800056E000E066E410E076E000E086E3E0E89
:1006E800096E000E0A6E3C0E0B6E000E0C6E400E6C
:1006F8000D6E000E0E6ED6EC00F005040610D8A4A0
:1007080088EF03F08AEF03F08DEF03F0020EB0EFED
:1007180003F00D0E6DEC07F0000E00017A6F000E6D
:10072800796F540E7925D96E000E7A21DA6EDF5072
:100738006DEC07F00001794B7A2B7ABFADEF03F02F
:100748007A5109E1050E795DD8A0ADEF03F0AFEF5E
:1007580003F095EF03F0010E1200000E376EFBEF69
:1007680003F079EC06F0376EFBEF03F049EC03F089
:10077800376EFBEF03F033EC05F0376EFBEF03F059
:1007880048EC04F0376EFBEF03F085EC04F0376EAD
:10079800FBEF03F054EC06F0FBEF03F0010E376EAD
:1007A800FBEF03F03750226E236A2350000AD8B4B7
:1007B800E0EF03F0D2EF03F02250000AD8B4B5EF0F
:1007C80003F0010AD8B4BAEF03F0030AD8B4BFEFB4
:1007D80003F0010AD8B4C4EF03F0070AD8B4C9EF8C
:1007E80003F0010AD8B4CEEF03F0D2EF03F05904B6
:1007F8005A10D8B402EF04F004EF04F0D6EF03F077
:1008080012000600F2A20BEF04F00DEF04F026EF41
:1008180004F047EC07F081B014EF04F016EF04F091
:1008280026EF04F0270E036EF50EE82EFED7032EF2
:10083800FCD700F081B023EF04F025EF04F026EF99
:1008480004F0F292F0A02BEF04F02DEF04F046EF45
:1008580004F038EC07F081B234EF04F036EF04F01E
:1008680046EF04F0270E036EF50EE82EFED7032E92
:10087800FCD700F081B243EF04F045EF04F046EFF7
:1008880004F0F0905B921100430E4118D8A44FEF8A
:1008980004F051EF04F056EF04F0010E366E040E2A
:1008A80084EF04F0530E4118D8A45DEF04F05FEF15
:1008B80004F063EF04F0000E366E53EF04F00D0EF3
:1008C8006DEC07F0000E066E000E056E540E052442
:1008D800D96E000E0620DA6EDF506DEC07F0054A7F
:1008E800062A06BE81EF04F0065009E1050E055CF4
:1008F800D8A081EF04F083EF04F06AEF04F0010E52
:1009080012002D0E3E5C010E3F58D8B08EEF04F059
:1009180090EF04F09EEF04F02D0E3C5C010E3D5864
:10092800D8B099EF04F09BEF04F09EEF04F0050EA9
:10093800BFEF04F00D0E6DEC07F0000E066E000E12
:10094800056E540E0524D96E000E0620DA6EDF50AF
:100958006DEC07F0054A062A06BEBCEF04F0065007
:1009680009E1050E055CD8A0BCEF04F0BEEF04F069
:10097800A5EF04F0010E1200000E0E6E000E0D6EB3
:100988000B500C10D8B4CBEF04F0CDEF04F0F5EF1A
:1009980004F0010E0F6ED5EF04F0D8900B360C362C
:1009A8000F2A0CAEDAEF04F0DCEF04F0D1EF04F01C
:1009B800D8900D360E360B50095C0C500A58D8A04A
:1009C800E8EF04F0EAEF04F0EFEF04F00B50095EF3
:1009D8000C500A5A0D80D8900C320B320F2EDCEFD7
:1009E80004F00DC009F00EC00AF01200949C948E19
:1009F80012C008F013C009F0000E09BEFF0E0A6EFF
:100A08000B6E000E046E120E056E7A0E066E000E48
:100A1800076E4CEC02F004C014F005C015F006C0D7
:100A280016F007C017F014C004F015C005F016C082
:100A380006F017C007F0400E086E000E096E000E93
:100A48000A6E000E0B6E4CEC02F00404AF6EAC9410
:100A5800AC98AB8EAC9CAC8AAB9CAB8812003C0EBD
:100A68004218D8A43AEF05F03CEF05F048EF05F03E
:100A78003E0E4018D8A443EF05F045EF05F048EFC7
:100A880005F0030E69EF05F00D0E6DEC07F0000E92
:100A9800066E000E056E540E0524D96E000E062053
:100AA800DA6EDF506DEC07F0054A062A06BE66EFDF
:100AB80005F0065009E1050E055CD8A066EF05F0C3
:100AC80068EF05F04FEF05F0010E12000650071011
:100AD800D8B471EF05F073EF05F097EF05F0010E4C
:100AE800086E7BEF05F0D89006360736082A07AE61
:100AF80080EF05F082EF05F077EF05F00650045C13
:100B080007500558D8A08BEF05F08DEF05F091EF51
:100B180005F00650045E0750055AD8900732063291
:100B2800082E82EF05F004C004F005C005F012009D
:100B3800720ED36EB468B59E0F0EC16E000E836E32
:100B4800000E8C6EF00E956E000E826E000E8B6E8F
:100B5800000E946E000E816E000E8A6E9368250E4C
:100B6800136E800E126EFAEC04F0000E946EF90EFD
:100B7800CB6E0C0EBD6E7D0EBE6E0C0EBA6E7D0E6B
:100B8800BB6E030ECA6E000ECC6ECA841200000E35
:100B98002F6E000E2E6E000E2D6E000E2C6E83949E
:100BA8008396EBEF05F082A4DCEF05F0DEEF05F0AD
:100BB800E0EF05F0B7EC06F02C042D10D8A4E7EF11
:100BC80005F0E9EF05F0EBEF05F0E9EC06F004506D
:100BD8002E5C05502F58D8A0F4EF05F0F6EF05F07D
:100BE800D7EF05F0838483861200000E2F6E000E67
:100BF8002E6E000E2D6E000E2C6E8394839619EFC8
:100C080006F082A40AEF06F00CEF06F00EEF06F0ED
:100C1800D0EC06F02C042D10D8A415EF06F017EF31
:100C280006F019EF06F0FEEC06F001502E5C0250BB
:100C38002F58D8A022EF06F024EF06F005EF06F0B3
:100C4800838483861200AC0EF66E0E0EF76E000ECD
:100C5800F86E00EE60F010EE17F00900F5CFEEFF29
:100C6800E550E150FAE1C30EF66E0E0EF76E000E77
:100C7800F86E00EE43F010EE16F00900F5CFEEFF27
:100C8800E550E150FAE100EE24F01F0EEE6AE806A6
:100C9800FDE15B905B92000EF86E000126EF07F015
:100CA8000D0E6DEC07F0000E066E000E056E430E7D
:100CB8000524D96E000E0620DA6EDF506DEC07F0C1
:100CC800054A062A06BE72EF06F0065009E1070E2D
:100CD800055CD8A072EF06F074EF06F05BEF06F043
:100CE800000E5A6E000E596E12000D0E6DEC07F0D4
:100CF800000E066E000E056E6D0E0524D96E000EF0
:100D08000620DA6EDF506DEC07F0054A062A06BEAB
:100D180097EF06F0065009E10A0E055CD8A097EF98
:100D280006F099EF06F080EF06F0010E1200ABA274
:100D3800A0EF06F0A2EF06F0AAEF06F0AC9AAB9887
:100D4800C80E00D0E82EFDD7AC8AAB889EAAAFEFBC
:100D580006F0B1EF06F0AAEF06F0AECF04F0000EF1
:100D6800AE6E045012002C042D10D8A4BEEF06F06D
:100D7800C0EF06F0C2EF06F0CFEF06F082A4C7EF8F
:100D880006F0C9EF06F0CFEF06F02E4A2F2A000E24
:100D98002D6E010E2C6E12002C042D10D8A4D7EF46
:100DA80006F0D9EF06F0DBEF06F0E8EF06F082A4D4
:100DB800E0EF06F0E2EF06F0E8EF06F02E4A2F2A01
:100DC800000E2D6E010E2C6E120082A4EEEF06F0BE
:100DD800F0EF06F0F2EF06F0FDEF06F082B4F7EF61
:100DE80006F0F9EF06F0FDEF06F0000E2D6E000E8E
:100DF8002C6E120082A403EF07F005EF07F007EF4F
:100E080007F012EF07F082B40CEF07F00EEF07F0CF
:100E180012EF07F0000E2D6E000E2C6E120004501B
:100E28000602F3CF08F0F4CF09F004500702F3509C
:100E3800092605500602F350092608C004F009C027
:100E480005F012009CEC05F0000E5A6E010E596E6A
:100E5800B1EC03F093EC01F0D2EC02F093EC01F06A
:100E680028EF07F007EF00F083908382000E026EF0
:100E7800190E016EF9EC05F083848386000E336E3B
:100E8800000E326E120083808382000E026E190EED
:100E9800016EF9EC05F083848386000E356E000E32
:100EA800346E1200456E7465725F636F6D6D616EAE
:100EB8006457616974696E672E2E2E477261636983
:100EC8006173736C696465636C69636B4572726F97
:010ED80072A7
:100EDA00046E9EA873EF07F075EF07F06EEF07F048
:060EEA0004C0ADFF120080
:020000040020DA
:08000000FFFFFFFFFFFFFFFF00
:020000040030CA
:0E00000000091F1EFF0381FF0FC00FE00F401D
:00000001FF
