:020000040000FA
:040000001EEF3DF0C2
:1079CC009EAAEBEF3CF0EDEF3CF0E6EF3CF0AE5056
:1079DC001200246E9EA8F5EF3CF0F7EF3CF0F0EFB0
:0879EC003CF024C0ADFF1200C5
:1079F500456E7465725F636F6D6D616E6457616925
:107A050074696E672E2E2E477261636961734572C4
:107A1500726F72720ED36E250E336E800E326E81CA
:107A2500EC3DF0000E946E000E5A6E010E596EB8C4
:107A3500EC3EF000EF00F0F50EF66E790EF76E00F5
:107A45000EF86E00EE01F010EE23F00900F5CFEE12
:107A5500FFE550E150FAE100EE42F0170EEE6AE85C
:107A650006FDE1000EF86E00010CEF3DF00D0EEF86
:107A7500EC3CF0000E266E000E256E0E0E2524D968
:107A85006E000E2620DA6EDF50EFEC3CF0254A261C
:107A95002A26BE57EF3DF0265009E10A0E255CD88F
:107AA500A057EF3DF059EF3DF040EF3DF082680102
:107AB5000E12000D0EEFEC3CF0000E266E000E25AA
:107AC5006E180E2524D96E000E2620DA6EDF50EFD3
:107AD500EC3CF0254A262A26BE7AEF3DF0265009D1
:107AE500E1070E255CD8A07AEF3DF07CEF3DF06311
:107AF500EF3DF0000E5A6E000E596E1200949C94E4
:107B05008E32C028F033C029F0000E29BEFF0E2AA0
:107B15006E2B6E000E246E120E256E7A0E266E00EA
:107B25000E276E7AEC3FF024C034F025C035F026E0
:107B3500C036F027C037F034C024F035C025F03604
:107B4500C026F037C027F0400E286E000E296E00C3
:107B55000E2A6E000E2B6E7AEC3FF02404AF6EAC4D
:107B650094AC98AB8EAC9CAC8AAB9CAB8812000DE8
:107B75000EEFEC3CF0000E826E000E3F6E000E3EE6
:107B85006E010E3E24D96E000E3F20DA6EDF50EFF7
:107B9500EC3CF03E4A3F2A3FBEDAEF3DF03F50094C
:107BA500E10A0E3E5CD8A0DAEF3DF0DCEF3DF0C314
:107BB500EF3DF0580E246E000E256E570E266E0012
:107BC5000E276E540E286E000E296E520E2A6E0078
:107BD5000E2B6E560E2C6E000E2D6E08EC3FF082AD
:107BE50068020E1200000E826E3C0E5818D8A4FED4
:107BF500EF3DF000EF3EF00EEF3EF03E0E5618D88A
:107C0500A407EF3EF009EF3EF00EEF3EF0020E82C4
:107C15006E030E31EF3EF00D0EEFEC3CF0000E263C
:107C25006E000E256E1F0E2524D96E000E2620DA55
:107C35006EDF50EFEC3CF0254A262A26BE2CEF3E9F
:107C4500F0265009E1050E255CD8A02CEF3EF02E5C
:107C5500EF3EF015EF3EF0040E826E010E120000AD
:107C65000E826E2D0E545C010E5558D8B03DEF3E78
:107C7500F03FEF3EF04FEF3EF02D0E525C010E53FC
:107C850058D8B048EF3EF04AEF3EF04FEF3EF002D5
:107C95000E826E060E72EF3EF00D0EEFEC3CF0001C
:107CA5000E266E000E256E1F0E2524D96E000E269B
:107CB50020DA6EDF50EFEC3CF0254A262A26BE6D11
:107CC500EF3EF0265009E1050E255CD8A06DEF3E8C
:107CD500F06FEF3EF056EF3EF0040E826E010E128D
:107CE50000000E826E430E5718D8A47CEF3EF07E3E
:107CF500EF3EF085EF3EF0020E826E010E506E04EF
:107D05000EB7EF3EF0530E5718D8A48CEF3EF08E09
:107D1500EF3EF094EF3EF0020E826E000E506E8242
:107D2500EF3EF00D0EEFEC3CF0000E266E000E253A
:107D35006E1F0E2524D96E000E2620DA6EDF50EF59
:107D4500EC3CF0254A262A26BEB2EF3EF026500925
:107D5500E1050E255CD8A0B2EF3EF0B4EF3EF09BF6
:107D6500EF3EF0040E826E010E1200000E516EFE03
:107D7500EF3EF039EC3DF0516EFEEF3EF0BAEC3DD2
:107D8500F0516EFEEF3EF0F5EC3DF0516EFEEF3E2C
:107D9500F073EC3EF0516EFEEF3EF032EC3EF051EA
:107DA5006EFEEF3EF05CEC3DF0FEEF3EF0515040D4
:107DB5006E416A4150000AD8B4E3EF3EF0FEEF3E53
:107DC500F04050000AD8B4BCEF3EF0010AD8B4C167
:107DD500EF3EF0030AD8B4C6EF3EF0010AD8B4CBA3
:107DE500EF3EF0070AD8B4D0EF3EF0020AD8B4D57A
:107DF500EF3EF0FEEF3EF059045A10D8B405EF3FC0
:107E0500F007EF3FF0D9EF3EF01200000E3D6E0097
:107E15000E3C6EE6EC3CF03B6E320E3C24D96E0017
:107E25000E3D20DA6E3BC0DFFF3C4A3D2A3DBE25B4
:107E3500EF3FF03D5009E1090E3C5CD8A025EF3F2E
:107E4500F027EF3FF00CEF3FF024C0D9FF25C0DA53
:107E5500FF32C0DFFF26C0D9FF27C0DAFF33C0DFFE
:107E6500FF300E2E6EEB0E2F6E3450640DF3CF30B7
:107E7500F0F4CF31F035500A0DF3503026F450317F
:107E85002236503026000E31222E5030262F50310A
:107E95002228C0D9FF29C0DAFF30C0DEFF31C0DD9E
:107EA500FF300E2E6EEB0E2F6E3750640DF3CF3074
:107EB500F0F4CF31F038500A0DF3503026F450313C
:107EC5002239503026000E31222E5030262F5031C7
:107ED500222AC0D9FF2BC0DAFF30C0DEFF31C0DD5A
:107EE500FF2CC0D9FF2DC0DAFF3AC0DFFF1200001A
:107EF5000E2D6E2BBE83EF3FF081EF3FF08DEF3FF0
:107F0500F02B1E2A1E291E286C000E29222A222B40
:107F150022010E2D6E27BE94EF3FF092EF3FF09EAB
:107F2500EF3FF0271E261E251E246C000E25222657
:107F3500222722010E2D1A000E2E6E000E2F6E0026
:107F45000E306E000E316E285029102A102B10D8D5
:107F5500B4AFEF3FF0B1EF3FF0E7EF3FF0010E2C8C
:107F65006EBBEF3FF0D890283629362A362B362CB3
:107F75002A2BAEC0EF3FF0C2EF3FF0B5EF3FF0D890
:107F8500902E362F36303631362850245C29502530
:107F9500582A5026582B502758D8A0D4EF3FF0D652
:107FA500EF3FF0DFEF3FF02850245E2950255A2A95
:107FB50050265A2B50275A2E80D8902B322A3229F8
:107FC5003228322C2EC2EF3FF02D50D8B4EDEF3FC2
:107FD500F0EFEF3FF0F7EF3FF0311E301E2F1E2E72
:107FE5006C000E2F22302231222EC024F02FC02506
:0B7FF500F030C026F031C027F0120071
:020000040020DA
:08000000FFFFFFFFFFFFFFFF00
:020000040030CA
:0E00000001081F1EFF0181FF0FC00FE00F401F
:00000001FF
