:020000040000FA
:04000000FBEF3CF0E6
:1079AE009EAADCEF3CF0DEEF3CF0D7EF3CF0AE50A1
:1079BE001200216E9EA8E6EF3CF0E8EF3CF0E1EFFE
:1079CE003CF021C0ADFF1200456E7465725F636FAF
:1079DE006D6D616E6457616974696E672E2E2E45EA
:1079EE0072726F724F6B6179D60EF66E790EF76EFC
:1079FE00000EF86E00EE01F010EE20F00900F5CF4B
:107A0E00EEFFE550E150FAE100EE3FF0080EEE6AAF
:107A1E00E806FDE1000EF86E0001B5EF3EF0000E37
:107A2E00266E000E256E1D0E2524D96E000E262004
:107A3E00DA6EDF50E0EC3CF0254A262A26BE31EF06
:107A4E003DF0265009E1040E255CD8A031EF3DF043
:107A5E0033EF3DF01AEF3DF082685AEC3DF0010E27
:107A6E001200000E266E000E256E0E0E2524D96E07
:107A7E00000E2620DA6EDF50E0EC3CF0254A262A76
:107A8E0026BE53EF3DF0265009E10A0E255CD8A024
:107A9E0053EF3DF055EF3DF03CEF3DF082685AEC70
:107AAE003DF0010E1200000E226E000E216E000E31
:107ABE00246E000E236E234A242A24BE70EF3DF05E
:107ACE00245009E1460E235CD8A070EF3DF072EF12
:107ADE003DF062EF3DF0214A222A22BE80EF3DF0BA
:107AEE00880E215C130E2258D8A080EF3DF082EF55
:107AFE003DF05EEF3DF01200949C948E2FC025F069
:107B0E0030C026F0000E26BEFF0E276E286E000E29
:107B1E00216E120E226E7A0E236E000E246E7AECF9
:107B2E003FF021C031F022C032F023C033F024C028
:107B3E0034F031C021F032C022F033C023F034C013
:107B4E0024F0400E256E000E266E000E276E000EDF
:107B5E00286E7AEC3FF02104AF6EAC94AC98AB8EED
:107B6E00AC9CAC8AAB9CAB8812000D0EE0EC3CF0EA
:107B7E00000E826E000E3C6E000E3B6E010E3B241C
:107B8E00D96E000E3C20DA6EDF50E0EC3CF03B4A42
:107B9E003C2A3CBEDCEF3DF03C5009E10A0E3B5C5A
:107BAE00D8A0DCEF3DF0DEEF3DF0C5EF3DF0460E28
:107BBE00216E000E226E450E236E000E246E420EB6
:107BCE00256E000E266E400E276E000E286E440E99
:107BDE00296E000E2A6E08EC3FF08268020E12002B
:107BEE00000E826E670E4518D8B400EF3EF002EF1D
:107BFE003EF00BEF3EF0830E4518D8A409EF3EF091
:107C0E000BEF3EF012EF3EF0020E826E5AEC3DF09C
:107C1E00040E34EF3EF0000E266E000E256E180E8A
:107C2E002524D96E000E2620DA6EDF50E0EC3CF0F3
:107C3E00254A262A26BE2DEF3EF0265009E1050ED6
:107C4E00255CD8A02DEF3EF02FEF3EF016EF3EF064
:107C5E00040E826E5AEC3DF0010E1200000E826E82
:107C6E00600E4618D8A43EEF3EF040EF3EF050EFC7
:107C7E003EF0620E4418D8A447EF3EF049EF3EF0B6
:107C8E0050EF3EF0020E826E5AEC3DF0030E72EF94
:107C9E003EF0000E266E000E256E180E2524D96EAF
:107CAE00000E2620DA6EDF50E0EC3CF0254A262A44
:107CBE0026BE6BEF3EF0265009E1050E255CD8A0DE
:107CCE006BEF3EF06DEF3EF054EF3EF0040E826E21
:107CDE005AEC3DF0010E1200000E826E2D0E425C2B
:107CEE00010E4358D8B07EEF3EF080EF3EF092EF9B
:107CFE003EF02D0E405C010E4158D8B089EF3EF09B
:107D0E008BEF3EF092EF3EF0020E826E5AEC3DF09B
:107D1E00060EB4EF3EF0000E266E000E256E180E07
:107D2E002524D96E000E2620DA6EDF50E0EC3CF0F2
:107D3E00254A262A26BEADEF3EF0265009E1050E55
:107D4E00255CD8A0ADEF3EF0AFEF3EF096EF3EF0E3
:107D5E00040E826E5AEC3DF0010E1200720ED36EBE
:107D6E00250E306E800E2F6E83EC3DF0000E946E5D
:107D7E00000E3F6EE1EF3EF038EC3DF03F6EE1EF6E
:107D8E003EF0BCEC3DF03F6EE1EF3EF035EC3EF0E8
:107D9E003F6EE1EF3EF0F7EC3DF03F6EE1EF3EF06F
:107DAE0073EC3EF03F6EE1EF3EF016EC3DF03F6EB1
:107DBE00E1EF3EF03F503D6E3E6A3E50000AD8B4B1
:107DCE00EBEF3EF0E1EF3EF03D50000AD8B4C3EFCA
:107DDE003EF0010AD8B4C8EF3EF0030AD8B4CDEF96
:107DEE003EF0010AD8B4D2EF3EF0070AD8B4D7EF6E
:107DFE003EF0020AD8B4DCEF3EF0E1EF3EF000EFC9
:107E0E0000F0000E3A6E000E396ED7EC3CF0386E74
:107E1E002F0E3924D96E000E3A20DA6E38C0DFFFED
:107E2E00394A3A2A3ABE25EF3FF03A5009E1090E97
:107E3E00395CD8A025EF3FF027EF3FF00CEF3FF075
:107E4E0021C0D9FF22C0DAFF2FC0DFFF23C0D9FF28
:107E5E0024C0DAFF30C0DFFF300E2B6EEB0E2C6E1F
:107E6E003150640DF3CF2DF0F4CF2EF032500A0DB9
:107E7E00F3502D26F4502E2233502D26000E2E2296
:107E8E002B502D262C502E2225C0D9FF26C0DAFFCE
:107E9E002DC0DEFF2EC0DDFF300E2B6EEB0E2C6ED6
:107EAE003450640DF3CF2DF0F4CF2EF035500A0D73
:107EBE00F3502D26F4502E2236502D26000E2E2253
:107ECE002B502D262C502E2227C0D9FF28C0DAFF8A
:107EDE002DC0DEFF2EC0DDFF29C0D9FF2AC0DAFF7C
:107EEE0037C0DFFF1200000E2A6E28BE83EF3FF070
:107EFE0081EF3FF08DEF3FF0281E271E261E256CCA
:107F0E00000E262227222822010E2A6E24BE94EF6E
:107F1E003FF092EF3FF09EEF3FF0241E231E221EF5
:107F2E00216C000E222223222422010E2A1A000E78
:107F3E002B6E000E2C6E000E2D6E000E2E6E25502A
:107F4E00261027102810D8B4AFEF3FF0B1EF3FF056
:107F5E00E7EF3FF0010E296EBBEF3FF0D8902536CC
:107F6E00263627362836292A28AEC0EF3FF0C2EF34
:107F7E003FF0B5EF3FF0D8902B362C362D362E36FF
:107F8E002550215C2650225827502358285024581B
:107F9E00D8A0D4EF3FF0D6EF3FF0DFEF3FF0255003
:107FAE00215E2650225A2750235A2850245A2B80BD
:107FBE00D8902832273226322532292EC2EF3FF0B2
:107FCE002A50D8B4EDEF3FF0EFEF3FF0F7EF3FF070
:107FDE002E1E2D1E2C1E2B6C000E2C222D222E2220
:107FEE002BC021F02CC022F02DC023F02EC024F087
:027FFE0012006F
:020000040020DA
:08000000FFFFFFFFFFFFFFFF00
:020000040030CA
:0E000000010B1F1EFF0181FF0FC00FE00F401C
:00000001FF
