:020000040000FA
:0400000007EF00F016
:100008005282B8ED03F083EF05F054EC05F047ECAD
:1000180007F0000E516E010E506E000E4F6E010E6D
:100028004E6E8384838604EC06F0E1EC06F000EC67
:1000380007F00FEC07F0000E316E010E306E23EC66
:1000480003F03EEC02F050C009F051C00AF0000E77
:100058000C6E640E0B6E76EC04F00950300F000144
:100068007E6F000E076E640E066E50C004F051C01D
:1000780005F022EC05F004C009F005C00AF0000EF6
:100088000C6E0A0E0B6E76EC04F00950300F00016E
:100098007F6F000E076E640E066E50C004F051C0EC
:1000A80005F022EC05F004C084F005C085F084C09A
:1000B80004F085C005F0000E076E0A0E066E22ECED
:1000C80005F00450300F0001806F4EC009F04FC09A
:1000D8000AF0000E0C6E640E0B6E76EC04F00950FC
:1000E800300F0001816F000E076E640E066E4EC061
:1000F80004F04FC005F022EC05F004C009F005C07B
:100108000AF0000E0C6E0A0E0B6E76EC04F0095025
:10011800300F0001826F000E076E640E066E4EC02F
:1001280004F04FC005F022EC05F004C084F005C0CF
:1001380085F084C004F085C005F0000E076E0A0E35
:10014800066E22EC05F00450300F0001836F000E9C
:10015800876F000E866F7E0E8625D96E000E87216A
:10016800DA6EDF503CEC07F00001864B872B87BF27
:10017800C7EF00F0875109E1030E865DD8A0C7EFED
:1001880000F0C9EF00F0AFEF00F0000E896F000E2D
:10019800886F810E8825D96E000E8921DA6EDF50AE
:1001A8003CEC07F00001884B892B89BFE5EF00F094
:1001B800895109E1030E885DD8A0E5EF00F0E7EF6B
:1001C80000F0CDEF00F01FEF00F007EF00F0000E99
:1001D800256E010E246E000E236E010E226E505005
:1001E8005110D8A4FAEF00F0FCEF00F002EF01F094
:1001F8003AC036F03BC037F008EF01F050503A5C97
:10020800366E51503B58376E37BE0FEF01F00DEF89
:1002180001F01BEF01F083908392366C371ED8B043
:10022800372A000E256E000E246E21EF01F0838020
:100238008382000E256E010E246E36C004F037C08E
:1002480005F0000E076E050E066ECEEC06F004C033
:1002580028F005C029F028C004F029C005F0B0EC4A
:1002680005F024502510D8A43CEF01F03EEF01F032
:1002780046EF01F03650505C506E37505158516E71
:1002880055EF01F024042510D8A44DEF01F04FEFED
:1002980001F055EF01F050503624506E5150372080
:1002A800516E4E504F10D8A45CEF01F05EEF01F094
:1002B80064EF01F038C034F039C035F06AEF01F06E
:1002C8004E50385C346E4F503958356E35BE71EF2C
:1002D80001F06FEF01F07DEF01F083808392346CC1
:1002E800351ED8B0352A000E236E000E226E83EF1D
:1002F80001F083908382000E236E010E226E34C0BB
:1003080004F035C005F0000E076E050E066ECEEC43
:1003180006F004C026F005C027F026C004F027C068
:1003280005F0B0EC05F022502310D8A49EEF01F0A0
:10033800A0EF01F0A8EF01F034504E5C4E6E35503E
:100348004F584F6EB7EF01F022042310D8A4AFEF37
:1003580001F0B1EF01F0B7EF01F04E5034244E6ECA
:100368004F5035204F6E1200000E0D6E0BBEC1EFC0
:1003780001F0BFEF01F0CBEF01F00B1E0A1E091EC2
:10038800086C000E09220A220B22010E0D6E07BE10
:10039800D2EF01F0D0EF01F0DCEF01F0071E061EEE
:1003A800051E046C000E052206220722010E0D1AF6
:1003B800000E0E6E000E0F6E000E106E000E116E07
:1003C800085009100A100B10D8B4EDEF01F0EFEF48
:1003D80001F025EF02F0010E0C6EF9EF01F0D89054
:1003E800083609360A360B360C2A0BAEFEEF01F03A
:1003F80000EF02F0F3EF01F0D8900E360F3610360A
:1004080011360850045C095005580A5006580B501C
:100418000758D8A012EF02F014EF02F01DEF02F017
:100428000850045E0950055A0A50065A0B50075ADC
:100438000E80D8900B320A32093208320C2E00EFA7
:1004480002F00D50D8B42BEF02F02DEF02F035EF8B
:1004580002F0111E101E0F1E0E6C000E0F2210222D
:1004680011220EC004F00FC005F010C006F011C034
:1004780007F012003204D8A444EF02F046EF02F06D
:100488007EEF02F0EBEC00F0838E020E0B6E040E92
:100498000A6EBA0EE82EFED70A2EFCD70B2EFAD714
:1004A80000D0839E20EE44F010EE0CF0040EDBCF5B
:1004B800E3FFE806FCE2000E176E000E166E0C0E47
:1004C8001624D96E000E1720DA6EDF503CEC07F0C8
:1004D800164A172A17BE7AEF02F0175009E1050EDF
:1004E800165CD8A07AEF02F07CEF02F063EF02F01E
:1004F800B0EF02F03250D8A484EF02F086EF02F099
:10050800B0EF02F0838EEBEC00F0839E20EE3FF01C
:1005180010EE11F0040EDBCFE3FFE806FCE2000E5C
:10052800196E000E186E110E1824D96E000E1920BF
:10053800DA6EDF503CEC07F0184A192A19BEAEEF04
:1005480002F0195009E1050E185CD8A0AEEF02F0D0
:10055800B0EF02F097EF02F01200000E1D6E000ED1
:100568001C6E51EC07F01B6E120E1C24D96E000E87
:100578001D20DA6E1BC0DFFF1C4A1D2A1DBECEEFF0
:1005880002F01D5009E1090E1C5CD8A0CEEF02F064
:10059800D0EF02F0B5EF02F004C0D9FF05C0DAFFD2
:1005A80012C0DFFF06C0D9FF07C0DAFF13C0DFFFA4
:1005B800300E0E6EEB0E0F6E1450640DF3CF10F06C
:1005C800F4CF11F015500A0DF3501026F4501122F3
:1005D80016501026000E11220E5010260F50112210
:1005E80008C0D9FF09C0DAFF10C0DEFF11C0DDFF67
:1005F800300E0E6EEB0E0F6E1750640DF3CF10F029
:10060800F4CF11F018500A0DF3501026F4501122AF
:1006180019501026000E11220E5010260F501122CC
:100628000AC0D9FF0BC0DAFF10C0DEFF11C0DDFF22
:100638000CC0D9FF0DC0DAFF1AC0DFFF1200000E90
:10064800336E69EF03F04FEC06F0336E69EF03F099
:100658003CEC04F0336E69EF03F0B0EC04F0336E59
:1006680069EF03F073EC03F0336E69EF03F0FBEC12
:1006780003F0336E69EF03F02AEC06F069EF03F03C
:100688003350206E216A2150000AD8B44EEF03F08F
:1006980069EF03F02050000AD8B427EF03F0010AED
:1006A800D8B42CEF03F0030AD8B431EF03F0010AF1
:1006B800D8B436EF03F0070AD8B43BEF03F0010AC9
:1006C800D8B440EF03F069EF03F030043110D8B428
:1006D80070EF03F072EF03F044EF03F01200000E26
:1006E800826E430E3D18D8A47CEF03F07EEF03F032
:1006F80085EF03F0020E826E010E326E040EB7EF24
:1007080003F0530E3D18D8A48CEF03F08EEF03F0DE
:1007180094EF03F0020E826E000E326E82EF03F049
:100728000D0E3CEC07F0000E066E000E056E490E2D
:100738000524D96E000E0620DA6EDF503CEC07F077
:10074800054A062A06BEB2EF03F0065009E1050E77
:10075800055CD8A0B2EF03F0B4EF03F09BEF03F011
:10076800040E826E010E12000600F2A2BEEF03F024
:10077800C0EF03F0D9EF03F02DEC07F081B0C7EF1D
:1007880003F0C9EF03F0D9EF03F0270E036EF50E5F
:10079800E82EFED7032EFCD700F081B0D6EF03F089
:1007A800D8EF03F0D9EF03F0F292F0A0DEEF03F0F8
:1007B800E0EF03F0F9EF03F01EEC07F081B2E7EF8A
:1007C80003F0E9EF03F0F9EF03F0270E036EF50EDF
:1007D800E82EFED7032EFCD700F081B2F6EF03F027
:1007E800F8EF03F0F9EF03F0F09052921100000EC9
:1007F800826E2D0E3A5C010E3B58D8B006EF04F01D
:1008080008EF04F018EF04F02D0E385C010E39588B
:10081800D8B011EF04F013EF04F018EF04F0020E53
:10082800826E050E3BEF04F00D0E3CEC07F0000E57
:10083800066E000E056E490E0524D96E000E0620C0
:10084800DA6EDF503CEC07F0054A062A06BE36EFA2
:1008580004F0065009E1050E055CD8A036EF04F057
:1008680038EF04F01FEF04F0040E826E010E120040
:100878000D0E3CEC07F0000E826E000E1F6E000E8F
:100888001E6E600E1E24D96E000E1F20DA6EDF5019
:100898003CEC07F01E4A1F2A1FBE5CEF04F01F50F5
:1008A80009E10A0E1E5CD8A05CEF04F05EEF04F0CC
:1008B80045EF04F03E0E046E000E056E3D0E066E0A
:1008C800000E076E3A0E086E000E096E380E0A6E9C
:1008D800000E0B6E3C0E0C6E000E0D6EB1EC02F0AD
:1008E800020E1200000E0F6E000E0E6E0B500C1052
:1008F800D8B481EF04F083EF04F0ABEF04F0010EFD
:100908000D6E8BEF04F0D8900B360C360D2A0CAE1A
:1009180090EF04F092EF04F087EF04F0D8900E36D1
:100928000F360B50095C0C500A58D8A09EEF04F003
:10093800A0EF04F0A5EF04F00B50095E0C500A5A22
:100948000E80D8900C320B320D2E92EF04F00EC0B0
:1009580009F00FC00AF01200000E826E3C0E3E181D
:10096800D8A4B9EF04F0BBEF04F0C7EF04F03E0ED3
:100978003C18D8A4C2EF04F0C4EF04F0C7EF04F0A9
:10098800030EE8EF04F00D0E3CEC07F0000E066EC7
:10099800000E056E490E0524D96E000E0620DA6E8B
:1009A800DF503CEC07F0054A062A06BEE5EF04F0E6
:1009B800065009E1050E055CD8A0E5EF04F0E7EF65
:1009C80004F0CEEF04F0010E1200949C948E12C035
:1009D80008F013C009F0000E09BEFF0E0A6E0B6E78
:1009E800000E046E120E056E7A0E066E000E076E6D
:1009F800B8EC01F004C014F005C015F006C016F0FC
:100A080007C017F014C004F015C005F016C006F0B2
:100A180017C007F0400E086E000E096E000E0A6E31
:100A2800000E0B6EB8EC01F00404AF6EAC94AC98F9
:100A3800AB8EAC9CAC8AAB9CAB88120006500710FE
:100A4800D8B429EF05F02BEF05F04FEF05F0010EB4
:100A5800086E33EF05F0D89006360736082A07AE39
:100A680038EF05F03AEF05F02FEF05F00650045C7B
:100A780007500558D8A043EF05F045EF05F049EFBA
:100A880005F00650045E0750055AD8900732063222
:100A9800082E3AEF05F004C004F005C005F0120076
:100AA800720ED36EB468B59E0F0EC16E000E836EC3
:100AB800000E8C6EF00E956E000E826E000E8B6E20
:100AC800000E946E000E816E000E8A6E9368250EDD
:100AD800136E800E126EE9EC04F0000E946EF90E9F
:100AE800CB6E0C0EBD6E7D0EBE6E0C0EBA6E7D0EFC
:100AF800BB6E030ECA6E000ECC6ECA841200E20EE4
:100B0800F66E0D0EF76E000EF86E00EE60F010EE49
:100B18001EF00900F5CFEEFFE550E150FAE1B40E02
:100B2800F66E0E0EF76E000EF86E00EE3FF010EE49
:100B38000FF00900F5CFEEFFE550E150FAE100EEC5
:100B480022F01D0EEE6AE806FDE152905292000E68
:100B5800F86E000109EF00F0000E2D6E000E2C6EED
:100B6800000E2B6E000E2A6ECEEF05F082A4BFEFAA
:100B780005F0C1EF05F0C3EF05F072EC06F02A04AA
:100B88002B10D8A4CAEF05F0CCEF05F0CEEF05F096
:100B9800A4EC06F004502C5C05502D58D8A0D7EFD3
:100BA80005F0D9EF05F0BAEF05F01200000E2D6E32
:100BB800000E2C6E000E2B6E000E2A6EF8EF05F05C
:100BC80082A4E9EF05F0EBEF05F0EDEF05F08BEC13
:100BD80006F02A042B10D8A4F4EF05F0F6EF05F080
:100BE800F8EF05F0B9EC06F001502C5C02502D58D6
:100BF800D8A001EF06F003EF06F0E4EF05F01200CD
:100C08008390839220EF06F050505110D8A40FEF34
:100C180006F011EF06F015EF06F08384838620EFC7
:100C280006F050505110D8B41CEF06F01EEF06F035
:100C380020EF06F08394839650505110D8A427EFE4
:100C480006F029EF06F008EF06F012000D0E3CEC56
:100C580007F0000E066E000E056E770E0524D96E9D
:100C6800000E0620DA6EDF503CEC07F0054A062A33
:100C780006BE48EF06F0065009E1070E055CD8A04D
:100C880048EF06F04AEF06F031EF06F0000E316E3D
:100C9800000E306E12000D0E3CEC07F0000E066ED2
:100CA800000E056E6D0E0524D96E000E0620DA6E54
:100CB800DF503CEC07F0054A062A06BE6DEF06F049
:100CC800065009E10A0E055CD8A06DEF06F06FEF3B
:100CD80006F056EF06F08268010E12002A042B1067
:100CE800D8A479EF06F07BEF06F07DEF06F08AEFE7
:100CF80006F082A482EF06F084EF06F08AEF06F091
:100D08002C4A2D2A000E2B6E010E2A6E12002A0480
:100D18002B10D8A492EF06F094EF06F096EF06F0A9
:100D2800A3EF06F082A49BEF06F09DEF06F0A3EF79
:100D380006F02C4A2D2A000E2B6E010E2A6E120088
:100D480082A4A9EF06F0ABEF06F0ADEF06F0B8EF1E
:100D580006F082B4B2EF06F0B4EF06F0B8EF06F092
:100D6800000E2B6E000E2A6E120082A4BEEF06F053
:100D7800C0EF06F0C2EF06F0CDEF06F082B4C7EF81
:100D880006F0C9EF06F0CDEF06F0000E2B6E000E50
:100D98002A6E120004500602F3CF08F0F4CF09F0CF
:100DA80004500702F350092605500602F35009269D
:100DB80008C004F009C005F0120083808392839470
:100DC80083964E504F10D8A4ECEF06F0EEEF06F0E5
:100DD800E3EF06F0838483861200456E7465725FC4
:100DE800636F6D6D616E6457616974696E672E2EED
:100DF8002E4772616369617383908382000E056E6A
:100E0800320E046EB0EC05F083848386000E4F6EBC
:100E1800000E4E6E120083808382000E056E320E25
:100E2800046EB0EC05F083848386000E516E000ECC
:100E3800506E120083908382000E026E320E016E95
:100E4800DAEC05F083848386000E4F6E000E4E6E3A
:100E5800120083808382000E026E320E016EDAEC7D
:100E680005F083848386000E516E000E506E1200CA
:100E7800046E9EA842EF07F044EF07F03DEF07F03D
:100E880004C0ADFF1200F28CD09EF28EF292F2886E
:100E9800F19CF19AF086F18E12009EAA56EF07F0A7
:100EA80058EF07F051EF07F0AE501200736C696409
:0B0EB80065636C69636B4572726F72BA
:020000040020DA
:08000000FFFFFFFFFFFFFFFF00
:020000040030CA
:0E00000000091F1EFF0381FF0FC00FE00F401D
:00000001FF
