:020000040000FA
:0400000007EF00F016
:0A00080043820FED08F02CEF0BF01F
:1008000000546F75636820496E7374727563637406
:10081000696F6E206973206E6F74207265636F67F5
:100820006E697A6564004672616D657320617265F8
:10083000206E6F7420696E73657274656420636FD7
:1008400072726563746C7900436F6D6D616E647371
:100850002077657265206E6F74207265636F676EB6
:10086000697A656400537572706173736573206390
:100870006F6F7264696E617465732073697A650065
:1008800056657269667920436F6D706C6574656436
:1008900000456E74657220636F6D6D616E64005308
:1008A0006920656E74726F2061207800536920653D
:1008B0006E74726F206120790053616C696F2064DF
:1008C0006520780053616C696F206465207900575A
:1008D000616974696E672E2E2E00536C6964650021
:0708E000436C69636B00002B
:1008E800000E1E6EAB88000E206E000E1F6E39ECD7
:1008F8000BF01C6E130E1F24D96E000E2020DA6E2A
:100908001CC0DFFF080E1F182010D8A48EEF04F0BB
:1009180090EF04F091EF04F0AB981F4A202A20BE14
:100928009FEF04F0205009E1090E1F5CD8A09FEF4B
:1009380004F0A1EF04F07BEF04F0ABA2A6EF04F003
:10094800A8EF04F0B4EF04F0AC9AAB98270E0F6E42
:10095800F50EE82EFED70F2EFCD700F0AC8AAB8838
:1009680005C0D9FF06C0DAFF13C0DFFF07C0D9FFF3
:1009780008C0DAFF14C0DFFF0DC0D9FF0EC0DAFFD0
:100988001BC0DFFF020E216E130E2124D96EDA6A16
:10099800000EDA223A0EDF60D4EF04F0D6EF04F04E
:1009A800E5EF04F0130E2124D96EDA6A000EDA227C
:1009B8002F0EDF64E2EF04F0E4EF04F0E5EF04F05B
:1009C8001E2A212A070E2164ECEF04F0EEEF04F052
:1009D800C8EF04F0060E1E18D8A4F5EF04F0F7EFE0
:1009E80004F0F9EF04F0FFEF04F0000E066E000EBD
:1009F800056E43EF05F0300E0F6EEB0E106E1550BE
:100A0800640DF3CF11F0F4CF12F016500A0DF35025
:100A18001126F450122217501126000E12220F50E0
:100A280011261050122209C0D9FF0AC0DAFF11C0DE
:100A3800DEFF12C0DDFF300E0F6EEB0E106E185089
:100A4800640DF3CF11F0F4CF12F019500A0DF350E2
:100A58001126F45012221A501126000E12220F509D
:100A68001126105012220BC0D9FF0CC0DAFF11C09A
:100A7800DEFF12C0DDFF000E066E010E056E1200CD
:100A8800000E276E010E266E000E256E010E246ED6
:100A980041504210D8A453EF05F055EF05F05BEF35
:100AA80005F03AC036F03BC037F061EF05F0415031
:100AB8003A5C366E42503B58376E37BE68EF05F0E9
:100AC80066EF05F074EF05F083808382366C371E7D
:100AD800D8B0372A000E276E000E266E7AEF05F082
:100AE80083908392000E276E010E266E36C004F0A6
:100AF80037C005F0000E076E050E066EEAEC0AF028
:100B080004C02AF005C02BF02AC004F02BC005F061
:100B1800C8EC09F026502710D8A495EF05F097EFF8
:100B280005F09FEF05F03650415C416E3750425852
:100B3800426EAEEF05F026042710D8A4A6EF05F004
:100B4800A8EF05F0AEEF05F041503624416E425053
:100B58003720426E3F504010D8A4B5EF05F0B7EFEC
:100B680005F0BDEF05F038C034F039C035F0C3EFFB
:100B780005F03F50385C346E40503958356E35BEFC
:100B8800CAEF05F0C8EF05F0D6EF05F08390838231
:100B9800346C351ED8B0352A000E256E000E246E32
:100BA800DCEF05F083808392000E256E010E246E23
:100BB80034C004F035C005F0000E076E050E066E51
:100BC800EAEC0AF004C028F005C029F028C004F0B7
:100BD80029C005F0C8EC09F024502510D8A4F7EF77
:100BE80005F0F9EF05F001EF06F034503F5C3F6E79
:100BF80035504058406E10EF06F024042510D8A454
:100C080008EF06F00AEF06F010EF06F03F50342424
:100C18003F6E40503520406E120041C009F042C07E
:100C28000AF0000E0C6E640E0B6E58EC08F00950BA
:100C3800300F106E000E076E640E066E41C004F091
:100C480042C005F037EC09F004C009F005C00AF00D
:100C5800000E0C6E0A0E0B6E58EC08F00950300F9F
:100C6800116E000E076E640E066E41C004F042C09D
:100C780005F037EC09F004C016F005C017F016C0EF
:100C880004F017C005F0000E076E0A0E066E37EC6A
:100C980009F00450300F126E3FC009F040C00AF04E
:100CA800000E0C6E640E0B6E58EC08F00950300FF5
:100CB800136E000E076E640E066E3FC004F040C04F
:100CC80005F037EC09F004C009F005C00AF0000E81
:100CD8000C6E0A0E0B6E58EC08F00950300F146EAB
:100CE800000E076E640E066E3FC004F040C005F0AB
:100CF80037EC09F004C016F005C017F016C004F070
:100D080017C005F0000E076E0A0E066E37EC09F0E4
:100D18000450300F156E000E196E000E186E100E6E
:100D28001824D96E000E1920DA6EDF5051EC0BF042
:100D3800184A192A19BEAAEF06F0195009E1030E3C
:100D4800185CD8A0AAEF06F0ACEF06F093EF06F017
:100D58002C0E51EC0BF0000E1B6E000E1A6E130ECB
:100D68001A24D96E000E1B20DA6EDF5051EC0BF0FE
:100D78001A4A1B2A1BBECAEF06F01B5009E1030ED4
:100D88001A5CD8A0CAEF06F0CCEF06F0B3EF06F075
:100D98001200000E0D6E0BBED6EF06F0D4EF06F073
:100DA800E0EF06F00B1E0A1E091E086C000E092251
:100DB8000A220B22010E0D6E07BEE7EF06F0E5EFE3
:100DC80006F0F1EF06F0071E061E051E046C000E65
:100DD800052206220722010E0D1A000E0E6E000EC5
:100DE8000F6E000E106E000E116E085009100A10DA
:100DF8000B10D8B402EF07F004EF07F03AEF07F052
:100E0800010E0C6E0EEF07F0D890083609360A3638
:100E18000B360C2A0BAE13EF07F015EF07F008EFAF
:100E280007F0D8900E360F36103611360850045C8D
:100E3800095005580A5006580B500758D8A027EFF4
:100E480007F029EF07F032EF07F00850045E095069
:100E5800055A0A50065A0B50075A0E80D8900B3282
:100E68000A32093208320C2E15EF07F00D50D8B4AB
:100E780040EF07F042EF07F04AEF07F0111E101E8F
:100E88000F1E0E6C000E0F22102211220EC004F04D
:100E98000FC005F010C006F011C007F0120099EC61
:100EA80009F0000E426E010E416E000E406E010EFA
:100EB8003F6E83848386838083826BEF07F08394FD
:100EC80083969F0E056E080E066E69EC09F081A2E6
:100ED80070EF07F072EF07F063EF07F08384838603
:100EE80081A279EF07F07BEF07F085EF07F0000E9E
:100EF800426E000E416EB90E056E080E066E69EC64
:100F080009F08390838291EF07F083948396AC0E67
:100F1800056E080E066E69EC09F081A096EF07F0E1
:100F280098EF07F089EF07F08384838681A09FEF0D
:100F380007F0A1EF07F0ABEF07F0000E406E000ED0
:100F48003F6EC40E056E080E066E69EC09F0000EC1
:100F5800316E010E306EBBEC07F011EC06F001ECBF
:100F680009F011EC06F0ABEF07F007EF00F0000E08
:100F7800336E05EF08F046EC0BF0336E05EF08F022
:100F8800CBEC08F0336E05EF08F06EEC0AF0336E28
:100F980005EF08F024EC0AF0336E05EF08F04AEC90
:100FA8000AF0336E05EF08F0FDEC0AF005EF08F0E3
:100FB800010E336E05EF08F03350226E236A23507A
:100FC800000AD8B4EAEF07F0DCEF07F02250000A75
:100FD800D8B4BFEF07F0010AD8B4C4EF07F0030A8A
:100FE800D8B4C9EF07F0010AD8B4CEEF07F0070A62
:100FF800D8B4D3EF07F0010AD8B4D8EF07F0DCEF84
:1010080007F030043110D8B40CEF08F00EEF08F0F8
:10101800E0EF07F012000600F2A215EF08F017EF54
:1010280008F033EF08F0450E5CEC0BF01DEC0BF00C
:1010380081B021EF08F023EF08F033EF08F0270E16
:10104800036EF50EE82EFED7032EFCD700F081B014
:1010580030EF08F032EF08F033EF08F0F292F0A02A
:1010680038EF08F03AEF08F056EF08F0650E5CEC40
:101078000BF00EEC0BF081B244EF08F046EF08F0ED
:1010880056EF08F0270E036EF50EE82EFED7032E56
:10109800FCD700F081B253EF08F055EF08F056EF97
:1010A80008F0F09043921100000E0E6E000E0D6EC7
:1010B8000B500C10D8B463EF08F065EF08F08DEF13
:1010C80008F0010E0F6E6DEF08F0D8900B360C3655
:1010D8000F2A0CAE72EF08F074EF08F069EF08F011
:1010E800D8900D360E360B50095C0C500A58D8A013
:1010F80080EF08F082EF08F087EF08F00B50095EE8
:101108000C500A5A0D80D8900C320B320F2E74EF07
:1011180008F00DC009F00EC00AF01200949C948EDD
:1011280012C008F013C009F0000E09BEFF0E0A6EC7
:101138000B6E000E046E120E056E7A0E066E000E11
:10114800076ECDEC06F004C014F005C015F006C01B
:1011580016F007C017F014C004F015C005F016C04B
:1011680006F017C007F0400E086E000E096E000E5C
:101178000A6E000E0B6ECDEC06F00404AF6EAC9454
:10118800AC98AB8EAC9CAC8AAB9CAB8812000D0EB5
:1011980051EC0BF0910E056E080E066E69EC09F025
:1011A8003E0E056E000E066E3D0E076E000E086EB2
:1011B8003A0E096E000E0A6E380E0B6E000E0C6E9B
:1011C8003C0E0D6E000E0E6E74EC04F00504061055
:1011D800D8A4F1EF08F0F3EF08F0F6EF08F0020EEC
:1011E80000EF09F0480E056E080E066E69EC09F06E
:1011F8000A0E51EC0BF0010E12003204D8A407EFCE
:1012080009F009EF09F020EF09F044EC05F0838EAE
:101218000D0E0B6E2D0E0A6ED80EE82EFED70A2E76
:10122800FCD70B2EFAD7839EE00E056E080E066ECD
:1012380069EC09F032EF09F03250D8A426EF09F032
:1012480028EF09F032EF09F0838E44EC05F0839E15
:10125800DA0E056E080E066E69EC09F0000E316EA6
:10126800010E306E120006500710D8B43EEF09F098
:1012780040EF09F064EF09F0010E086E48EF09F03D
:10128800D89006360736082A07AE4DEF09F04FEF1B
:1012980009F044EF09F00650045C07500558D8A03F
:1012A80058EF09F05AEF09F05EEF09F00650045EB6
:1012B8000750055AD89007320632082E4FEF09F02A
:1012C80004C004F005C005F01200000E096E0950B4
:1012D8000524076E000E0620086E07C0F6FF08C03A
:1012E800F7FF0800F5500009D8A47DEF09F07FEF5B
:1012F80009F081EF09F098EF09F009500524076E0D
:10130800000E0620086E07C0F6FF08C0F7FF0800A9
:10131800F55051EC0BF0092A0928D8A496EF09F0EA
:1013280098EF09F06BEF09F01200720ED36EB468F3
:10133800B59E0F0EC16E000E836E000E8C6E000EF1
:10134800956E000E826E000E8B6E000E946E000E6F
:10135800816E000E8A6E9368250E136E800E126ED3
:1013680092EC08F0000E946EF90ECB6E0C0EBD6E6A
:101378007D0EBE6E0C0EBA6E7D0EBB6E030ECA6E6F
:10138800000ECC6ECA841200000E2F6E000E2E6E58
:10139800000E2D6E000E2C6E83948396E8EF09F0F4
:1013A80082A4D9EF09F0DBEF09F0DDEF09F08EEC4C
:1013B8000AF02C042D10D8A4E4EF09F0E6EF09F0A8
:1013C800E8EF09F0C0EC0AF004502E5C05502F58E5
:1013D800D8A0F1EF09F0F3EF09F0D4EF09F0838416
:1013E80083861200000E2F6E000E2E6E000E2D6EDC
:1013F800000E2C6E8394839616EF0AF082A407EFF2
:101408000AF009EF0AF00BEF0AF0A7EC0AF02C0437
:101418002D10D8A412EF0AF014EF0AF016EF0AF014
:10142800D5EC0AF001502E5C02502F58D8A01FEFBF
:101438000AF021EF0AF002EF0AF083848386120093
:10144800430E3D18D8A42BEF0AF02DEF0AF032EF27
:101458000AF0010E326E040E49EF0AF0530E3D18E1
:10146800D8A439EF0AF03BEF0AF03FEF0AF0000E7C
:10147800326E2FEF0AF0010E056E080E066E69EC4B
:1014880009F00A0E51EC0BF0010E12002D0E3A5C19
:10149800010E3B58D8B053EF0AF055EF0AF063EF4E
:1014A8000AF02D0E385C010E3958D8B05EEF0AF0FC
:1014B80060EF0AF063EF0AF0050E6DEF0AF0650EB3
:1014C800056E080E066E69EC09F00A0E51EC0BF079
:1014D800010E12003C0E3E18D8A475EF0AF077EF03
:1014E8000AF083EF0AF03E0E3C18D8A47EEF0AF00B
:1014F80080EF0AF083EF0AF0030E8DEF0AF0260E54
:10150800056E080E066E69EC09F00A0E51EC0BF038
:10151800010E12002C042D10D8A495EF0AF097EFB5
:101528000AF099EF0AF0A6EF0AF082A49EEF0AF0FB
:10153800A0EF0AF0A6EF0AF02E4A2F2A000E2D6E11
:10154800010E2C6E12002C042D10D8A4AEEF0AF058
:10155800B0EF0AF0B2EF0AF0BFEF0AF082A4B7EFDB
:101568000AF0B9EF0AF0BFEF0AF02E4A2F2A000E50
:101578002D6E010E2C6E120082A4C5EF0AF0C7EF83
:101588000AF0C9EF0AF0D4EF0AF082B4CEEF0AF0FD
:10159800D0EF0AF0D4EF0AF0000E2D6E000E2C6E7C
:1015A800120082A4DAEF0AF0DCEF0AF0DEEF0AF0AC
:1015B800E9EF0AF082B4E3EF0AF0E5EF0AF0E9EFA9
:1015C8000AF0000E2D6E000E2C6E1200045006025A
:1015D800F3CF08F0F4CF09F004500702F3500926BE
:1015E80005500602F350092608C004F009C005F0AA
:1015F80012000D0E51EC0BF0800E056E080E066EF3
:1016080069EC09F00A0E51EC0BF0000E316E000E79
:10161800306E120083808392000E026E190E016EE6
:10162800F6EC09F083848386000E406E000E3F6E50
:10163800120083908392000E026E190E016EF6EC72
:1016480009F083848386000E426E000E416E1200FC
:1016580000EE24F01B0EEE6AE806FDE1439043928B
:10166800000EF86E000153EF07F09EAA3EEF0BF054
:1016780040EF0BF039EF0BF0AECF04F0000EAE6E7A
:10168800045012000D0E51EC0BF0CF0E056E080E33
:10169800066E69EC09F0010E1200046E9EA857EF61
:1016A8000BF059EF0BF052EF0BF004C0ADFF120036
:1016B800016E9EA862EF0BF064EF0BF05DEF0BF08C
:0616C80001C0ADFF12009D
:020000040020DA
:08000000FFFFFFFFFFFFFFFF00
:020000040030CA
:0E00000000091F1EFF8381FF0FC00FE00F409D
:00000001FF
