:020000040000FA
:0400000007EF00F016
:100008005B8204ED04F026EF06F0000E276E010E69
:10001800266E000E256E010E246E34503510D8A4BD
:1000280018EF00F01AEF00F020EF00F03EC03AF0B1
:100038003FC03BF026EF00F034503E5C3A6E35503E
:100048003F583B6E3BBE2DEF00F02BEF00F039EF31
:1000580000F0839083923A6C3B1ED8B03B2A000E86
:10006800276E000E266E3FEF00F083808382000E1D
:10007800276E010E266E3AC004F03BC005F0000E54
:10008800076E050E066E25EC07F004C02AF005C0C1
:100098002BF02AC004F02BC005F0CAEC05F026505E
:1000A8002710D8A45AEF00F05CEF00F064EF00F0DE
:1000B8003A50345C346E3B503558356E73EF00F06F
:1000C80026042710D8A46BEF00F06DEF00F073EF53
:1000D80000F034503A24346E35503B20356E32509F
:1000E8003310D8A47AEF00F07CEF00F082EF00F034
:1000F8003CC038F03DC039F088EF00F032503C5C2D
:10010800386E33503D58396E39BE8FEF00F08DEFA1
:1001180000F09BEF00F083808392386C391ED8B0D2
:10012800392A000E256E000E246EA1EF00F0839090
:100138008382000E256E010E246E38C004F039C08B
:1001480005F0000E076E050E066E25EC07F004C0DC
:1001580028F005C029F028C004F029C005F0CAEC31
:1001680005F024502510D8A4BCEF00F0BEEF00F035
:10017800C6EF00F03850325C326E39503358336E67
:10018800D5EF00F024042510D8A4CDEF00F0CFEF70
:1001980000F0D5EF00F032503824326E3350392059
:1001A800336E1200000E1E6E000E206E000E1F6EC3
:1001B8009AEC06F01C6E130E1F24D96E000E202038
:1001C800DA6E1CC0DFFF090E1F182010D8A4EFEF4D
:1001D80000F0F1EF00F0F2EF00F0AB981F4A202A90
:1001E80020BE00EF01F0205009E1090E1F5CD8A0E5
:1001F80000EF01F002EF01F0DCEF00F005C0D9FFDD
:1002080006C0DAFF13C0DFFF07C0D9FF08C0DAFF56
:1002180014C0DFFF0DC0D9FF0EC0DAFF1BC0DFFF1F
:10022800020E216E130E2124D96EDA6A000EDA222C
:100238003A0EDF6022EF01F024EF01F033EF01F016
:10024800130E2124D96EDA6A000EDA222F0EDF642B
:1002580030EF01F032EF01F033EF01F01E2A212ACE
:10026800070E21643AEF01F03CEF01F016EF01F0C0
:10027800060E1E18D8A443EF01F045EF01F047EF32
:1002880001F04DEF01F0000E066E000E056E91EFC5
:1002980001F0300E0F6EEB0E106E1550640DF3CF9B
:1002A80011F0F4CF12F016500A0DF3501126F45045
:1002B800122217501126000E12220F50112610502C
:1002C800122209C0D9FF0AC0DAFF11C0DEFF12C02E
:1002D800DDFF300E0F6EEB0E106E1850640DF3CF6D
:1002E80011F0F4CF12F019500A0DF3501126F45002
:1002F80012221A501126000E12220F5011261050E9
:1003080012220BC0D9FF0CC0DAFF11C0DEFF12C0E9
:10031800DDFF000E066E010E056E120034C009F0F6
:1003280035C00AF0000E0C6E640E0B6EBFEC04F0C4
:100338000950300F106E000E076E640E066E34C042
:1003480004F035C005F069EC05F004C009F005C0FB
:100358000AF0000E0C6E0A0E0B6EBFEC04F009508A
:10036800300F116E000E076E640E066E34C004F076
:1003780035C005F069EC05F004C016F005C017F0AB
:1003880016C004F017C005F0000E076E0A0E066EC0
:1003980069EC05F00450300F126E32C009F033C01A
:1003A8000AF0000E0C6E640E0B6EBFEC04F00950E0
:1003B800300F136E000E076E640E066E32C004F026
:1003C80033C005F069EC05F004C009F005C00AF077
:1003D800000E0C6E0A0E0B6EBFEC04F00950300FC5
:1003E800146E000E076E640E066E32C004F033C041
:1003F80005F069EC05F004C016F005C017F016C04A
:1004080004F017C005F0000E076E0A0E066E69ECC0
:1004180005F00450300F156E000E196E000E186EA0
:10042800100E1824D96E000E1920DA6EDF506DEC0C
:1004380007F0184A192A19BE2BEF02F0195009E1E2
:10044800030E185CD8A02BEF02F02DEF02F014EF8A
:1004580002F0000E1B6E000E1A6E130E1A24D96ECF
:10046800000E1B20DA6EDF506DEC07F01A4A1B2ACB
:100478001BBE48EF02F01B5009E1030E1A5CD8A01E
:1004880048EF02F04AEF02F031EF02F01200000EDE
:100498000D6E0BBE54EF02F052EF02F05EEF02F069
:1004A8000B1E0A1E091E086C000E09220A220B22C6
:1004B800010E0D6E07BE65EF02F063EF02F06FEFFD
:1004C80002F0071E061E051E046C000E05220622F9
:1004D8000722010E0D1A000E0E6E000E0F6E000E92
:1004E800106E000E116E085009100A100B10D8B4C7
:1004F80080EF02F082EF02F0B8EF02F0010E0C6E0E
:100508008CEF02F0D890083609360A360B360C2ADA
:100518000BAE91EF02F093EF02F086EF02F0D89065
:100528000E360F36103611360850045C095005583F
:100538000A5006580B500758D8A0A5EF02F0A7EFAD
:1005480002F0B0EF02F00850045E0950055A0A5054
:10055800065A0B50075A0E80D8900B320A320932CD
:1005680008320C2E93EF02F00D50D8B4BEEF02F013
:10057800C0EF02F0C8EF02F0111E101E0F1E0E6C25
:10058800000E0F22102211220EC004F00FC005F039
:1005980010C006F011C007F012003604D8A4D7EF37
:1005A80002F0D9EF02F011EF03F009EC00F0838EAE
:1005B800020E0B6E040E0A6EBA0EE82EFED70A2E35
:1005C800FCD70B2EFAD700D0839E20EE4FF010EE0A
:1005D8000CF0040EDBCFE3FFE806FCE2000E176E1A
:1005E800000E166E0C0E1624D96E000E1720DA6E49
:1005F800DF506DEC07F0164A172A17BE0DEF03F00F
:10060800175009E1050E165CD8A00DEF03F00FEFA7
:1006180003F0F6EF02F043EF03F03650D8A417EFDB
:1006280003F019EF03F043EF03F0838E09EC00F0B9
:10063800839E20EE4AF010EE11F0040EDBCFE3FFAC
:10064800E806FCE2000E196E000E186E110E182452
:10065800D96E000E1920DA6EDF506DEC07F0184ADB
:10066800192A19BE41EF03F0195009E1050E185C6B
:10067800D8A041EF03F043EF03F02AEF03F0000E98
:100688005A6E010E596E12000D0E6DEC07F0000E39
:100698000001786F000E776F600E7725D96E000E17
:1006A8007821DA6EDF506DEC07F00001774B782B7C
:1006B80078BF68EF03F0785109E10A0E775DD8A09A
:1006C80068EF03F06AEF03F050EF03F0420E056E97
:1006D800000E066E410E076E000E086E3E0E096E85
:1006E800000E0A6E3C0E0B6E000E0C6E400E0D6E68
:1006F800000E0E6ED6EC00F005040610D8A487EFA5
:1007080003F089EF03F08CEF03F0020EAFEF03F074
:100718000D0E6DEC07F0000E00017A6F000E796F78
:10072800540E7925D96E000E7A21DA6EDF506DEC01
:1007380007F00001794B7A2B7ABFACEF03F07A51BE
:1007480009E1050E795DD8A0ACEF03F0AEEF03F038
:1007580094EF03F0010E1200000E376EFAEF03F06B
:1007680078EC06F0376EFAEF03F048EC03F0376EDA
:10077800FAEF03F032EC05F0376EFAEF03F047ECCE
:1007880004F0376EFAEF03F084EC04F0376EFAEFFA
:1007980003F053EC06F0FAEF03F0010E376EFAEFB0
:1007A80003F03750226E236A2350000AD8B4DFEFD3
:1007B80003F0D1EF03F02250000AD8B4B4EF03F0ED
:1007C800010AD8B4B9EF03F0030AD8B4BEEF03F0B6
:1007D800010AD8B4C3EF03F0070AD8B4C8EF03F08E
:1007E800010AD8B4CDEF03F0D1EF03F059045A1041
:1007F800D8B401EF04F003EF04F0D5EF03F01200D2
:100808000600F2A20AEF04F00CEF04F025EF04F062
:1008180047EC07F081B013EF04F015EF04F025EF73
:1008280004F0270E036EF50EE82EFED7032EFCD734
:1008380000F081B022EF04F024EF04F025EF04F07B
:10084800F292F0A02AEF04F02CEF04F045EF04F048
:1008580038EC07F081B233EF04F035EF04F045EFE0
:1008680004F0270E036EF50EE82EFED7032EFCD7F4
:1008780000F081B242EF04F044EF04F045EF04F0D9
:10088800F0905B921100430E4118D8A44EEF04F08B
:1008980050EF04F055EF04F0010E366E040E83EFAE
:1008A80004F0530E4118D8A45CEF04F05EEF04F096
:1008B80062EF04F0000E366E52EF04F00D0E6DEC90
:1008C80007F0000E066E000E056E540E0524D96E54
:1008D800000E0620DA6EDF506DEC07F0054A062A96
:1008E80006BE80EF04F0065009E1050E055CD8A0AD
:1008F80080EF04F082EF04F069EF04F0010E1200BB
:100908002D0E3E5C010E3F58D8B08DEF04F08FEFEE
:1009180004F09DEF04F02D0E3C5C010E3D58D8B05C
:1009280098EF04F09AEF04F09DEF04F0050EBEEF87
:1009380004F00D0E6DEC07F0000E066E000E056E4D
:10094800540E0524D96E000E0620DA6EDF506DECC9
:1009580007F0054A062A06BEBBEF04F0065009E177
:10096800050E055CD8A0BBEF04F0BDEF04F0A4EFC2
:1009780004F0010E1200000E0E6E000E0D6E0B50EC
:100988000C10D8B4CAEF04F0CCEF04F0F4EF04F084
:10099800010E0F6ED4EF04F0D8900B360C360F2AE8
:1009A8000CAED9EF04F0DBEF04F0D0EF04F0D890F0
:1009B8000D360E360B50095C0C500A58D8A0E7EFDC
:1009C80004F0E9EF04F0EEEF04F00B50095E0C5070
:1009D8000A5A0D80D8900C320B320F2EDBEF04F040
:1009E8000DC009F00EC00AF01200949C948E12C03B
:1009F80008F013C009F0000E09BEFF0E0A6E0B6E58
:100A0800000E046E120E056E7A0E066E000E076E4C
:100A18004BEC02F004C014F005C015F006C016F047
:100A280007C017F014C004F015C005F016C006F092
:100A380017C007F0400E086E000E096E000E0A6E11
:100A4800000E0B6E4BEC02F00404AF6EAC94AC9845
:100A5800AB8EAC9CAC8AAB9CAB8812003C0E4218A7
:100A6800D8A439EF05F03BEF05F047EF05F03E0E4F
:100A78004018D8A442EF05F044EF05F047EF05F021
:100A8800030E68EF05F00D0E6DEC07F0000E066E14
:100A9800000E056E540E0524D96E000E0620DA6E7F
:100AA800DF506DEC07F0054A062A06BE65EF05F033
:100AB800065009E1050E055CD8A065EF05F067EF63
:100AC80005F04EEF05F0010E120006500710D8B4DD
:100AD80070EF05F072EF05F096EF05F0010E086E65
:100AE8007AEF05F0D89006360736082A07AE7FEF6A
:100AF80005F081EF05F076EF05F00650045C07502D
:100B08000558D8A08AEF05F08CEF05F090EF05F0B6
:100B18000650045E0750055AD89007320632082E50
:100B280081EF05F004C004F005C005F01200720E54
:100B3800D36EB468B59E0F0EC16E000E836E000EA4
:100B48008C6EF00E956E000E826E000E8B6E000E8F
:100B5800946E000E816E000E8A6E9368250E136ED9
:100B6800800E126EF9EC04F0000E946EF90ECB6E46
:100B78000C0EBD6E7D0EBE6E0C0EBA6E7D0EBB6E7B
:100B8800030ECA6E000ECC6ECA841200000E2F6EC1
:100B9800000E2E6E000E2D6E000E2C6E8394839622
:100BA800EAEF05F082A4DBEF05F0DDEF05F0DFEFFB
:100BB80005F0B6EC06F02C042D10D8A4E6EF05F0ED
:100BC800E8EF05F0EAEF05F0E8EC06F004502E5CDB
:100BD80005502F58D8A0F3EF05F0F5EF05F0D6EF44
:100BE80005F0838483861200000E2F6E000E2E6E91
:100BF800000E2D6E000E2C6E8394839618EF06F06F
:100C080082A409EF06F00BEF06F00DEF06F0CFEC2B
:100C180006F02C042D10D8A414EF06F016EF06F0F9
:100C280018EF06F0FDEC06F001502E5C02502F582C
:100C3800D8A021EF06F023EF06F004EF06F0838436
:100C480083861200AC0EF66E0E0EF76E000EF86E6E
:100C580000EE60F010EE17F00900F5CFEEFFE5505A
:100C6800E150FAE1C30EF66E0E0EF76E000EF86E46
:100C780000EE43F010EE16F00900F5CFEEFFE55058
:100C8800E150FAE100EE24F01F0EEE6AE806FDE1FD
:100C98005B905B92000EF86E000112EF07F00D0EEC
:100CA8006DEC07F0000E066E000E056E430E05246F
:100CB800D96E000E0620DA6EDF506DEC07F0054A9B
:100CC800062A06BE71EF06F0065009E1070E055C1C
:100CD800D8A071EF06F073EF06F05AEF06F0000E99
:100CE8005A6E000E596E12000D0E6DEC07F0000ED4
:100CF800066E000E056E6D0E0524D96E000E0620D8
:100D0800DA6EDF506DEC07F0054A062A06BE96EF4C
:100D180006F0065009E10A0E055CD8A096EF06F029
:100D280098EF06F07FEF06F0010E1200ABA29FEFDE
:100D380006F0A1EF06F0A9EF06F0AC9AAB98C80E42
:100D480000D0E82EFDD7AC8AAB889EAAAEEF06F09D
:100D5800B0EF06F0A9EF06F0AECF04F0000EAE6ECD
:100D6800045012002C042D10D8A4BDEF06F0BFEFDC
:100D780006F0C1EF06F0CEEF06F082A4C6EF06F04B
:100D8800C8EF06F0CEEF06F02E4A2F2A000E2D6E81
:100D9800010E2C6E12002C042D10D8A4D6EF06F0EC
:100DA800D8EF06F0DAEF06F0E7EF06F082A4DFEFFF
:100DB80006F0E1EF06F0E7EF06F02E4A2F2A000EC4
:100DC8002D6E010E2C6E120082A4EDEF06F0EFEFEF
:100DD80006F0F1EF06F0FCEF06F082B4F6EF06F04D
:100DE800F8EF06F0FCEF06F0000E2D6E000E2C6EEC
:100DF800120082A402EF07F004EF07F006EF07F0F5
:100E080011EF07F082B40BEF07F00DEF07F011EFC9
:100E180007F0000E2D6E000E2C6E12009BEC05F0F4
:100E2800AB88000E5A6E010E596EB0EC03F092ECCE
:100E380001F0D1EC02F092EC01F014EF07F007EFAB
:100E480000F004500602F3CF08F0F4CF09F0045084
:100E58000702F350092605500602F350092608C078
:100E680004F009C005F0120083908382000E026E20
:100E7800190E016EF8EC05F083848386000E336E3C
:100E8800000E326E120083808382000E026E190EED
:100E9800016EF8EC05F083848386000E356E000E33
:100EA800346E1200456E7465725F636F6D6D616EAE
:100EB8006457616974696E672E2E2E477261636983
:100EC8006173736C696465636C69636B4572726F97
:010ED80072A7
:100EDA00046E9EA873EF07F075EF07F06EEF07F048
:060EEA0004C0ADFF120080
:020000040020DA
:08000000FFFFFFFFFFFFFFFF00
:020000040030CA
:0E00000000091F1EFF0381FF0FC00FE00F401D
:00000001FF
