:020000040000FA
:0400000007EF00F016
:0A000800438212ED08F048EF0BF000
:1008000000546F75636820496E7374727563637406
:10081000696F6E206973206E6F74207265636F67F5
:100820006E697A6564004672616D657320617265F8
:10083000206E6F7420696E73657274656420636FD7
:1008400072726563746C7900436F6D6D616E647371
:100850002077657265206E6F74207265636F676EB6
:10086000697A656400537572706173736573206390
:100870006F6F7264696E617465732073697A650065
:1008800056657269667920436F6D706C6574656436
:1008900000456E74657220636F6D6D616E64005308
:1008A0006920656E74726F2061207800536920653D
:1008B0006E74726F206120790053616C696F2064DF
:1008C0006520780053616C696F206465207900575A
:1008D000616974696E672E2E2E00536C6964650021
:0708E000436C69636B00002B
:1008E800000E1E6EAB88000E206E000E1F6E55ECBB
:1008F8000BF01C6E130E1F24D96E000E2020DA6E2A
:100908001CC0DFFF080E1F182010D8A48EEF04F0BB
:1009180090EF04F092EF04F0AB98839A1F4A202AD4
:1009280020BEA0EF04F0205009E1090E1F5CD8A0FA
:10093800A0EF04F0A2EF04F07BEF04F0ABA2A7EF66
:1009480004F0A9EF04F0B5EF04F0AC9AAB98270EC9
:100958000F6EF50EE82EFED70F2EFCD700F0AC8AEE
:10096800AB8805C0D9FF06C0DAFF13C0DFFF07C098
:10097800D9FF08C0DAFF14C0DFFF0DC0D9FF0EC0D1
:10098800DAFF1BC0DFFF020E216E130E2124D96E81
:10099800DA6A000EDA223A0EDF60D5EF04F0D7EFFC
:1009A80004F0E6EF04F0130E2124D96EDA6A000E83
:1009B800DA222F0EDF64E3EF04F0E5EF04F0E6EF50
:1009C80004F01E2A212A070E2164EDEF04F0EFEF50
:1009D80004F0C9EF04F0060E1E18D8A4F6EF04F0D0
:1009E800F8EF04F0FAEF04F000EF05F0000E066EE1
:1009F800000E056E44EF05F0300E0F6EEB0E106E14
:100A08001550640DF3CF11F0F4CF12F016500A0D03
:100A1800F3501126F450122217501126000E1222FC
:100A28000F5011261050122209C0D9FF0AC0DAFF50
:100A380011C0DEFF12C0DDFF300E0F6EEB0E106E20
:100A48001850640DF3CF11F0F4CF12F019500A0DBD
:100A5800F3501126F45012221A501126000E1222B9
:100A68000F501126105012220BC0D9FF0CC0DAFF0C
:100A780011C0DEFF12C0DDFF000E066E010E056E0E
:100A88001200000E276E010E266E000E256E010E56
:100A9800246E41504210D8A454EF05F056EF05F0EB
:100AA8005CEF05F03AC036F03BC037F062EF05F076
:100AB80041503A5C366E42503B58376E37BE69EF4C
:100AC80005F067EF05F075EF05F083808382366CDB
:100AD800371ED8B0372A000E276E000E266E7BEF21
:100AE80005F083908392000E276E010E266E36C0A5
:100AF80004F037C005F0000E076E050E066EF5EC23
:100B08000AF004C02AF005C02BF02AC004F02BC05C
:100B180005F0CDEC09F026502710D8A496EF05F083
:100B280098EF05F0A0EF05F03650415C416E375064
:100B38004258426EAFEF05F026042710D8A4A7EF5D
:100B480005F0A9EF05F0AFEF05F041503624416EEE
:100B580042503720426E3F504010D8A4B6EF05F0FF
:100B6800B8EF05F0BEEF05F038C034F039C035F005
:100B7800C4EF05F03F50385C346E40503958356E3C
:100B880035BECBEF05F0C9EF05F0D7EF05F0839040
:100B98008382346C351ED8B0352A000E256E000EBF
:100BA800246EDDEF05F083808392000E256E010E22
:100BB800246E34C004F035C005F0000E076E050E33
:100BC800066EF5EC0AF004C028F005C029F028C02C
:100BD80004F029C005F0CDEC09F024502510D8A464
:100BE800F8EF05F0FAEF05F002EF06F034503F5C3D
:100BF8003F6E35504058406E11EF06F02404251022
:100C0800D8A409EF06F00BEF06F011EF06F03F50FD
:100C180034243F6E40503520406E120041C009F028
:100C280042C00AF0000E0C6E640E0B6E5BEC08F00E
:100C38000950300F106E000E076E640E066E41C02C
:100C480004F042C005F03CEC09F004C009F005C00E
:100C58000AF0000E0C6E0A0E0B6E5BEC08F00950E1
:100C6800300F116E000E076E640E066E41C004F060
:100C780042C005F03CEC09F004C016F005C017F0BE
:100C880016C004F017C005F0000E076E0A0E066EB7
:100C98003CEC09F00450300F126E3FC009F040C020
:100CA8000AF0000E0C6E640E0B6E5BEC08F0095037
:100CB800300F136E000E076E640E066E3FC004F010
:100CC80040C005F03CEC09F004C009F005C00AF08A
:100CD800000E0C6E0A0E0B6E5BEC08F00950300F1C
:100CE800146E000E076E640E066E3FC004F040C01E
:100CF80005F03CEC09F004C016F005C017F016C06A
:100D080004F017C005F0000E076E0A0E066E3CECE4
:100D180009F00450300F156E000E196E000E186E93
:100D2800100E1824D96E000E1920DA6EDF506DEC03
:100D38000BF0184A192A19BEABEF06F0195009E151
:100D4800030E185CD8A0ABEF06F0ADEF06F094EFF9
:100D580006F02C0E6DEC0BF0000E1B6E000E1A6EDA
:100D6800130E1A24D96E000E1B20DA6EDF506DECBC
:100D78000BF01A4A1B2A1BBECBEF06F01B5009E1E9
:100D8800030E1A5CD8A0CBEF06F0CDEF06F0B4EF57
:100D980006F01200000E0D6E0BBED7EF06F0D5EF71
:100DA80006F0E1EF06F00B1E0A1E091E086C000E85
:100DB80009220A220B22010E0D6E07BEE8EF06F08B
:100DC800E6EF06F0F2EF06F0071E061E051E046C9D
:100DD800000E052206220722010E0D1A000E0E6EC5
:100DE800000E0F6E000E106E000E116E08500910E6
:100DF8000A100B10D8B403EF07F005EF07F03BEF2C
:100E080007F0010E0C6E0FEF07F0D8900836093680
:100E18000A360B360C2A0BAE14EF07F016EF07F064
:100E280009EF07F0D8900E360F36103611360850F5
:100E3800045C095005580A5006580B500758D8A0AA
:100E480028EF07F02AEF07F033EF07F00850045EA9
:100E58000950055A0A50065A0B50075A0E80D89066
:100E68000B320A32093208320C2E16EF07F00D50F9
:100E7800D8B441EF07F043EF07F04BEF07F0111E2E
:100E8800101E0F1E0E6C000E0F22102211220EC013
:100E980004F00FC005F010C006F011C007F01200F2
:100EA8009EEC09F08388000E426E010E416E000E22
:100EB800406E010E3F6E83848386838083826DEF4C
:100EC80007F0839483969F0E056E080E066E6EECEF
:100ED80009F081A272EF07F074EF07F065EF07F0F1
:100EE8008384838681A27BEF07F07DEF07F087EF8D
:100EF80007F0000E426E000E416EB90E056E080E28
:100F0800066E6EEC09F08390838293EF07F083946A
:100F18008396AC0E056E080E066E6EEC09F081A085
:100F280098EF07F09AEF07F08BEF07F0838483863A
:100F380081A0A1EF07F0A3EF07F0ADEF07F0000ED7
:100F4800406E000E3F6EC40E056E080E066E6EEC07
:100F580009F0838A000E316E010E306EBEEC07F088
:100F680012EC06F006EC09F012EC06F0ADEF07F013
:100F780007EF00F0000E336E08EF08F062EC0BF09C
:100F8800336E08EF08F0CEEC08F0336E08EF08F087
:100F980077EC0AF0336E08EF08F029EC0AF0336EAC
:100FA80008EF08F051EC0AF0336E08EF08F008EC8F
:100FB8000BF008EF08F0010E336E08EF08F033501D
:100FC800226E236A2350000AD8B4EDEF07F0DFEF52
:100FD80007F02250000AD8B4C2EF07F0010AD8B4CB
:100FE800C7EF07F0030AD8B4CCEF07F0010AD8B46A
:100FF800D1EF07F0070AD8B4D6EF07F0010AD8B442
:10100800DBEF07F0DFEF07F030043110D8B40FEF53
:1010180008F011EF08F0E3EF07F012000600F2A263
:1010280018EF08F01AEF08F036EF08F0450E78ECE4
:101038000BF039EC0BF081B024EF08F026EF08F044
:1010480036EF08F0270E036EF50EE82EFED7032EB6
:10105800FCD700F081B033EF08F035EF08F036EF39
:1010680008F0F292F0A03BEF08F03DEF08F059EFDE
:1010780008F0650E78EC0BF02AEC0BF081B247EF24
:1010880008F049EF08F059EF08F0270E036EF50E47
:10109800E82EFED7032EFCD700F081B256EF08F0F9
:1010A80058EF08F059EF08F0F09043921100000E45
:1010B8000E6E000E0D6E0B500C10D8B466EF08F0D3
:1010C80068EF08F090EF08F0010E0F6E70EF08F06F
:1010D800D8900B360C360F2A0CAE75EF08F077EF68
:1010E80008F06CEF08F0D8900D360E360B50095CFE
:1010F8000C500A58D8A083EF08F085EF08F08AEF63
:1011080008F00B50095E0C500A5A0D80D8900C322A
:101118000B320F2E77EF08F00DC009F00EC00AF061
:101128001200949C948E12C008F013C009F0000EAF
:1011380009BEFF0E0A6E0B6E000E046E120E056ECF
:101148007A0E066E000E076ECEEC06F004C014F0A0
:1011580005C015F006C016F007C017F014C004F05B
:1011680015C005F016C006F017C007F0400E086E4F
:10117800000E096E000E0A6E000E0B6ECEEC06F025
:101188000404AF6EAC94AC98AB8EAC9CAC8AAB9CB0
:10119800AB8812000D0E6DEC0BF0910E056E080E6B
:1011A800066E6EEC09F03E0E056E000E066E3D0EE4
:1011B800076E000E086E3A0E096E000E0A6E380EA3
:1011C8000B6E000E0C6E3C0E0D6E000E0E6E74EC67
:1011D80004F005040610D8A4F4EF08F0F6EF08F0C0
:1011E800F9EF08F0020E05EF09F0480E056E080E3B
:1011F800066E6EEC09F00A0E6DEC0BF019EC0BF0B4
:10120800010E12003204D8A40CEF09F00EEF09F019
:1012180025EF09F045EC05F0838E0D0E0B6E2D0EB3
:101228000A6ED80EE82EFED70A2EFCD70B2EFAD758
:10123800839EE00E056E080E066E6EEC09F037EF21
:1012480009F03250D8A42BEF09F02DEF09F037EF51
:1012580009F0838E45EC05F0839EDA0E056E080EC4
:10126800066E6EEC09F0000E316E010E306E120043
:1012780006500710D8B443EF09F045EF09F069EFBD
:1012880009F0010E086E4DEF09F0D89006360736C2
:10129800082A07AE52EF09F054EF09F049EF09F0B8
:1012A8000650045C07500558D8A05DEF09F05FEFC1
:1012B80009F063EF09F00650045E0750055AD8900C
:1012C80007320632082E54EF09F004C004F005C0B6
:1012D80005F01200000E096E09500524076E000E75
:1012E8000620086E07C0F6FF08C0F7FF0800F55093
:1012F8000009D8A482EF09F084EF09F086EF09F01D
:101308009DEF09F009500524076E000E0620086EAF
:1013180007C0F6FF08C0F7FF0800F5506DEC0BF0AA
:10132800092A0928D8A49BEF09F09DEF09F070EF6E
:1013380009F01200720ED36EB468B59E0F0EC16E1E
:10134800000E836E000E8C6E000E956E000E826E7F
:10135800000E8B6E000E946E000E816E000E8A6E6B
:101368009368250E136E800E126E95EC08F0000E31
:10137800946EF90ECB6E0C0EBD6E7D0EBE6E0C0E0D
:10138800BA6E7D0EBB6E030ECA6E000ECC6ECA849A
:101398001200000E2F6E000E2E6E000E2D6E000E27
:1013A8002C6E83948396EDEF09F082A4DEEF09F0AA
:1013B800E0EF09F0E2EF09F099EC0AF02C042D10A7
:1013C800D8A4E9EF09F0EBEF09F0EDEF09F0CBEC69
:1013D8000AF004502E5C05502F58D8A0F6EF09F0FB
:1013E800F8EF09F0D9EF09F0838483861200000E24
:1013F8002F6E000E2E6E000E2D6E000E2C6E839436
:1014080083961BEF0AF082A40CEF0AF00EEF0AF0A5
:1014180010EF0AF0B2EC0AF02C042D10D8A417EF44
:101428000AF019EF0AF01BEF0AF0E0EC0AF001509D
:101438002E5C02502F58D8A024EF0AF026EF0AF0AD
:1014480007EF0AF0838483861200430E3D18D8A460
:1014580030EF0AF032EF0AF037EF0AF0010E326E81
:10146800040E50EF0AF0530E3D18D8A43EEF0AF0D0
:1014780040EF0AF044EF0AF0000E326E34EF0AF043
:10148800010E056E080E066E6EEC09F00A0E6DEC84
:101498000BF019EC0BF0010E12002D0E3A5C010E48
:1014A8003B58D8B05AEF0AF05CEF0AF06AEF0AF03E
:1014B8002D0E385C010E3958D8B065EF0AF067EF89
:1014C8000AF06AEF0AF0050E76EF0AF0650E056E6F
:1014D800080E066E6EEC09F00A0E6DEC0BF019ECB6
:1014E8000BF0010E12003C0E3E18D8A47EEF0AF055
:1014F80080EF0AF08CEF0AF03E0E3C18D8A487EF74
:101508000AF089EF0AF08CEF0AF0030E98EF0AF060
:10151800260E056E080E066E6EEC09F00A0E6DECCE
:101528000BF019EC0BF0010E12002C042D10D8A4AE
:10153800A0EF0AF0A2EF0AF0A4EF0AF0B1EF0AF068
:1015480082A4A9EF0AF0ABEF0AF0B1EF0AF02E4A35
:101558002F2A000E2D6E010E2C6E12002C042D1059
:10156800D8A4B9EF0AF0BBEF0AF0BDEF0AF0CAEF52
:101578000AF082A4C2EF0AF0C4EF0AF0CAEF0AF038
:101588002E4A2F2A000E2D6E010E2C6E120082A4F8
:10159800D0EF0AF0D2EF0AF0D4EF0AF0DFEF0AF04A
:1015A80082B4D9EF0AF0DBEF0AF0DFEF0AF0000EA1
:1015B8002D6E000E2C6E120082A4E5EF0AF0E7EF04
:1015C8000AF0E9EF0AF0F4EF0AF082B4EEEF0AF05D
:1015D800F0EF0AF0F4EF0AF0000E2D6E000E2C6EFC
:1015E800120004500602F3CF08F0F4CF09F00450BB
:1015F8000702F350092605500602F350092608C0D1
:1016080004F009C005F012000D0E6DEC0BF0800E11
:10161800056E080E066E6EEC09F00A0E6DEC0BF006
:10162800000E316E000E306E1200838C839A070E06
:10163800056E170E046E6A0EE82EFED7042EFCD730
:10164800052EFAD700D0839C838A12008380839268
:10165800000E026E190E016EFBEC09F0838483867E
:10166800000E406E000E3F6E120083908392000EB3
:10167800026E190E016EFBEC09F083848386000E5E
:10168800426E000E416E120000EE24F01B0EEE6A50
:10169800E806FDE143904392000EF86E000154EF16
:1016A80007F09EAA5AEF0BF05CEF0BF055EF0BF02A
:1016B800AECF04F0000EAE6E045012000D0E6DECAD
:1016C8000BF0CF0E056E080E066E6EEC09F0010EDB
:1016D8001200046E9EA873EF0BF075EF0BF06EEF1F
:1016E8000BF004C0ADFF1200016E9EA87EEF0BF058
:0E16F80080EF0BF079EF0BF001C0ADFF120098
:020000040020DA
:08000000FFFFFFFFFFFFFFFF00
:020000040030CA
:0E00000000091F1EFF8381FF0FC00FE00F409D
:00000001FF
