:020000040000FA
:0400000007EF00F016
:0A0008004F8200ED08F069EF0AF0E6
:1008000000546F75636820496E7374727563637406
:10081000696F6E206973206E6F74207265636F67F5
:100820006E697A6564004672616D657320617265F8
:10083000206E6F7420696E73657274656420636FD7
:1008400072726563746C7900436F6D6D616E647371
:100850002077657265206E6F74207265636F676EB6
:10086000697A656400537572706173736573206390
:100870006F6F7264696E617465732073697A650065
:1008800056657269667920436F6D706C6574656436
:1008900000456E74657220636F6D6D616E64005704
:0B08A000616974696E672E2E2E000047
:1008AC00000E1E6EAB88000E206E000E1F6E86ECC6
:1008BC000AF01C6E130E1F24D96E000E2020DA6E67
:1008CC001CC0DFFF080E1F182010D8A470EF04F016
:1008DC0072EF04F073EF04F0AB981F4A202A20BE8D
:1008EC0081EF04F0205009E1090E1F5CD8A081EFC4
:1008FC0004F083EF04F05DEF04F0ABA288EF04F09A
:10090C008AEF04F096EF04F0AC9AAB98270E0F6EBA
:10091C00F50EE82EFED70F2EFCD700F0AC8AAB8874
:10092C0005C0D9FF06C0DAFF13C0DFFF07C0D9FF2F
:10093C0008C0DAFF14C0DFFF0DC0D9FF0EC0DAFF0C
:10094C001BC0DFFF020E216E130E2124D96EDA6A52
:10095C00000EDA223A0EDF60B6EF04F0B8EF04F0C6
:10096C00C7EF04F0130E2124D96EDA6A000EDA22D6
:10097C002F0EDF64C4EF04F0C6EF04F0C7EF04F0F1
:10098C001E2A212A070E2164CEEF04F0D0EF04F0CA
:10099C00AAEF04F0060E1E18D8A4D7EF04F0D9EF76
:1009AC0004F0DBEF04F0E1EF04F0000E066E000E35
:1009BC00056E25EF05F0300E0F6EEB0E106E155018
:1009CC00640DF3CF11F0F4CF12F016500A0DF35062
:1009DC001126F450122217501126000E12220F501D
:1009EC0011261050122209C0D9FF0AC0DAFF11C01B
:1009FC00DEFF12C0DDFF300E0F6EEB0E106E1850C6
:100A0C00640DF3CF11F0F4CF12F019500A0DF3501E
:100A1C001126F45012221A501126000E12220F50D9
:100A2C001126105012220BC0D9FF0CC0DAFF11C0D6
:100A3C00DEFF12C0DDFF000E066E010E056E120009
:100A4C00000E276E010E266E000E256E010E246E12
:100A5C004D504E10D8A435EF05F037EF05F03DEFB3
:100A6C0005F03CC038F03DC039F043EF05F04D5077
:100A7C003C5C386E4E503D58396E39BE4AEF05F02D
:100A8C0048EF05F056EF05F083908392386C391ED1
:100A9C00D8B0392A000E276E000E266E5CEF05F0DA
:100AAC0083808382000E276E010E266E38C004F000
:100ABC0039C005F0000E076E050E066E14EC0BF037
:100ACC0004C02AF005C02BF02AC004F02BC005F09E
:100ADC007DEC09F026502710D8A477EF05F079EFBC
:100AEC0005F081EF05F038504D5C4D6E39504E5885
:100AFC004E6E90EF05F026042710D8A488EF05F071
:100B0C008AEF05F090EF05F04D5038244D6E4E50A5
:100B1C0039204E6E4B504C10D8A497EF05F099EF3E
:100B2C0005F09FEF05F03AC036F03BC037F0A5EF6B
:100B3C0005F04B503A5C366E4C503B58376E37BE16
:100B4C00ACEF05F0AAEF05F0B8EF05F083808392C7
:100B5C00366C371ED8B0372A000E256E000E246E68
:100B6C00BEEF05F083908382000E256E010E246E7D
:100B7C0036C004F037C005F0000E076E050E066E89
:100B8C0014EC0BF004C028F005C029F028C004F0C8
:100B9C0029C005F07DEC09F024502510D8A4D9EF1C
:100BAC0005F0DBEF05F0E3EF05F036504B5C4B6ED8
:100BBC0037504C584C6EF2EF05F024042510D8A495
:100BCC00EAEF05F0ECEF05F0F2EF05F04B503624B0
:100BDC004B6E4C5037204C6E12004DC009F04EC07D
:100BEC000AF0000E0C6E640E0B6E43EC08F009500C
:100BFC00300F106E000E076E640E066E4DC004F0C2
:100C0C004EC005F0ECEC08F004C009F005C00AF089
:100C1C00000E0C6E0A0E0B6E43EC08F00950300FF0
:100C2C00116E000E076E640E066E4DC004F04EC0C1
:100C3C0005F0ECEC08F004C016F005C017F016C077
:100C4C0004F017C005F0000E076E0A0E066EECECF1
:100C5C0008F00450300F126E4BC009F04CC00AF073
:100C6C00000E0C6E640E0B6E43EC08F00950300F46
:100C7C00136E000E076E640E066E4BC004F04CC073
:100C8C0005F0ECEC08F004C009F005C00AF0000E09
:100C9C000C6E0A0E0B6E43EC08F00950300F146EFC
:100CAC00000E076E640E066E4BC004F04CC005F0CF
:100CBC00ECEC08F004C016F005C017F016C004F0F8
:100CCC0017C005F0000E076E0A0E066EECEC08F06D
:100CDC000450300F156E000E196E000E186E100EAB
:100CEC001824D96E000E1920DA6EDF50A2EC0BF02E
:100CFC00184A192A19BE8CEF06F0195009E1030E97
:100D0C00185CD8A08CEF06F08EEF06F075EF06F0AD
:100D1C002C0EA2EC0BF0000E1B6E000E1A6E130EB6
:100D2C001A24D96E000E1B20DA6EDF50A2EC0BF0E9
:100D3C001A4A1B2A1BBEACEF06F01B5009E1030E2E
:100D4C001A5CD8A0ACEF06F0AEEF06F095EF06F00B
:100D5C001200000E0D6E0BBEB8EF06F0B6EF06F0EB
:100D6C00C2EF06F00B1E0A1E091E086C000E0922AB
:100D7C000A220B22010E0D6E07BEC9EF06F0C7EF5B
:100D8C0006F0D3EF06F0071E061E051E046C000EBF
:100D9C00052206220722010E0D1A000E0E6E000E01
:100DAC000F6E000E106E000E116E085009100A1016
:100DBC000B10D8B4E4EF06F0E6EF06F01CEF07F0EA
:100DCC00010E0C6EF0EF06F0D890083609360A3694
:100DDC000B360C2A0BAEF5EF06F0F7EF06F0EAEF48
:100DEC0006F0D8900E360F36103611360850045CCB
:100DFC00095005580A5006580B500758D8A009EF4F
:100E0C0007F00BEF07F014EF07F00850045E0950E1
:100E1C00055A0A50065A0B50075A0E80D8900B32BE
:100E2C000A32093208320C2EF7EF06F00D50D8B406
:100E3C0022EF07F024EF07F02CEF07F0111E101E25
:100E4C000F1E0E6C000E0F22102211220EC004F089
:100E5C000FC005F010C006F011C007F012003404EA
:100E6C00D8A43BEF07F03DEF07F075EF07F026EC49
:100E7C0005F0838E020E0B6E040E0A6EBA0EE82E6F
:100E8C00FED70A2EFCD70B2EFAD700D0839E20EE6D
:100E9C0046F010EE0CF0040EDBCFE3FFE806FCE2AC
:100EAC00000E176E000E166E0C0E1624D96E000E68
:100EBC001720DA6EDF50A2EC0BF0164A172A17BE79
:100ECC0071EF07F0175009E1050E165CD8A071EF11
:100EDC0007F073EF07F05AEF07F0A7EF07F0345065
:100EEC00D8A47BEF07F07DEF07F0A7EF07F0838E18
:100EFC0026EC05F0839E20EE41F010EE11F0040E6E
:100F0C00DBCFE3FFE806FCE2000E196E000E186E54
:100F1C00110E1824D96E000E1920DA6EDF50A2ECD7
:100F2C000BF0184A192A19BEA5EF07F0195009E160
:100F3C00050E185CD8A0A5EF07F0A7EF07F08EEF11
:100F4C0007F0000E336E010E326E1200000E356E7D
:100F5C00F6EF07F097EC0BF0356EF6EF07F0B6EC0A
:100F6C0008F0356EF6EF07F049EC0AF0356EF6EF47
:100F7C0007F0D9EC09F0356EF6EF07F025EC0AF026
:100F8C00356EF6EF07F03AEC0BF0F6EF07F0010ECA
:100F9C00356EF6EF07F03550226E236A2350000AA7
:100FAC00D8B4DBEF07F0CDEF07F02250000AD8B42D
:100FBC00B0EF07F0010AD8B4B5EF07F0030AD8B4C4
:100FCC00BAEF07F0010AD8B4BFEF07F0070AD8B49C
:100FDC00C4EF07F0010AD8B4C9EF07F0CDEF07F062
:100FEC0032043310D8B4FDEF07F0FFEF07F0D1EF68
:100FFC0007F012000600F2A206EF08F008EF08F066
:10100C0021EF08F088EC0BF081B00FEF08F011EF36
:10101C0008F021EF08F0270E036EF50EE82EFED730
:10102C00032EFCD700F081B01EEF08F020EF08F083
:10103C0021EF08F0F292F0A026EF08F028EF08F06C
:10104C0041EF08F079EC0BF081B22FEF08F031EFA3
:10105C0008F041EF08F0270E036EF50EE82EFED7D0
:10106C00032EFCD700F081B23EEF08F040EF08F001
:10107C0041EF08F0F0904F921100000E0E6E000E32
:10108C000D6E0B500C10D8B44EEF08F050EF08F06A
:10109C0078EF08F0010E0F6E58EF08F0D8900B3671
:1010AC000C360F2A0CAE5DEF08F05FEF08F054EF32
:1010BC0008F0D8900D360E360B50095C0C500A58BF
:1010CC00D8A06BEF08F06DEF08F072EF08F00B5042
:1010DC00095E0C500A5A0D80D8900C320B320F2E30
:1010EC005FEF08F00DC009F00EC00AF01200949CDE
:1010FC00948E12C008F013C009F0000E09BEFF0E4A
:10110C000A6E0B6E000E046E120E056E7A0E066ED3
:10111C00000E076EAFEC06F004C014F005C015F01D
:10112C0006C016F007C017F014C004F015C005F087
:10113C0016C006F017C007F0400E086E000E096EC0
:10114C00000E0A6E000E0B6EAFEC06F00404AF6ED0
:10115C00AC94AC98AB8EAC9CAC8AAB9CAB881200BC
:10116C000D0EA2EC0BF0910E056E080E066E1EEC29
:10117C0009F0400E056E000E066E3F0E076E000E57
:10118C00086E3C0E096E000E0A6E3A0E0B6E000EC7
:10119C000C6E3E0E0D6E000E0E6E56EC04F0050439
:1011AC000610D8A4DCEF08F0DEEF08F0E1EF08F051
:1011BC00020EEBEF08F0480E056E080E066E1EECE4
:1011CC0009F00A0EA2EC0BF0010E120006500710EB
:1011DC00D8B4F3EF08F0F5EF08F019EF09F0010EB1
:1011EC00086EFDEF08F0D89006360736082A07AED1
:1011FC0002EF09F004EF09F0F9EF08F00650045C77
:10120C0007500558D8A00DEF09F00FEF09F013EFB8
:10121C0009F00650045E0750055AD8900732063282
:10122C00082E04EF09F004C004F005C005F012000C
:10123C00000E096E09500524076E000E0620086E7C
:10124C0007C0F6FF08C0F7FF0800F5500009D8A446
:10125C0032EF09F034EF09F036EF09F04DEF09F0F9
:10126C0009500524076E000E0620086E07C0F6FF15
:10127C0008C0F7FF0800F550A2EC0BF0092A09286A
:10128C00D8A44BEF09F04DEF09F020EF09F0120054
:10129C00720ED36EB468B59E0F0EC16E000E836EC7
:1012AC00000E8C6EF00E956E000E826E000E8B6E24
:1012BC00000E946E000E816E000E8A6E9368250EE1
:1012CC00136E800E126E7DEC08F0000E946EF90E0B
:1012DC00CB6E0C0EBD6E7D0EBE6E0C0EBA6E7D0E00
:1012EC00BB6E030ECA6E000ECC6ECA841200000ECA
:1012FC002F6E000E2E6E000E2D6E000E2C6E839433
:10130C0083969DEF09F082A48EEF09F090EF09F01F
:10131C0092EF09F0A2EC0AF02C042D10D8A499EF4E
:10132C0009F09BEF09F09DEF09F0EAEC0AF004508C
:10133C002E5C05502F58D8A0A6EF09F0A8EF09F0A5
:10134C0089EF09F0838483861200000E2F6E000E45
:10135C002E6E000E2D6E000E2C6E83948396CBEFAA
:10136C0009F082A4BCEF09F0BEEF09F0C0EF09F060
:10137C00BBEC0AF02C042D10D8A4C7EF09F0C9EF70
:10138C0009F0CBEF09F0FFEC0AF001502E5C025093
:10139C002F58D8A0D4EF09F0D6EF09F0B7EF09F029
:1013AC00838483861200430E3F18D8A4E0EF09F023
:1013BC00E2EF09F0E7EF09F0010E346E040EFEEFD8
:1013CC0009F0530E3F18D8A4EEEF09F0F0EF09F036
:1013DC00F4EF09F0000E346EE4EF09F0010E056E27
:1013EC00080E066E1EEC09F00A0EA2EC0BF0010EB4
:1013FC001200839083921BEF0AF04D504E10D8A42C
:10140C000AEF0AF00CEF0AF010EF0AF083848386DF
:10141C001BEF0AF04D504E10D8B417EF0AF019EF2D
:10142C000AF01BEF0AF0839483964D504E10D8A40B
:10143C0022EF0AF024EF0AF003EF0AF012002D0E4F
:10144C003C5C010E3D58D8B02EEF0AF030EF0AF09C
:10145C003EEF0AF02D0E3A5C010E3B58D8B039EF36
:10146C000AF03BEF0AF03EEF0AF0050E48EF0AF0E7
:10147C00650E056E080E066E1EEC09F00A0EA2EC47
:10148C000BF0010E12003C0E4018D8A450EF0AF0DD
:10149C0052EF0AF05EEF0AF03E0E3E18D8A459EF58
:1014AC000AF05BEF0AF05EEF0AF0030E68EF0AF049
:1014BC00260E056E080E066E1EEC09F00A0EA2EC46
:1014CC000BF0010E12006E0EF66E170EF76E000E7C
:1014DC00F86E00EE41F010EE0AF00900F5CFEEFFC9
:1014EC00E550E150FAE100EE24F01D0EEE6AE8063C
:1014FC00FDE14F904F92000EF86E0001D4EF0AF010
:10150C00ABA28BEF0AF08DEF0AF095EF0AF0AC9AD4
:10151C00AB98C80E00D0E82EFDD7AC8AAB889EAA3B
:10152C009AEF0AF09CEF0AF095EF0AF0AECF04F0B8
:10153C00000EAE6E045012002C042D10D8A4A9EF8E
:10154C000AF0ABEF0AF0ADEF0AF0BAEF0AF082A4A2
:10155C00B2EF0AF0B4EF0AF0BAEF0AF02E4A2F2AD3
:10156C00000E2D6E010E2C6E12002C042D10D8A422
:10157C00C2EF0AF0C4EF0AF0C6EF0AF0D3EF0AF09C
:10158C0082A4CBEF0AF0CDEF0AF0D3EF0AF02E4A8B
:10159C002F2A000E2D6E010E2C6E12004EEC09F04F
:1015AC00ADEC0BF027EC0BF0000E336E010E326E2F
:1015BC00ACEC07F0F3EC05F035EC07F0F3EC05F0D0
:1015CC00DAEF0AF007EF00F082A4EFEF0AF0F1EF88
:1015DC000AF0F3EF0AF0FEEF0AF082B4F8EF0AF02B
:1015EC00FAEF0AF0FEEF0AF0000E2D6E000E2C6ED4
:1015FC00120082A404EF0BF006EF0BF008EF0BF0D7
:10160C0013EF0BF082B40DEF0BF00FEF0BF013EFA9
:10161C000BF0000E2D6E000E2C6E12000450060204
:10162C00F3CF08F0F4CF09F004500702F350092669
:10163C0005500602F350092608C004F009C005F055
:10164C001200000E4E6E010E4D6E000E4C6E010E11
:10165C004B6E83848386FFEC09F04BEC0BF06AEC49
:10166C000BF05BEC0BF012000D0EA2EC0BF0800EED
:10167C00056E080E066E1EEC09F00A0EA2EC0BF0BD
:10168C00000E336E000E326E1200838083928394B0
:10169C0083964B504C10D8A456EF0BF058EF0BF030
:1016AC004DEF0BF083848386120083908382000EAF
:1016BC00056E190E046E7DEC09F083848386000E92
:1016CC004C6E000E4B6E120083808382000E056EF2
:1016DC00190E046E7DEC09F083848386000E4E6E29
:1016EC00000E4D6E120083908382000E026E190E56
:1016FC00016EABEC09F083848386000E4C6E000EF9
:10170C004B6E120083808382000E026E190E016EE6
:10171C00ABEC09F083848386000E4E6E000E4D6E8A
:10172C0012000D0EA2EC0BF09F0E056E080E066E4D
:10173C001EEC09F0010E1200046E9EA8A8EF0BF02F
:10174C00AAEF0BF0A3EF0BF004C0ADFF1200F28C6C
:10175C00D09EF28EF292F288F19CF19AF086F18E84
:0C176C001200736C696465636C69636B48
:020000040020DA
:08000000FFFFFFFFFFFFFFFF00
:020000040030CA
:0E00000000091F1EFF8381FF0FC00FE00F409D
:00000001FF
