:020000040000FA
:0400000007EF00F016
:0A0008004F82FFED07F048EF0AF009
:1008000000546F75636820496E7374727563637406
:10081000696F6E206973206E6F74207265636F67F5
:100820006E697A6564004672616D657320617265F8
:10083000206E6F7420696E73657274656420636FD7
:1008400072726563746C7900436F6D6D616E647371
:100850002077657265206E6F74207265636F676EB6
:10086000697A656400537572706173736573206390
:100870006F6F7264696E617465732073697A650065
:1008800056657269667920436F6D706C6574656436
:1008900000456E74657220636F6D6D616E64005704
:0B08A000616974696E672E2E2E000047
:1008AC00000E1E6EAB88000E206E000E1F6E1FEC2D
:1008BC000BF01C6E130E1F24D96E000E2020DA6E66
:1008CC001CC0DFFF080E1F182010D8A470EF04F016
:1008DC0072EF04F073EF04F0AB981F4A202A20BE8D
:1008EC0081EF04F0205009E1090E1F5CD8A081EFC4
:1008FC0004F083EF04F05DEF04F0ABA288EF04F09A
:10090C008AEF04F096EF04F0AC9AAB98270E0F6EBA
:10091C00F50EE82EFED70F2EFCD700F0AC8AAB8874
:10092C0005C0D9FF06C0DAFF13C0DFFF07C0D9FF2F
:10093C0008C0DAFF14C0DFFF0DC0D9FF0EC0DAFF0C
:10094C001BC0DFFF020E216E130E2124D96EDA6A52
:10095C00000EDA223A0EDF60B6EF04F0B8EF04F0C6
:10096C00C7EF04F0130E2124D96EDA6A000EDA22D6
:10097C002F0EDF64C4EF04F0C6EF04F0C7EF04F0F1
:10098C001E2A212A070E2164CEEF04F0D0EF04F0CA
:10099C00AAEF04F0060E1E18D8A4D7EF04F0D9EF76
:1009AC0004F0DBEF04F0E1EF04F0000E066E000E35
:1009BC00056E25EF05F0300E0F6EEB0E106E155018
:1009CC00640DF3CF11F0F4CF12F016500A0DF35062
:1009DC001126F450122217501126000E12220F501D
:1009EC0011261050122209C0D9FF0AC0DAFF11C01B
:1009FC00DEFF12C0DDFF300E0F6EEB0E106E1850C6
:100A0C00640DF3CF11F0F4CF12F019500A0DF3501E
:100A1C001126F45012221A501126000E12220F50D9
:100A2C001126105012220BC0D9FF0CC0DAFF11C0D6
:100A3C00DEFF12C0DDFF000E066E010E056E120009
:100A4C00000E276E010E266E000E256E010E246E12
:100A5C004B504C10D8A435EF05F037EF05F03DEFB7
:100A6C0005F03AC036F03BC037F043EF05F04B5081
:100A7C003A5C366E4C503B58376E37BE4AEF05F039
:100A8C0048EF05F056EF05F083808382366C371EF5
:100A9C00D8B0372A000E276E000E266E5CEF05F0DC
:100AAC0083908392000E276E010E266E36C004F0E2
:100ABC0037C005F0000E076E050E066EDDEC0AF071
:100ACC0004C02AF005C02BF02AC004F02BC005F09E
:100ADC0082EC09F026502710D8A477EF05F079EFB7
:100AEC0005F081EF05F036504B5C4B6E37504C588F
:100AFC004C6E90EF05F026042710D8A488EF05F073
:100B0C008AEF05F090EF05F04B5036244B6E4C50AD
:100B1C0037204C6E49504A10D8A497EF05F099EF46
:100B2C0005F09FEF05F038C034F039C035F0A5EF73
:100B3C0005F04950385C346E4A503958356E35BE24
:100B4C00ACEF05F0AAEF05F0B8EF05F083908382C7
:100B5C00346C351ED8B0352A000E256E000E246E6E
:100B6C00BEEF05F083808392000E256E010E246E7D
:100B7C0034C004F035C005F0000E076E050E066E8D
:100B8C00DDEC0AF004C028F005C029F028C004F000
:100B9C0029C005F082EC09F024502510D8A4D9EF17
:100BAC0005F0DBEF05F0E3EF05F03450495C496EDE
:100BBC0035504A584A6EF2EF05F024042510D8A49B
:100BCC00EAEF05F0ECEF05F0F2EF05F049503424B4
:100BDC00496E4A5035204A6E12004BC009F04CC089
:100BEC000AF0000E0C6E640E0B6E48EC08F0095007
:100BFC00300F106E000E076E640E066E4BC004F0C4
:100C0C004CC005F0F1EC08F004C009F005C00AF086
:100C1C00000E0C6E0A0E0B6E48EC08F00950300FEB
:100C2C00116E000E076E640E066E4BC004F04CC0C5
:100C3C0005F0F1EC08F004C016F005C017F016C072
:100C4C0004F017C005F0000E076E0A0E066EF1ECEC
:100C5C0008F00450300F126E49C009F04AC00AF077
:100C6C00000E0C6E640E0B6E48EC08F00950300F41
:100C7C00136E000E076E640E066E49C004F04AC077
:100C8C0005F0F1EC08F004C009F005C00AF0000E04
:100C9C000C6E0A0E0B6E48EC08F00950300F146EF7
:100CAC00000E076E640E066E49C004F04AC005F0D3
:100CBC00F1EC08F004C016F005C017F016C004F0F3
:100CCC0017C005F0000E076E0A0E066EF1EC08F068
:100CDC000450300F156E000E196E000E186E100EAB
:100CEC001824D96E000E1920DA6EDF5037EC0BF099
:100CFC00184A192A19BE8CEF06F0195009E1030E97
:100D0C00185CD8A08CEF06F08EEF06F075EF06F0AD
:100D1C002C0E37EC0BF0000E1B6E000E1A6E130E21
:100D2C001A24D96E000E1B20DA6EDF5037EC0BF054
:100D3C001A4A1B2A1BBEACEF06F01B5009E1030E2E
:100D4C001A5CD8A0ACEF06F0AEEF06F095EF06F00B
:100D5C001200000E0D6E0BBEB8EF06F0B6EF06F0EB
:100D6C00C2EF06F00B1E0A1E091E086C000E0922AB
:100D7C000A220B22010E0D6E07BEC9EF06F0C7EF5B
:100D8C0006F0D3EF06F0071E061E051E046C000EBF
:100D9C00052206220722010E0D1A000E0E6E000E01
:100DAC000F6E000E106E000E116E085009100A1016
:100DBC000B10D8B4E4EF06F0E6EF06F01CEF07F0EA
:100DCC00010E0C6EF0EF06F0D890083609360A3694
:100DDC000B360C2A0BAEF5EF06F0F7EF06F0EAEF48
:100DEC0006F0D8900E360F36103611360850045CCB
:100DFC00095005580A5006580B500758D8A009EF4F
:100E0C0007F00BEF07F014EF07F00850045E0950E1
:100E1C00055A0A50065A0B50075A0E80D8900B32BE
:100E2C000A32093208320C2EF7EF06F00D50D8B406
:100E3C0022EF07F024EF07F02CEF07F0111E101E25
:100E4C000F1E0E6C000E0F22102211220EC004F089
:100E5C000FC005F010C006F011C007F012003204EC
:100E6C00D8A43BEF07F03DEF07F074EF07F026EC4A
:100E7C0005F0838E0D0E0B6E2D0E0A6ED80EE82E1D
:100E8C00FED70A2EFCD70B2EFAD7839E20EE44F009
:100E9C0010EE0CF0040EDBCFE3FFE806FCE2000ED4
:100EAC00176E000E166E0C0E1624D96E000E17203F
:100EBC00DA6EDF5037EC0BF0164A172A17BE70EFBC
:100ECC0007F0175009E1050E165CD8A070EF07F07B
:100EDC0072EF07F059EF07F0A6EF07F03250D8A4E5
:100EEC007AEF07F07CEF07F0A6EF07F0838E26EC85
:100EFC0005F0839E20EE3FF010EE11F0040EDBCFD8
:100F0C00E3FFE806FCE2000E196E000E186E110EDF
:100F1C001824D96E000E1920DA6EDF5037EC0BF066
:100F2C00184A192A19BEA4EF07F0195009E1050E49
:100F3C00185CD8A0A4EF07F0A6EF07F08DEF07F030
:100F4C00000E4E6E010E4D6E1200000E336EF5EF5C
:100F5C0007F02CEC0BF0336EF5EF07F0BBEC08F060
:100F6C00336EF5EF07F028EC0AF0336EF5EF07F06F
:100F7C00DEEC09F0336EF5EF07F004EC0AF0336E9B
:100F8C00F5EF07F0F0EC0AF0F5EF07F0010E336E19
:100F9C00F5EF07F03350226E236A2350000AD8B4C1
:100FAC00DAEF07F0CCEF07F02250000AD8B4AFEF1D
:100FBC0007F0010AD8B4B4EF07F0030AD8B4B9EFBC
:100FCC0007F0010AD8B4BEEF07F0070AD8B4C3EF94
:100FDC0007F0010AD8B4C8EF07F0CCEF07F04D04C6
:100FEC004E10D8B4FCEF07F0FEEF07F0D0EF07F08F
:100FFC0012000600F2A205EF08F007EF08F023EF4D
:10100C0008F0450E42EC0BF010EC0BF081B011EF38
:10101C0008F013EF08F023EF08F0270E036EF50E1F
:10102C00E82EFED7032EFCD700F081B020EF08F09D
:10103C0022EF08F023EF08F0F292F0A028EF08F06E
:10104C002AEF08F046EF08F0650E42EC0BF001ECCD
:10105C000BF081B234EF08F036EF08F046EF08F0F1
:10106C00270E036EF50EE82EFED7032EFCD700F0EC
:10107C0081B243EF08F045EF08F046EF08F0F0902E
:10108C004F921100000E0E6E000E0D6E0B500C10D8
:10109C00D8B453EF08F055EF08F07DEF08F0010ECF
:1010AC000F6E5DEF08F0D8900B360C360F2A0CAE95
:1010BC0062EF08F064EF08F059EF08F0D8900D36A5
:1010CC000E360B50095C0C500A58D8A070EF08F083
:1010DC0072EF08F077EF08F00B50095E0C500A5ACB
:1010EC000D80D8900C320B320F2E64EF08F00DC02F
:1010FC0009F00EC00AF01200949C948E12C008F0F5
:10110C0013C009F0000E09BEFF0E0A6E0B6E000E26
:10111C00046E120E056E7A0E066E000E076EAFECA4
:10112C0006F004C014F005C015F006C016F007C098
:10113C0017F014C004F015C005F016C006F017C067
:10114C0007F0400E086E000E096E000E0A6E000EBF
:10115C000B6EAFEC06F00404AF6EAC94AC98AB8E97
:10116C00AC9CAC8AAB9CAB8812000D0E37EC0BF030
:10117C00910E056E080E066E23EC09F03E0E056E00
:10118C00000E066E3D0E076E000E086E3A0E096ECE
:10119C00000E0A6E380E0B6E000E0C6E3C0E0D6EB1
:1011AC00000E0E6E56EC04F005040610D8A4E1EF08
:1011BC0008F0E3EF08F0E6EF08F0020EF0EF08F0AD
:1011CC00480E056E080E066E23EC09F00A0E37EC7D
:1011DC000BF0010E120006500710D8B4F8EF08F00F
:1011EC00FAEF08F01EEF09F0010E086E02EF09F09D
:1011FC00D89006360736082A07AE07EF09F009EF34
:10120C0009F0FEEF08F00650045C07500558D8A012
:10121C0012EF09F014EF09F018EF09F00650045E14
:10122C000750055AD89007320632082E09EF09F0FC
:10123C0004C004F005C005F01200000E096E095040
:10124C000524076E000E0620086E07C0F6FF08C0C6
:10125C00F7FF0800F5500009D8A437EF09F039EF73
:10126C0009F03BEF09F052EF09F009500524076E25
:10127C00000E0620086E07C0F6FF08C0F7FF080036
:10128C00F55037EC0BF0092A0928D8A450EF09F0D7
:10129C0052EF09F025EF09F01200720ED36EB4680C
:1012AC00B59E0F0EC16E000E836E000E8C6E000E7E
:1012BC00956E000E826E000E8B6E000E946E000EFC
:1012CC00816E000E8A6E9368250E136E800E126E60
:1012DC0082EC08F0000E946EF90ECB6E0C0EBD6E07
:1012EC007D0EBE6E0C0EBA6E7D0EBB6E030ECA6EFC
:1012FC00000ECC6ECA841200000E2F6E000E2E6EE5
:10130C00000E2D6E000E2C6E83948396A2EF09F0C6
:10131C0082A493EF09F095EF09F097EF09F081ECB7
:10132C000AF02C042D10D8A49EEF09F0A0EF09F0C0
:10133C00A2EF09F0B3EC0AF004502E5C05502F58C4
:10134C00D8A0ABEF09F0ADEF09F08EEF09F0838474
:10135C0083861200000E2F6E000E2E6E000E2D6E68
:10136C00000E2C6E83948396D0EF09F082A4C1EF0B
:10137C0009F0C3EF09F0C5EF09F09AEC0AF02C0460
:10138C002D10D8A4CCEF09F0CEEF09F0D0EF09F076
:10139C00C8EC0AF001502E5C02502F58D8A0D9EF9F
:1013AC0009F0DBEF09F0BCEF09F0838483861200AF
:1013BC00430E3D18D8A4E5EF09F0E7EF09F0ECEF88
:1013CC0009F0010E326E040E03EF0AF0530E3D18B5
:1013DC00D8A4F3EF09F0F5EF09F0F9EF09F0000EDE
:1013EC00326EE9EF09F0010E056E080E066E23EC65
:1013FC0009F00A0E37EC0BF0010E12002D0E3A5CC0
:10140C00010E3B58D8B00DEF0AF00FEF0AF01DEFAC
:10141C000AF02D0E385C010E3958D8B018EF0AF0CE
:10142C001AEF0AF01DEF0AF0050E27EF0AF0650E11
:10143C00056E080E066E23EC09F00A0E37EC0BF065
:10144C00010E12003C0E3E18D8A42FEF0AF031EF1B
:10145C000AF03DEF0AF03E0E3C18D8A438EF0AF023
:10146C003AEF0AF03DEF0AF0030E47EF0AF0260EB2
:10147C00056E080E066E23EC09F00A0E37EC0BF025
:10148C00010E12009A0EF66E160EF76E000EF86E26
:10149C0000EE3FF010EE0AF00900F5CFEEFFE5503C
:1014AC00E150FAE100EE24F01B0EEE6AE806FDE1D5
:1014BC004F904F92000EF86E000165EF0AF053EC5E
:1014CC0009F0000E4C6E010E4B6E000E4A6E010EB2
:1014DC00496E83848386000E4E6E010E4D6EABEC0E
:1014EC0007F0F3EC05F035EC07F0F3EC05F071EFD9
:1014FC000AF007EF00F02C042D10D8A488EF0AF0A6
:10150C008AEF0AF08CEF0AF099EF0AF082A491EFBF
:10151C000AF093EF0AF099EF0AF02E4A2F2A000EE8
:10152C002D6E010E2C6E12002C042D10D8A4A1EFE0
:10153C000AF0A3EF0AF0A5EF0AF0B2EF0AF082A4CA
:10154C00AAEF0AF0ACEF0AF0B2EF0AF02E4A2F2AFB
:10155C00000E2D6E010E2C6E120082A4B8EF0AF054
:10156C00BAEF0AF0BCEF0AF0C7EF0AF082B4C1EF91
:10157C000AF0C3EF0AF0C7EF0AF0000E2D6E000E52
:10158C002C6E120082A4CDEF0AF0CFEF0AF0D1EF4F
:10159C000AF0DCEF0AF082B4D6EF0AF0D8EF0AF0CA
:1015AC00DCEF0AF0000E2D6E000E2C6E12000450B3
:1015BC000602F3CF08F0F4CF09F004500702F35001
:1015CC00092605500602F350092608C004F009C08C
:1015DC0005F012000D0E37EC0BF0800E056E080EA8
:1015EC00066E23EC09F00A0E37EC0BF0000E4E6E73
:1015FC00000E4D6E120083808392000E026E190E47
:10160C00016EB0EC09F083848386000E4A6E000EE6
:10161C00496E120083908392000E026E190E016EB9
:10162C00B0EC09F083848386000E4C6E000E4B6E7A
:10163C0012009EAA24EF0BF026EF0BF01FEF0BF01D
:10164C00AECF04F0000EAE6E045012000D0E37EC4F
:10165C000BF09F0E056E080E066E23EC09F0010EC2
:10166C001200046E9EA83DEF0BF03FEF0BF038EF2D
:10167C000BF004C0ADFF1200016E9EA848EF0BF0FA
:10168C004AEF0BF043EF0BF001C0ADFF1200736C8F
:08169C00696465636C69636B0E
:020000040020DA
:08000000FFFFFFFFFFFFFFFF00
:020000040030CA
:0E00000000091F1EFF8381FF0FC00FE00F409D
:00000001FF
