:020000040000FA
:0400000007EF00F016
:0A00080043828FED07F0C8EF0AF005
:1008000000546F75636820496E7374727563637406
:10081000696F6E206973206E6F74207265636F67F5
:100820006E697A6564004672616D657320617265F8
:10083000206E6F7420696E73657274656420636FD7
:1008400072726563746C7900436F6D6D616E647371
:100850002077657265206E6F74207265636F676EB6
:10086000697A656400537572706173736573206390
:100870006F6F7264696E617465732073697A650065
:1008800056657269667920436F6D706C6574656436
:1008900000456E74657220636F6D6D616E64005704
:1008A000616974696E672E2E2E00536C6964650051
:0708B000436C69636B00005B
:1008B800000E1E6EAB88000E206E000E1F6ED5EC6B
:1008C8000AF01C6E130E1F24D96E000E2020DA6E5B
:1008D8001CC0DFFF080E1F182010D8A476EF04F004
:1008E80078EF04F079EF04F0AB981F4A202A20BE75
:1008F80087EF04F0205009E1090E1F5CD8A087EFAC
:1009080004F089EF04F063EF04F0ABA28EEF04F07B
:1009180090EF04F09CEF04F0AC9AAB98270E0F6EA2
:10092800F50EE82EFED70F2EFCD700F0AC8AAB8868
:1009380005C0D9FF06C0DAFF13C0DFFF07C0D9FF23
:1009480008C0DAFF14C0DFFF0DC0D9FF0EC0DAFF00
:100958001BC0DFFF020E216E130E2124D96EDA6A46
:10096800000EDA223A0EDF60BCEF04F0BEEF04F0AE
:10097800CDEF04F0130E2124D96EDA6A000EDA22C4
:100988002F0EDF64CAEF04F0CCEF04F0CDEF04F0D3
:100998001E2A212A070E2164D4EF04F0D6EF04F0B2
:1009A800B0EF04F0060E1E18D8A4DDEF04F0DFEF58
:1009B80004F0E1EF04F0E7EF04F0000E066E000E1D
:1009C800056E2BEF05F0300E0F6EEB0E106E155006
:1009D800640DF3CF11F0F4CF12F016500A0DF35056
:1009E8001126F450122217501126000E12220F5011
:1009F80011261050122209C0D9FF0AC0DAFF11C00F
:100A0800DEFF12C0DDFF300E0F6EEB0E106E1850B9
:100A1800640DF3CF11F0F4CF12F019500A0DF35012
:100A28001126F45012221A501126000E12220F50CD
:100A38001126105012220BC0D9FF0CC0DAFF11C0CA
:100A4800DEFF12C0DDFF000E066E010E056E1200FD
:100A5800000E276E010E266E000E256E010E246E06
:100A68003F504010D8A43BEF05F03DEF05F043EFB1
:100A780005F038C034F039C035F049EF05F03F5083
:100A8800385C346E40503958356E35BE50EF05F03D
:100A98004EEF05F05CEF05F083808382346C351EE1
:100AA800D8B0352A000E276E000E266E62EF05F0CC
:100AB80083908392000E276E010E266E34C004F0D8
:100AC80035C005F0000E076E050E066E86EC0AF0BE
:100AD80004C02AF005C02BF02AC004F02BC005F092
:100AE80048EC09F026502710D8A47DEF05F07FEFD9
:100AF80005F087EF05F034503F5C3F6E35504058A5
:100B0800406E96EF05F026042710D8A48EEF05F066
:100B180090EF05F096EF05F03F5034243F6E4050BB
:100B28003520406E3D503E10D8A49DEF05F09FEF54
:100B380005F0A5EF05F036C032F037C033F0ABEF63
:100B480005F03D50365C326E3E503758336E33BE3A
:100B5800B2EF05F0B0EF05F0BEEF05F083908382A9
:100B6800326C331ED8B0332A000E256E000E246E68
:100B7800C4EF05F083808392000E256E010E246E6B
:100B880032C004F033C005F0000E076E050E066E85
:100B980086EC0AF004C028F005C029F028C004F04B
:100BA80029C005F048EC09F024502510D8A4DFEF3F
:100BB80005F0E1EF05F0E9EF05F032503D5C3D6EE0
:100BC80033503E583E6EF8EF05F024042510D8A4A3
:100BD800F0EF05F0F2EF05F0F8EF05F03D503224A4
:100BE8003D6E3E5033203E6E12003FC009F040C0BB
:100BF8000AF0000E0C6E640E0B6ED8EC07F009506C
:100C0800300F106E000E076E640E066E3FC004F0C3
:100C180040C005F0B7EC08F004C009F005C00AF0C0
:100C2800000E0C6E0A0E0B6ED8EC07F00950300F50
:100C3800116E000E076E640E066E3FC004F040C0D1
:100C480005F0B7EC08F004C016F005C017F016C0A0
:100C580004F017C005F0000E076E0A0E066EB7EC1A
:100C680008F00450300F126E3DC009F03EC00AF083
:100C7800000E0C6E640E0B6ED8EC07F00950300FA6
:100C8800136E000E076E640E066E3DC004F03EC083
:100C980005F0B7EC08F004C009F005C00AF0000E32
:100CA8000C6E0A0E0B6ED8EC07F00950300F146E5C
:100CB800000E076E640E066E3DC004F03EC005F0DF
:100CC800B7EC08F004C016F005C017F016C004F021
:100CD80017C005F0000E076E0A0E066EB7EC08F096
:100CE8000450300F156E000E196E000E186E100E9F
:100CF8001824D96E000E1920DA6EDF50EDEC0AF0D8
:100D0800184A192A19BE92EF06F0195009E1030E84
:100D1800185CD8A092EF06F094EF06F07BEF06F08F
:100D28002C0EEDEC0AF0000E1B6E000E1A6E130E60
:100D38001A24D96E000E1B20DA6EDF50EDEC0AF093
:100D48001A4A1B2A1BBEB2EF06F01B5009E1030E1C
:100D58001A5CD8A0B2EF06F0B4EF06F09BEF06F0ED
:100D68001200000E0D6E0BBEBEEF06F0BCEF06F0D3
:100D7800C8EF06F00B1E0A1E091E086C000E092299
:100D88000A220B22010E0D6E07BECFEF06F0CDEF43
:100D980006F0D9EF06F0071E061E051E046C000EAD
:100DA800052206220722010E0D1A000E0E6E000EF5
:100DB8000F6E000E106E000E116E085009100A100A
:100DC8000B10D8B4EAEF06F0ECEF06F022EF07F0CC
:100DD800010E0C6EF6EF06F0D890083609360A3682
:100DE8000B360C2A0BAEFBEF06F0FDEF06F0F0EF2A
:100DF80006F0D8900E360F36103611360850045CBF
:100E0800095005580A5006580B500758D8A00FEF3C
:100E180007F011EF07F01AEF07F00850045E0950C9
:100E2800055A0A50065A0B50075A0E80D8900B32B2
:100E38000A32093208320C2EFDEF06F00D50D8B4F4
:100E480028EF07F02AEF07F032EF07F0111E101E07
:100E58000F1E0E6C000E0F22102211220EC004F07D
:100E68000FC005F010C006F011C007F01200000E08
:100E7800316E85EF07F0E2EC0AF0316E85EF07F08E
:100E88004BEC08F0316E85EF07F0EEEC09F0316EAF
:100E980085EF07F0A4EC09F0316E85EF07F0CAEC96
:100EA80009F0316E85EF07F099EC0AF085EF07F04D
:100EB800010E316E85EF07F03150226E236A235000
:100EC800000AD8B46AEF07F05CEF07F02250000A76
:100ED800D8B43FEF07F0010AD8B444EF07F0030A8B
:100EE800D8B449EF07F0010AD8B44EEF07F0070A63
:100EF800D8B453EF07F0010AD8B458EF07F05CEF05
:100F080007F041044210D8B48CEF07F08EEF07F0D9
:100F180060EF07F012000600F2A295EF07F097EFD6
:100F280007F0B3EF07F0450EF8EC0AF0B9EC0AF059
:100F380081B0A1EF07F0A3EF07F0B3EF07F0270E9A
:100F4800036EF50EE82EFED7032EFCD700F081B015
:100F5800B0EF07F0B2EF07F0B3EF07F0F292F0A0AE
:100F6800B8EF07F0BAEF07F0D6EF07F0650EF8EC28
:100F78000AF0AAEC0AF081B2C4EF07F0C6EF07F056
:100F8800D6EF07F0270E036EF50EE82EFED7032ED8
:100F9800FCD700F081B2D3EF07F0D5EF07F0D6EF1A
:100FA80007F0F09043921100000E0E6E000E0D6EC9
:100FB8000B500C10D8B4E3EF07F0E5EF07F00DEF96
:100FC80008F0010E0F6EEDEF07F0D8900B360C36D7
:100FD8000F2A0CAEF2EF07F0F4EF07F0E9EF07F095
:100FE800D8900D360E360B50095C0C500A58D8A014
:100FF80000EF08F002EF08F007EF08F00B50095E69
:101008000C500A5A0D80D8900C320B320F2EF4EF88
:1010180007F00DC009F00EC00AF01200949C948EDF
:1010280012C008F013C009F0000E09BEFF0E0A6EC8
:101038000B6E000E046E120E056E7A0E066E000E12
:10104800076EB5EC06F004C014F005C015F006C034
:1010580016F007C017F014C004F015C005F016C04C
:1010680006F017C007F0400E086E000E096E000E5D
:101078000A6E000E0B6EB5EC06F00404AF6EAC946D
:10108800AC98AB8EAC9CAC8AAB9CAB8812000D0EB6
:10109800EDEC0AF0910E056E080E066EE9EC08F00C
:1010A8003C0E056E000E066E3B0E076E000E086EB7
:1010B800380E096E000E0A6E360E0B6E000E0C6EA0
:1010C8003A0E0D6E000E0E6E5CEC04F00504061070
:1010D800D8A471EF08F073EF08F076EF08F0020E6D
:1010E80080EF08F0480E056E080E066EE9EC08F071
:1010F8000A0EEDEC0AF0010E12003004D8A487EFB6
:1011080008F089EF08F0A0EF08F02CEC05F0838ECA
:101118000D0E0B6E2D0E0A6ED80EE82EFED70A2E77
:10112800FCD70B2EFAD7839EB00E056E080E066EFE
:10113800E9EC08F0B2EF08F03050D8A4A6EF08F0B8
:10114800A8EF08F0B2EF08F0838E2CEC05F0839E30
:10115800AA0E056E080E066EE9EC08F0000E426E47
:10116800010E416E120006500710D8B4BEEF08F009
:10117800C0EF08F0E4EF08F0010E086EC8EF08F0C1
:10118800D89006360736082A07AECDEF08F0CFEF1D
:1011980008F0C4EF08F00650045C07500558D8A0C2
:1011A800D8EF08F0DAEF08F0DEEF08F00650045E3A
:1011B8000750055AD89007320632082ECFEF08F0AC
:1011C80004C004F005C005F01200000E096E0950B5
:1011D8000524076E000E0620086E07C0F6FF08C03B
:1011E800F7FF0800F5500009D8A4FDEF08F0FFEF5D
:1011F80008F001EF09F018EF09F009500524076E0F
:10120800000E0620086E07C0F6FF08C0F7FF0800AA
:10121800F550EDEC0AF0092A0928D8A416EF09F0D0
:1012280018EF09F0EBEF08F01200720ED36EB468F5
:10123800B59E0F0EC16E000E836E000E8C6E000EF2
:10124800956E000E826E000E8B6E000E946E000E70
:10125800816E000E8A6E9368250E136E800E126ED4
:1012680012EC08F0000E946EF90ECB6E0C0EBD6EEB
:101278007D0EBE6E0C0EBA6E7D0EBB6E030ECA6E70
:10128800000ECC6ECA841200000E2F6E000E2E6E59
:10129800000E2D6E000E2C6E8394839668EF09F075
:1012A80082A459EF09F05BEF09F05DEF09F02AEC31
:1012B8000AF02C042D10D8A464EF09F066EF09F0A9
:1012C80068EF09F05CEC0AF004502E5C05502F58CA
:1012D800D8A071EF09F073EF09F054EF09F0838497
:1012E80083861200000E2F6E000E2E6E000E2D6EDD
:1012F800000E2C6E8394839696EF09F082A487EFF4
:1013080009F089EF09F08BEF09F043EC0AF02C049F
:101318002D10D8A492EF09F094EF09F096EF09F098
:1013280071EC0AF001502E5C02502F58D8A09FEFA4
:1013380009F0A1EF09F082EF09F083848386120097
:10134800430E3B18D8A4ABEF09F0ADEF09F0B2EFAC
:1013580009F0010E306E040EC9EF09F0530E3B1868
:10136800D8A4B9EF09F0BBEF09F0BFEF09F0000E00
:10137800306EAFEF09F0010E056E080E066EE9EC4F
:1013880008F00A0EEDEC0AF0010E12002D0E385C82
:10139800010E3958D8B0D3EF09F0D5EF09F0E3EFD3
:1013A80009F02D0E365C010E3758D8B0DEEF09F083
:1013B800E0EF09F0E3EF09F0050EEDEF09F0650E37
:1013C800056E080E066EE9EC08F00A0EEDEC0AF060
:1013D800010E12003C0E3C18D8A4F5EF09F0F7EF07
:1013E80009F003EF0AF03E0E3A18D8A4FEEF09F010
:1013F80000EF0AF003EF0AF0030E0DEF0AF0260ED5
:10140800056E080E066EE9EC08F00A0EEDEC0AF01F
:10141800010E120019EC09F0000E406E010E3F6E2D
:10142800000E3E6E010E3D6E83848386000E426E72
:10143800010E416E3BEC07F0F9EC05F081EC08F089
:10144800F9EC05F01AEF0AF007EF00F02C042D1064
:10145800D8A431EF0AF033EF0AF035EF0AF042EF83
:101468000AF082A43AEF0AF03CEF0AF042EF0AF0E1
:101478002E4A2F2A000E2D6E010E2C6E12002C04FF
:101488002D10D8A44AEF0AF04CEF0AF04EEF0AF0FC
:101498005BEF0AF082A453EF0AF055EF0AF05BEF16
:1014A8000AF02E4A2F2A000E2D6E010E2C6E120005
:1014B80082A461EF0AF063EF0AF065EF0AF070EFBB
:1014C8000AF082B46AEF0AF06CEF0AF070EF0AF0E3
:1014D800000E2D6E000E2C6E120082A476EF0AF01C
:1014E80078EF0AF07AEF0AF085EF0AF082B47FEF1E
:1014F8000AF081EF0AF085EF0AF0000E2D6E000E5B
:101508002C6E120004500602F3CF08F0F4CF09F055
:1015180004500702F350092605500602F350092625
:1015280008C004F009C005F012000D0EEDEC0AF039
:10153800800E056E080E066EE9EC08F00A0EEDEC5A
:101548000AF0000E426E000E416E120083808392F4
:10155800000E026E190E016E76EC09F08384838604
:10156800000E3E6E000E3D6E120083908392000EB8
:10157800026E190E016E76EC09F083848386000EE4
:10158800406E000E3F6E120000EE24F0190EEE6A57
:10159800E806FDE143904392000EF86E00010EEF5D
:1015A8000AF09EAADAEF0AF0DCEF0AF0D5EF0AF0AB
:1015B800AECF04F0000EAE6E045012000D0EEDEC2E
:1015C8000AF09F0E056E080E066EE9EC08F0010E93
:1015D8001200046E9EA8F3EF0AF0F5EF0AF0EEEFA2
:1015E8000AF004C0ADFF1200016E9EA8FEEF0AF0DB
:0E15F80000EF0BF0F9EF0AF001C0ADFF12009A
:020000040020DA
:08000000FFFFFFFFFFFFFFFF00
:020000040030CA
:0E00000000091F1EFF8381FF0FC00FE00F409D
:00000001FF
