:020000040000FA
:0400000086EF3AF05D
:10736500736C696465636C69636B4572726F729E59
:10737500AABFEF39F0C1EF39F0BAEF39F0AE5012CC
:1073850000016E9EA8C9EF39F0CBEF39F0C4EF3993
:10739500F001C0ADFF1200456E7465725F636F6DDD
:1073A5006D616E6457616974696E672E2E2E477222
:1073B500616369617383908392838483863B503CC8
:1073C50010D8A4E8EF39F0EAEF39F0DFEF39F083B0
:1073D5009483961200839083828384838639503AFE
:1073E50010D8A4F8EF39F0FAEF39F0EFEF39F08360
:1073F500948396120001500302F3CF05F0F4CF06F3
:10740500F001500402F350062602500302F3500621
:107415002605C001F006C002F0120082A415EF3A5D
:10742500F017EF3AF019EF3AF024EF3AF082B41E74
:10743500EF3AF020EF3AF024EF3AF0000E346E0008
:107445000E336E120033043410D8A42CEF3AF02E0C
:10745500EF3AF030EF3AF03DEF3AF082A435EF3AEB
:10746500F037EF3AF03DEF3AF0354A362A000E3460
:107475006E010E336E12000D0EC3EC39F0000E03D3
:107485006E000E026E6D0E0224D96E000E0320DA18
:107495006EDF50C3EC39F0024A032A03BE5CEF3AB3
:1074A500F0035009E10A0E025CD8A05CEF3AF05EE9
:1074B500EF3AF045EF3AF08268010E12000D0EC367
:1074C500EC39F0000E036E000E026E770E0224D921
:1074D5006E000E0320DA6EDF50C3EC39F0024A036A
:1074E5002A03BE7FEF3AF0035009E1070E025CD88C
:1074F500A07FEF3AF081EF3AF068EF3AF0000E3EE8
:107505006E000E3D6E12009C0EF66E730EF76E0049
:107515000EF86E00EE60F010EE1EF00900F5CFEEED
:10752500FFE550E150FAE1650EF66E730EF76E0059
:107535000EF86E00EE4CF010EE0FF00900F5CFEEF0
:10754500FFE550E150FAE100EE2BF0210EEE6AE87E
:1075550006FDE1000EF86E000167EF3EF0000E3605
:107565006E000E356E000E346E000E336E839483FE
:1075750096D1EF3AF082A4C2EF3AF0C4EF3AF0C6E2
:10758500EF3AF025EC3AF033043410D8A4CDEF3AB5
:10759500F0CFEF3AF0D1EF3AF010EC3AF001503578
:1075A5005C02503658D8A0DAEF3AF0DCEF3AF0BD7D
:1075B500EF3AF0838483861200720ED36EB468B5F9
:1075C5009E0F0EC16E000E836E000E8C6EF00E9532
:1075D5006E000E826E000E8B6E000E946E000E8194
:1075E5006E000E8A6E9368250E106E800E0F6E402B
:1075F500EC3BF0000E946EF90ECB6E0C0EBD6E7D5D
:107605000EBE6E0C0EBA6E7D0EBB6E030ECA6E00FC
:107615000ECC6ECA84120003500410D8B415EF3B8B
:10762500F017EF3BF03BEF3BF0010E056E1FEF3B14
:10763500F0D89003360436052A04AE24EF3BF02635
:10764500EF3BF01BEF3BF00350015C04500258D8B0
:10765500A02FEF3BF031EF3BF035EF3BF00350014E
:107665005E0450025AD89004320332052E26EF3BB1
:10767500F001C001F002C002F01200949C948E0F3C
:10768500C005F010C006F0000E06BEFF0E076E081E
:107695006E000E016E120E026E7A0E036E000E045F
:1076A5006EE1EC3DF001C011F002C012F003C01311
:1076B500F004C014F011C001F012C002F013C003B1
:1076C500F014C004F0400E056E000E066E000E07A5
:1076D5006E000E086EE1EC3DF00104AF6EAC94ACAB
:1076E50098AB8EAC9CAC8AAB9CAB881200000E822A
:1076F5006E3C0E4B18D8A482EF3BF084EF3BF09024
:10770500EF3BF03E0E4918D8A48BEF3BF08DEF3BD5
:10771500F090EF3BF0030EB1EF3BF00D0EC3EC39EB
:10772500F0000E036E000E026E560E0224D96E0096
:107735000E0320DA6EDF50C3EC39F0024A032A0348
:10774500BEAEEF3BF0035009E1050E025CD8A0AEDA
:10775500EF3BF0B0EF3BF097EF3BF0010E1200006E
:107765000E0B6E000E0A6E08500910D8B4BDEF3B23
:10777500F0BFEF3BF0E7EF3BF0010E0C6EC7EF3BC0
:10778500F0D890083609360C2A09AECCEF3BF0CE7E
:10779500EF3BF0C3EF3BF0D8900A360B36085006A6
:1077A5005C09500758D8A0DAEF3BF0DCEF3BF0E17D
:1077B500EF3BF00850065E0950075A0A80D8900939
:1077C5003208320C2ECEEF3BF00AC006F00BC00794
:1077D500F012000D0EC3EC39F0000E826E000E1C87
:1077E5006E000E1B6E600E1B24D96E000E1C20DA77
:1077F5006EDF50C3EC39F01B4A1C2A1CBE0CEF3C53
:10780500F01C5009E10A0E1B5CD8A00CEF3CF00EF1
:10781500EF3CF0F5EF3BF04B0E016E000E026E4AA9
:107825000E036E000E046E470E056E000E066E45C5
:107835000E076E000E086E490E096E000E0A6EFCEC
:10784500EC3CF0020E1200000E826E2D0E475C011C
:107855000E4858D8B031EF3CF033EF3CF043EF3CE5
:10786500F02D0E455C010E4658D8B03CEF3CF03E7D
:10787500EF3CF043EF3CF0020E826E050E66EF3CE6
:10788500F00D0EC3EC39F0000E036E000E026E56BD
:107895000E0224D96E000E0320DA6EDF50C3EC39D8
:1078A500F0024A032A03BE61EF3CF0035009E105EB
:1078B5000E025CD8A061EF3CF063EF3CF04AEF3C70
:1078C500F0040E826E010E1200000E826E430E4A07
:1078D50018D8A470EF3CF072EF3CF079EF3CF00261
:1078E5000E826E010E3F6E040EABEF3CF0530E4A56
:1078F50018D8A480EF3CF082EF3CF088EF3CF00212
:107905000E826E000E3F6E76EF3CF00D0EC3EC3925
:10791500F0000E036E000E026E560E0224D96E00A4
:107925000E0320DA6EDF50C3EC39F0024A032A0356
:10793500BEA6EF3CF0035009E1050E025CD8A0A6F7
:10794500EF3CF0A8EF3CF08FEF3CF0040E826E01A7
:107955000E1200000E406EF2EF3CF03EEC3AF040A5
:107965006EF2EF3CF0ECEC3BF0406EF2EF3CF07960
:10797500EC3BF0406EF2EF3CF067EC3CF0406EF211
:10798500EF3CF026EC3CF0406EF2EF3CF061EC3A57
:10799500F0F2EF3CF040501D6E1E6A1E50000AD8F2
:1079A500B4D7EF3CF0F2EF3CF01D50000AD8B4B06C
:1079B500EF3CF0010AD8B4B5EF3CF0030AD8B4BAED
:1079C500EF3CF0010AD8B4BFEF3CF0070AD8B4C4C5
:1079D500EF3CF0010AD8B4C9EF3CF0F2EF3CF03DC2
:1079E500043E10D8B4F9EF3CF0FBEF3CF0CDEF3C92
:1079F500F01200000E1A6E000E196EBAEC39F0186E
:107A05006E0F0E1924D96E000E1A20DA6E18C0DF1B
:107A1500FF194A1A2A1ABE19EF3DF01A5009E10951
:107A25000E195CD8A019EF3DF01BEF3DF000EF3DBE
:107A3500F001C0D9FF02C0DAFF0FC0DFFF03C0D9D4
:107A4500FF04C0DAFF10C0DFFF300E0B6EEB0E0C2B
:107A55006E1150640DF3CF0DF0F4CF0EF012500AF5
:107A65000DF3500D26F4500E2213500D26000E0E68
:107A7500220B500D260C500E2205C0D9FF06C0DA88
:107A8500FF0DC0DEFF0EC0DDFF300E0B6EEB0E0CE2
:107A95006E1450640DF3CF0DF0F4CF0EF015500AAF
:107AA5000DF3500D26F4500E2216500D26000E0E25
:107AB500220B500D260C500E2207C0D9FF08C0DA44
:107AC500FF0DC0DEFF0EC0DDFF09C0D9FF0AC0DA19
:107AD500FF17C0DFFF12003F04D8A474EF3DF07616
:107AE500EF3DF0AEEF3DF033EC3FF0838E020E0834
:107AF5006E040E076EBA0EE82EFED7072EFCD708C9
:107B05002EFAD700D0839E20EE51F010EE09F00436
:107B15000EDBCFE3FFE806FCE2000E146E000E1349
:107B25006E090E1324D96E000E1420DA6EDF50C3D1
:107B3500EC39F0134A142A14BEAAEF3DF01450098B
:107B4500E1050E135CD8A0AAEF3DF0ACEF3DF09334
:107B5500EF3DF0E0EF3DF03F50D8A4B4EF3DF0B677
:107B6500EF3DF0E0EF3DF0838E33EC3FF0839E2058
:107B7500EE4CF010EE0EF0040EDBCFE3FFE806FC52
:107B8500E2000E166E000E156E0E0E1524D96E004F
:107B95000E1620DA6EDF50C3EC39F0154A162A1698
:107BA500BEDEEF3DF0165009E1050E155CD8A0DEEE
:107BB500EF3DF0E0EF3DF0C7EF3DF01200000E0A9B
:107BC5006E08BEEAEF3DF0E8EF3DF0F4EF3DF0085A
:107BD5001E071E061E056C000E062207220822013E
:107BE5000E0A6E04BEFBEF3DF0F9EF3DF005EF3EEA
:107BF500F0041E031E021E016C000E022203220465
:107C050022010E0A1A000E0B6E000E0C6E000E0DF0
:107C15006E000E0E6E0550061007100810D8B4162B
:107C2500EF3EF018EF3EF04EEF3EF0010E096E22EA
:107C3500EF3EF0D8900536063607360836092A088D
:107C4500AE27EF3EF029EF3EF01CEF3EF0D8900B4B
:107C5500360C360D360E360550015C0650025807B7
:107C650050035808500458D8A03BEF3EF03DEF3E76
:107C7500F046EF3EF00550015E0650025A075003EC
:107C85005A0850045A0B80D890083207320632053C
:107C950032092E29EF3EF00A50D8B454EF3EF05683
:107CA500EF3EF05EEF3EF00E1E0D1E0C1E0B6C003F
:107CB5000E0C220D220E220BC001F00CC002F00D9D
:107CC500C003F00EC004F01200DFEC3AF0838483A9
:107CD50086EDEC39F0DDEC39F0000E3E6E010E3D1F
:107CE5006EACEC3CF06EEC3DF03BC006F03CC007E2
:107CF500F0000E096E640E086EB2EC3BF0065030D3
:107D05000F1F6E000E046E640E036E3BC001F03C47
:107D1500C002F00EEC3BF001C006F002C007F00017
:107D25000E096E0A0E086EB2EC3BF00650300F20BD
:107D35006E000E046E640E036E3BC001F03CC00283
:107D4500F00EEC3BF001C025F002C026F025C00185
:107D5500F026C002F0000E046E0A0E036E0EEC3B18
:107D6500F00150300F216E39C006F03AC007F0001F
:107D75000E096E640E086EB2EC3BF00650300F2211
:107D85006E000E046E640E036E39C001F03AC00237
:107D9500F00EEC3BF001C006F002C007F0000E0942
:107DA5006E0A0E086EB2EC3BF00650300F236E00E3
:107DB5000E046E640E036E39C001F03AC002F00E77
:107DC500EC3BF001C025F002C026F025C001F026ED
:107DD500C002F0000E046E0A0E036E0EEC3BF001BD
:107DE50050300F246E000E286E000E276E1F0E27D2
:107DF50024D96E000E2820DA6EDF50C3EC39F02747
:107E05004A282A28BE10EF3FF0285009E1030E2723
:107E15005CD8A010EF3FF012EF3FF0F9EF3EF00015
:107E25000E2A6E000E296E220E2924D96E000E2A06
:107E350020DA6EDF50C3EC39F0294A2A2A2ABE2DF2
:107E4500EF3FF02A5009E1030E295CD8A02DEF3F42
:107E5500F02FEF3FF016EF3FF06FEF3EF000EF0031
:107E6500F0000E2E6E010E2D6E000E2C6E010E2BE7
:107E75006E3B503C10D8A442EF3FF044EF3FF04A30
:107E8500EF3FF047C043F048C044F050EF3FF03BB0
:107E950050475C436E3C504858446E44BE57EF3FD4
:107EA500F055EF3FF063EF3FF083908392436C44CE
:107EB5001ED8B0442A000E2E6E000E2D6E69EF3FBF
:107EC500F083808382000E2E6E010E2D6E43C0015D
:107ED500F044C002F0000E046E050E036EFDEC3991
:107EE500F001C031F002C032F031C001F032C00201
:107EF500F0B1EC3AF02D502E10D8A484EF3FF08667
:107F0500EF3FF08EEF3FF043503B5C3B6E44503CFF
:107F1500583C6E9DEF3FF02D042E10D8A495EF3FF1
:107F2500F097EF3FF09DEF3FF03B5043243B6E3C15
:107F35005044203C6E39503A10D8A4A4EF3FF0A627
:107F4500EF3FF0ACEF3FF045C041F046C042F0B224
:107F5500EF3FF03950455C416E3A504658426E420B
:107F6500BEB9EF3FF0B7EF3FF0C5EF3FF083908329
:107F750082416C421ED8B0422A000E2C6E000E2B98
:107F85006ECBEF3FF083808382000E2C6E010E2BAB
:107F95006E41C001F042C002F0000E046E050E03F2
:107FA5006EFDEC39F001C02FF002C030F02FC0019A
:107FB500F030C002F0B1EC3AF02B502C10D8A4E60A
:107FC500EF3FF0E8EF3FF0F0EF3FF04150395C391B
:107FD5006E42503A583A6EFFEF3FF02B042C10D802
:107FE500A4F7EF3FF0F9EF3FF0FFEF3FF0395041D5
:0B7FF50024396E3A5042203A6E120010
:020000040020DA
:08000000FFFFFFFFFFFFFFFF00
:020000040030CA
:0E00000000091F1EFF0381FF0FC00FE00F401D
:00000001FF
