:020000040000FA
:0400000034EF3DF0AC
:107A12009EAA0EEF3DF010EF3DF009EF3DF0AE50A3
:107A220012002E6E9EA818EF3DF01AEF3DF013EFF4
:087A32003DF02EC0ADFF120073
:107A3B00456E7465725F636F6D6D616E64576169DE
:107A4B0074696E672E2E2E4572726F723345727289
:107A5B006F72324572726F72314F6B61793B0EF6FA
:107A6B006E7A0EF76E000EF86E00EE01F010EE2D32
:107A7B00F00900F5CFEEFFE550E150FAE100EE4CD6
:107A8B00F0080EEE6AE806FDE1000EF86E0001B597
:107A9B00EF3EF0000E306E000E2F6E2A0E2F24D903
:107AAB006E000E3020DA6EDF5012EC3DF02F4A30B4
:107ABB002A30BE6AEF3DF0305009E1040E2F5CD83E
:107ACB00A06AEF3DF06CEF3DF053EF3DF0826801A3
:107ADB000E1200000E306E000E2F6E0E0E2F24D9DC
:107AEB006E000E3020DA6EDF5012EC3DF02F4A3074
:107AFB002A30BE8AEF3DF0305009E10A0E2F5CD8D8
:107B0B00A08AEF3DF08CEF3DF073EF3DF082680102
:107B1B000E1200949C948E3CC032F03DC033F000AA
:107B2B000E33BEFF0E346E356E000E2E6E120E2F00
:107B3B006E7A0E306E000E316E7AEC3FF02EC03E38
:107B4B00F02FC03FF030C040F031C041F03EC02EAE
:107B5B00F03FC02FF040C030F041C031F0400E324A
:107B6B006E000E336E000E346E000E356E7AEC3FE7
:107B7B00F02E04AF6EAC94AC98AB8EAC9CAC8AABD5
:107B8B009CAB881200000E826E430E5218D8B4D1F3
:107B9B00EF3DF0D3EF3DF0DCEF3DF0530E5218D834
:107BAB00A4DAEF3DF0DCEF3DF0E1EF3DF0020E82A9
:107BBB006E040E01EF3EF0000E306E000E2F6E1EA7
:107BCB000E2F24D96E000E3020DA6EDF5012EC3DF2
:107BDB00F02F4A302A30BEFCEF3DF0305009E10661
:107BEB000E2F5CD8A0FCEF3DF0FEEF3DF0E5EF3D36
:107BFB00F0040E826E010E1200000E826E3C0E53CC
:107C0B0018D8A40BEF3EF00DEF3EF01BEF3EF03E0D
:107C1B000E5118D8A414EF3EF016EF3EF01BEF3EBA
:107C2B00F0020E826E030E3BEF3EF0000E306E0044
:107C3B000E2F6E240E2F24D96E000E3020DA6EDF3D
:107C4B005012EC3DF02F4A302A30BE36EF3EF0306A
:107C5B005009E1060E2F5CD8A036EF3EF038EF3E10
:107C6B00F01FEF3EF0040E826E010E12000D0E128D
:107C7B00EC3DF0000E826E000E496E000E486E0158
:107C8B000E4824D96E000E4920DA6EDF5012EC3DFF
:107C9B00F0484A492A49BE5CEF3EF0495009E10AD7
:107CAB000E485CD8A05CEF3EF05EEF3EF045EF3E39
:107CBB00F0530E2E6E000E2F6E520E306E000E31E4
:107CCB006E4F0E326E000E336E4D0E346E000E354F
:107CDB006E510E366E000E376E08EC3FF082680266
:107CEB000E1200000E826E2D0E4F5C010E5058D8F6
:107CFB00B082EF3EF084EF3EF094EF3EF02D0E4D50
:107D0B005C010E4E58D8B08DEF3EF08FEF3EF094E5
:107D1B00EF3EF0020E826E060EB4EF3EF0000E3018
:107D2B006E000E2F6E1E0E2F24D96E000E3020DA31
:107D3B006EDF5012EC3DF02F4A302A30BEAFEF3ED3
:107D4B00F0305009E1060E2F5CD8A0AFEF3EF0B13A
:107D5B00EF3EF098EF3EF0040E826E010E120072B1
:107D6B000ED36E250E3D6E800E3C6E8FEC3DF000FB
:107D7B000E946E000E4C6EE1EF3EF06FEC3DF04C4E
:107D8B006EE1EF3EF03CEC3EF04C6EE1EF3EF0026C
:107D9B00EC3EF04C6EE1EF3EF0C8EC3DF04C6EE18A
:107DAB00EF3EF077EC3EF04C6EE1EF3EF04FEC3DEA
:107DBB00F04C6EE1EF3EF04C504A6E4B6A4B50006C
:107DCB000AD8B4EBEF3EF0E1EF3EF04A50000AD890
:107DDB00B4C3EF3EF0010AD8B4C8EF3EF0030AD8A3
:107DEB00B4CDEF3EF0010AD8B4D2EF3EF0070AD87B
:107DFB00B4D7EF3EF0020AD8B4DCEF3EF0E1EF3E31
:107E0B00F000EF00F0000E476E000E466E09EC3DE1
:107E1B00F0456E3C0E4624D96E000E4720DA6E45B7
:107E2B00C0DFFF464A472A47BE25EF3FF0475009C0
:107E3B00E1090E465CD8A025EF3FF027EF3FF00C91
:107E4B00EF3FF02EC0D9FF2FC0DAFF3CC0DFFF3071
:107E5B00C0D9FF31C0DAFF3DC0DFFF300E386EEB0B
:107E6B000E396E3E50640DF3CF3AF0F4CF3BF03F3A
:107E7B00500A0DF3503A26F4503B2240503A26005C
:107E8B000E3B2238503A2639503B2232C0D9FF33B1
:107E9B00C0DAFF3AC0DEFF3BC0DDFF300E386EEBC1
:107EAB000E396E4150640DF3CF3AF0F4CF3BF042F4
:107EBB00500A0DF3503A26F4503B2243503A260019
:107ECB000E3B2238503A2639503B2234C0D9FF356D
:107EDB00C0DAFF3AC0DEFF3BC0DDFF36C0D9FF374B
:107EEB00C0DAFF44C0DFFF1200000E376E35BE83D1
:107EFB00EF3FF081EF3FF08DEF3FF0351E341E3337
:107F0B001E326C000E332234223522010E376E31B5
:107F1B00BE94EF3FF092EF3FF09EEF3FF0311E30FB
:107F2B001E2F1E2E6C000E2F2230223122010E37F7
:107F3B001A000E386E000E396E000E3A6E000E3BB4
:107F4B006E3250331034103510D8B4AFEF3FF0B160
:107F5B00EF3FF0E7EF3FF0010E366EBBEF3FF0D88F
:107F6B00903236333634363536362A35AEC0EF3F9F
:107F7B00F0C2EF3FF0B5EF3FF0D890383639363AD4
:107F8B00363B3632502E5C33502F583450305835E8
:107F9B00503158D8A0D4EF3FF0D6EF3FF0DFEF3F92
:107FAB00F032502E5E33502F5A3450305A355031F8
:107FBB005A3880D8903532343233323232362EC280
:107FCB00EF3FF03750D8B4EDEF3FF0EFEF3FF0F766
:107FDB00EF3FF03B1E3A1E391E386C000E39223A29
:107FEB00223B2238C02EF039C02FF03AC030F03B84
:057FFB00C031F012008E
:020000040020DA
:08000000FFFFFFFFFFFFFFFF00
:020000040030CA
:0E000000010B1F1EFF0181FF0FC00FE00F401C
:00000001FF
