:020000040000FA
:0400000007EF00F016
:1000080052821BED03F0D1EF05F074EC05F0B5EC6E
:1000180006F0000E336E000E326E000E316E000ECA
:10002800306E83848386000E516E010E506E86EC0E
:1000380003F036EC02F032C009F033C00AF0000ECB
:100048000C6E640E0B6E96EC04F00950300F000134
:100058007E6F000E076E640E066E32C004F033C069
:1000680005F042EC05F004C009F005C00AF0000EE6
:100078000C6E0A0E0B6E96EC04F00950300F00015E
:100088007F6F000E076E640E066E32C004F033C038
:1000980005F042EC05F004C084F005C085F084C08A
:1000A80004F085C005F0000E076E0A0E066E42ECDD
:1000B80005F00450300F0001806F30C009F031C0E6
:1000C8000AF0000E0C6E640E0B6E96EC04F00950EC
:1000D800300F0001816F000E076E640E066E30C08F
:1000E80004F031C005F042EC05F004C009F005C089
:1000F8000AF0000E0C6E0A0E0B6E96EC04F0095016
:10010800300F0001826F000E076E640E066E30C05D
:1001180004F031C005F042EC05F004C084F005C0DD
:1001280085F084C004F085C005F0000E076E0A0E45
:10013800066E42EC05F00450300F0001836F000E8C
:10014800876F000E866F7E0E8625D96E000E87217A
:10015800DA6EDF5096EC06F00001864B872B87BFDE
:10016800BFEF00F0875109E1030E865DD8A0BFEF0D
:1001780000F0C1EF00F0A7EF00F0000E896F000E4D
:10018800886F810E8825D96E000E8921DA6EDF50BE
:1001980096EC06F00001884B892B89BFDDEF00F053
:1001A800895109E1030E885DD8A0DDEF00F0DFEF8B
:1001B80000F0C5EF00F017EF00F007EF00F0000EB9
:1001C800256E010E246E000E236E010E226E325033
:1001D8003310D8A4F2EF00F0F4EF00F0FAEF00F0DB
:1001E8003CC038F03DC039F000EF01F032503C5CC3
:1001F800386E33503D58396E39BE07EF01F005EFC0
:1002080001F013EF01F083908392386C391ED8B057
:10021800392A000E256E000E246E19EF01F0838036
:100228008382000E256E010E246E38C004F039C09A
:1002380005F0000E076E050E066E74EC06F004C09D
:1002480028F005C029F028C004F029C005F0A3EC67
:1002580005F024502510D8A434EF01F036EF01F052
:100268003EEF01F03850325C326E39503358336EFD
:100278004DEF01F024042510D8A445EF01F047EF15
:1002880001F04DEF01F032503824326E33503920EE
:10029800336E30503110D8A454EF01F056EF01F00E
:1002A8005CEF01F03AC036F03BC037F062EF01F086
:1002B80030503A5C366E31503B58376E37BE69EF76
:1002C80001F067EF01F075EF01F083908382366CDF
:1002D800371ED8B0372A000E236E000E226E7BEF31
:1002E80001F083808382000E236E010E226E36C0D9
:1002F80004F037C005F0000E076E050E066E74ECAC
:1003080006F004C026F005C027F026C004F027C078
:1003180005F0A3EC05F022502310D8A496EF01F0C5
:1003280098EF01F0A0EF01F03650305C306E375096
:100338003158316EAFEF01F022042310D8A4A7EF93
:1003480001F0A9EF01F0AFEF01F030503624306E24
:1003580031503720316E1200000E0D6E0BBEB9EF12
:1003680001F0B7EF01F0C3EF01F00B1E0A1E091EE2
:10037800086C000E09220A220B22010E0D6E07BE20
:10038800CAEF01F0C8EF01F0D4EF01F0071E061E16
:10039800051E046C000E052206220722010E0D1A06
:1003A800000E0E6E000E0F6E000E106E000E116E17
:1003B800085009100A100B10D8B4E5EF01F0E7EF68
:1003C80001F01DEF02F0010E0C6EF1EF01F0D89074
:1003D800083609360A360B360C2A0BAEF6EF01F052
:1003E800F8EF01F0EBEF01F0D8900E360F3610362B
:1003F80011360850045C095005580A5006580B502D
:100408000758D8A00AEF02F00CEF02F015EF02F03F
:100418000850045E0950055A0A50065A0B50075AEC
:100428000E80D8900B320A32093208320C2EF8EFBF
:1004380001F00D50D8B423EF02F025EF02F02DEFB4
:1004480002F0111E101E0F1E0E6C000E0F2210223D
:1004580011220EC004F00FC005F010C006F011C044
:1004680007F012003404D8A43CEF02F03EEF02F08B
:1004780076EF02F0E3EC00F0838E020E0B6E040EB2
:100488000A6EBA0EE82EFED70A2EFCD70B2EFAD724
:1004980000D0839E20EE46F010EE0CF0040EDBCF69
:1004A800E3FFE806FCE2000E176E000E166E0C0E57
:1004B8001624D96E000E1720DA6EDF5096EC06F07F
:1004C800164A172A17BE72EF02F0175009E1050EF7
:1004D800165CD8A072EF02F074EF02F05BEF02F046
:1004E800A8EF02F03450D8A47CEF02F07EEF02F0BF
:1004F800A8EF02F0838EE3EC00F0839E20EE41F03B
:1005080010EE11F0040EDBCFE3FFE806FCE2000E6C
:10051800196E000E186E110E1824D96E000E1920CF
:10052800DA6EDF5096EC06F0184A192A19BEA6EFC3
:1005380002F0195009E1050E185CD8A0A6EF02F0E8
:10054800A8EF02F08FEF02F01200000E1D6E000EF1
:100558001C6EACEC06F01B6E120E1C24D96E000E3D
:100568001D20DA6E1BC0DFFF1C4A1D2A1DBEC6EF08
:1005780002F01D5009E1090E1C5CD8A0C6EF02F07C
:10058800C8EF02F0ADEF02F004C0D9FF05C0DAFFF2
:1005980012C0DFFF06C0D9FF07C0DAFF13C0DFFFB4
:1005A800300E0E6EEB0E0F6E1450640DF3CF10F07C
:1005B800F4CF11F015500A0DF3501026F450112203
:1005C80016501026000E11220E5010260F50112220
:1005D80008C0D9FF09C0DAFF10C0DEFF11C0DDFF77
:1005E800300E0E6EEB0E0F6E1750640DF3CF10F039
:1005F800F4CF11F018500A0DF3501026F4501122C0
:1006080019501026000E11220E5010260F501122DC
:100618000AC0D9FF0BC0DAFF10C0DEFF11C0DDFF32
:100628000CC0D9FF0DC0DAFF1AC0DFFF12000600A8
:1006380081A021EF03F023EF03F050EF03F049EF1F
:1006480003F0030E036E8A0E026E560EE82EFED7D6
:10065800022EFCD7032EFAD7CAEC06F081B037EF8A
:1006680003F039EF03F049EF03F0270E026EF50EA1
:10067800E82EFED7022EFCD700F081B046EF03F03B
:1006880048EF03F049EF03F0F292F2B24EEF03F0B5
:1006980050EF03F025EF03F081A255EF03F057EF79
:1006A80003F084EF03F07DEF03F0C6EC06F0030ED1
:1006B800036E8A0E026E560EE82EFED7022EFCD767
:1006C800032EFAD781B26BEF03F06DEF03F07DEFE5
:1006D80003F0270E026EF50EE82EFED7022EFCD789
:1006E80000F081B27AEF03F07CEF03F07DEF03F0C6
:1006F800F090F0B082EF03F084EF03F059EF03F0CD
:1007080052921100000E356ECCEF03F023EC06F088
:10071800356ECCEF03F05CEC04F0356ECCEF03F0F3
:10072800D0EC04F0356ECCEF03F0D6EC03F0356E68
:10073800CCEF03F01BEC04F0356ECCEF03F0FEECCD
:1007480005F0CCEF03F03550206E216A2150000AE5
:10075800D8B4B1EF03F0CCEF03F02050000AD8B4BE
:100768008AEF03F0010AD8B48FEF03F0030AD8B474
:1007780094EF03F0010AD8B499EF03F0070AD8B44C
:100788009EEF03F0010AD8B4A3EF03F0CCEF03F017
:1007980050045110D8B4D3EF03F0D5EF03F0A7EF0E
:1007A80003F01200000E826E430E3F18D8A4DFEF4C
:1007B80003F0E1EF03F0E8EF03F0020E826E010EA2
:1007C800346E040E1AEF04F0530E3F18D8A4EFEF5E
:1007D80003F0F1EF03F0F7EF03F0020E826E000E64
:1007E800346EE5EF03F00D0E96EC06F0000E066E83
:1007F800000E056E4B0E0524D96E000E0620DA6E2B
:10080800DF5096EC06F0054A062A06BE15EF04F0FE
:10081800065009E1050E055CD8A015EF04F017EFA6
:1008280004F0FEEF03F0040E826E010E1200000EBB
:10083800826E2D0E3C5C010E3D58D8B026EF04F0B8
:1008480028EF04F038EF04F02D0E3A5C010E3B5807
:10085800D8B031EF04F033EF04F038EF04F0020EB3
:10086800826E050E5BEF04F00D0E96EC06F0000E9E
:10087800066E000E056E4B0E0524D96E000E06207E
:10088800DA6EDF5096EC06F0054A062A06BE56EFE9
:1008980004F0065009E1050E055CD8A056EF04F0F7
:1008A80058EF04F03FEF04F0040E826E010E1200C0
:1008B8000D0E96EC06F0000E826E000E1F6E000EF6
:1008C8001E6E600E1E24D96E000E1F20DA6EDF50D9
:1008D80096EC06F01E4A1F2A1FBE7CEF04F01F503C
:1008E80009E10A0E1E5CD8A07CEF04F07EEF04F04C
:1008F80065EF04F0400E046E000E056E3F0E066EA6
:10090800000E076E3C0E086E000E096E3A0E0A6E57
:10091800000E0B6E3E0E0C6E000E0D6EA9EC02F072
:10092800020E1200000E0F6E000E0E6E0B500C1011
:10093800D8B4A1EF04F0A3EF04F0CBEF04F0010E5C
:100948000D6EABEF04F0D8900B360C360D2A0CAEBA
:10095800B0EF04F0B2EF04F0A7EF04F0D8900E3631
:100968000F360B50095C0C500A58D8A0BEEF04F0A3
:10097800C0EF04F0C5EF04F00B50095E0C500A5AA2
:100988000E80D8900C320B320D2EB2EF04F00EC050
:1009980009F00FC00AF01200000E826E3C0E4018DB
:1009A800D8A4D9EF04F0DBEF04F0E7EF04F03E0E33
:1009B8003E18D8A4E2EF04F0E4EF04F0E7EF04F007
:1009C800030E08EF05F00D0E96EC06F0000E066E0D
:1009D800000E056E4B0E0524D96E000E0620DA6E49
:1009E800DF5096EC06F0054A062A06BE05EF05F02C
:1009F800065009E1050E055CD8A005EF05F007EFE4
:100A080005F0EEEF04F0010E1200949C948E12C0D3
:100A180008F013C009F0000E09BEFF0E0A6E0B6E37
:100A2800000E046E120E056E7A0E066E000E076E2C
:100A3800B0EC01F004C014F005C015F006C016F0C3
:100A480007C017F014C004F015C005F016C006F072
:100A580017C007F0400E086E000E096E000E0A6EF1
:100A6800000E0B6EB0EC01F00404AF6EAC94AC98C1
:100A7800AB8EAC9CAC8AAB9CAB88120006500710BE
:100A8800D8B449EF05F04BEF05F06FEF05F0010E14
:100A9800086E53EF05F0D89006360736082A07AED9
:100AA80058EF05F05AEF05F04FEF05F00650045CDB
:100AB80007500558D8A063EF05F065EF05F069EF1A
:100AC80005F00650045E0750055AD89007320632E2
:100AD800082E5AEF05F004C004F005C005F0120016
:100AE800720ED36EB468B59E0F0EC16E000E836E83
:100AF800000E8C6EF00E956E000E826E000E8B6EE0
:100B0800000E946E000E816E000E8A6E9368250E9C
:100B1800136E800E126E09EC05F0000E946EF90E3D
:100B2800CB6E0C0EBD6E7D0EBE6E0C0EBA6E7D0EBB
:100B3800BB6E030ECA6E000ECC6ECA841200000E85
:100B48002D6E000E2C6E000E2B6E000E2A6E8394F6
:100B58008396C3EF05F082A4B4EF05F0B6EF05F075
:100B6800B8EF05F046EC06F02A042B10D8A4BFEF26
:100B780005F0C1EF05F0C3EF05F05FEC06F0045097
:100B88002C5C05502D58D8A0CCEF05F0CEEF05F021
:100B9800AFEF05F08384838612000E0EF66E0D0EFD
:100BA800F76E000EF86E00EE60F010EE1EF0090011
:100BB800F5CFEEFFE550E150FAE17C0EF66E0D0E32
:100BC800F76E000EF86E00EE41F010EE0FF009001F
:100BD800F5CFEEFFE550E150FAE100EE22F01F0EEE
:100BE800EE6AE806FDE152905292000EF86E00019E
:100BF80009EF00F00D0E96EC06F0000E066E000EE2
:100C0800056E770E0524D96E000E0620DA6EDF50C9
:100C180096EC06F0054A062A06BE1CEF06F00650BA
:100C280009E1070E055CD8A01CEF06F01EEF06F0E0
:100C380005EF06F0000E516E000E506E12000D0EFC
:100C480096EC06F0000E066E000E056E6D0E05247D
:100C5800D96E000E0620DA6EDF5096EC06F0054AD3
:100C6800062A06BE41EF06F0065009E10A0E055CA9
:100C7800D8A041EF06F043EF06F02AEF06F08268AD
:100C8800010E12002A042B10D8A44DEF06F04FEFE6
:100C980006F051EF06F05EEF06F082A456EF06F07C
:100CA80058EF06F05EEF06F02C4A2D2A000E2B6E48
:100CB800010E2A6E120082A464EF06F066EF06F0B9
:100CC80068EF06F073EF06F082B46DEF06F06FEF91
:100CD80006F073EF06F0000E2B6E000E2A6E12005F
:100CE80004500602F3CF08F0F4CF09F004500702CD
:100CF800F350092605500602F350092608C004F0EF
:100D080009C005F01200456E7465725F636F6D6D02
:100D1800616E6457616974696E672E2E2E47726121
:100D280063696173046E9EA89CEF06F09EEF06F05F
:100D380097EF06F004C0ADFF1200016E9EA8A7EF62
:100D480006F0A9EF06F0A2EF06F001C0ADFF120011
:100D58009EAAB1EF06F0B3EF06F0ACEF06F0AE5086
:100D68001200D09EF28EF292F288F18CF18AF0860F
:100D7800F19E1200736C696465636C69636B4572FC
:030D8800726F7215
:100D8C00650EA1EC06F01200450EA1EC06F0120067
:020000040020DA
:08000000FFFFFFFFFFFFFFFF00
:020000040030CA
:0E00000000091F1EFF0381FF0FC00FE00F401D
:00000001FF
