:020000040000FA
:0400000007EF00F016
:100008005982DAED02F095EF04F0000E256E010E2C
:10001800246E000E236E010E226E57505810D8A47D
:1000280018EF00F01AEF00F020EF00F03AC036F0B9
:100038003BC037F026EF00F057503A5C366E585008
:100048003B58376E37BE2DEF00F02BEF00F039EF3D
:1000580000F083908392366C371ED8B0372A000E92
:10006800256E000E246E3FEF00F083808382000E21
:10007800256E010E246E36C004F037C005F0000E60
:10008800076E050E066EAEEC05F004C028F005C03C
:1000980029F028C004F029C005F039EC04F02450F8
:1000A8002510D8A45AEF00F05CEF00F064EF00F0E0
:1000B8003650575C576E37505858586E73EF00F0EB
:1000C80024042510D8A46BEF00F06DEF00F073EF57
:1000D80000F057503624576E58503720586E5550F8
:1000E8005610D8A47AEF00F07CEF00F082EF00F011
:1000F80038C034F039C035F088EF00F05550385C1E
:10010800346E56503958356E35BE8FEF00F08DEF8E
:1001180000F09BEF00F083808392346C351ED8B0DA
:10012800352A000E236E000E226EA1EF00F0839098
:100138008382000E236E010E226E34C004F035C097
:1001480005F0000E076E050E066EAEEC05F004C055
:1001580026F005C027F026C004F027C005F039ECCA
:1001680004F022502310D8A4BCEF00F0BEEF00F03A
:10017800C6EF00F03450555C556E35505658566EE3
:10018800D5EF00F022042310D8A4CDEF00F0CFEF74
:1001980000F0D5EF00F055503424556E56503520F8
:1001A800566E1200000E0D6E0BBEDFEF00F0DDEF95
:1001B80000F0E9EF00F00B1E0A1E091E086C000E85
:1001C80009220A220B22010E0D6E07BEF0EF00F085
:1001D800EEEF00F0FAEF00F0071E061E051E046C95
:1001E800000E052206220722010E0D1A000E0E6EC1
:1001F800000E0F6E000E106E000E116E08500910E2
:100208000A100B10D8B40BEF01F00DEF01F043EF1B
:1002180001F0010E0C6E17EF01F0D8900836093680
:100228000A360B360C2A0BAE1CEF01F01EEF01F05C
:1002380011EF01F0D8900E360F36103611360850EF
:10024800045C095005580A5006580B500758D8A0A6
:1002580030EF01F032EF01F03BEF01F00850045E9F
:100268000950055A0A50065A0B50075A0E80D89062
:100278000B320A32093208320C2E1EEF01F00D50F3
:10028800D8B449EF01F04BEF01F053EF01F0111E24
:10029800101E0F1E0E6C000E0F22102211220EC00F
:1002A80004F00FC005F010C006F011C007F01200EE
:1002B8003204D8A462EF01F064EF01F09CEF01F082
:1002C80009EC00F0838E020E0B6E040E0A6EBA0E55
:1002D800E82EFED70A2EFCD70B2EFAD700D0839E25
:1002E80020EE4BF010EE0CF0040EDBCFE3FFE80637
:1002F800FCE2000E176E000E166E0C0E1624D96E58
:10030800000E1720DA6EDF5024EC06F0164A172A82
:1003180017BE98EF01F0175009E1050E165CD8A03A
:1003280098EF01F09AEF01F081EF01F0CEEF01F0C4
:100338003250D8A4A2EF01F0A4EF01F0CEEF01F003
:10034800838E09EC00F0839E20EE46F010EE11F04B
:10035800040EDBCFE3FFE806FCE2000E196E000E88
:10036800186E110E1824D96E000E1920DA6EDF509F
:1003780024EC06F0184A192A19BECCEF01F01950DE
:1003880009E1050E185CD8A0CCEF01F0CEEF01F022
:10039800B5EF01F0000E316E010E306E1200000E46
:1003A8001D6E000E1C6E39EC06F01B6E120E1C241E
:1003B800D96E000E1D20DA6E1BC0DFFF1C4A1D2AF5
:1003C8001DBEF0EF01F01D5009E1090E1C5CD8A01C
:1003D800F0EF01F0F2EF01F0D7EF01F004C0D9FF20
:1003E80005C0DAFF12C0DFFF06C0D9FF07C0DAFF79
:1003F80013C0DFFF300E0E6EEB0E0F6E1450640D3F
:10040800F3CF10F0F4CF11F015500A0DF350102669
:10041800F450112216501026000E11220E501026EC
:100428000F50112208C0D9FF09C0DAFF10C0DEFF43
:1004380011C0DDFF300E0E6EEB0E0F6E1750640DFF
:10044800F3CF10F0F4CF11F018500A0DF350102626
:10045800F450112219501026000E11220E501026A9
:100468000F5011220AC0D9FF0BC0DAFF10C0DEFFFF
:1004780011C0DDFF0CC0D9FF0DC0DAFF1AC0DFFFC5
:100488001200000E336E8BEF02F00DEC05F0336EA8
:100498008BEF02F05EEC03F0336E8BEF02F098EC1A
:1004A80003F0336E8BEF02F095EC02F0336E8BEFB6
:1004B80002F01DEC03F0336E8BEF02F0E8EC04F071
:1004C8008BEF02F03350206E216A2150000AD8B415
:1004D80070EF02F08BEF02F02050000AD8B449EF19
:1004E80002F0010AD8B44EEF02F0030AD8B453EF71
:1004F80002F0010AD8B458EF02F0070AD8B45DEF49
:1005080002F0010AD8B462EF02F08BEF02F0300477
:100518003110D8B492EF02F094EF02F066EF02F0D7
:100528001200000E826E430E3D18D8A49EEF02F012
:10053800A0EF02F0A7EF02F0020E826E010E326EFB
:10054800040ED9EF02F0530E3D18D8A4AEEF02F016
:10055800B0EF02F0B6EF02F0020E826E000E326EBD
:10056800A4EF02F00D0E24EC06F0000E066E000E4D
:10057800056E500E0524D96E000E0620DA6EDF5087
:1005880024EC06F0054A062A06BED4EF02F006500F
:1005980009E1050E055CD8A0D4EF02F0D6EF02F011
:1005A800BDEF02F0040E826E010E12000600F2A2E8
:1005B800E0EF02F0E2EF02F0FBEF02F0FEEC05F0F4
:1005C80081B0E9EF02F0EBEF02F0FBEF02F0270E4B
:1005D800036EF50EE82EFED7032EFCD700F081B08F
:1005E800F8EF02F0FAEF02F0FBEF02F0F292F0A05F
:1005F80000EF03F002EF03F01BEF03F0EFEC05F060
:1006080081B209EF03F00BEF03F01BEF03F0270EA5
:10061800036EF50EE82EFED7032EFCD700F081B24C
:1006280018EF03F01AEF03F01BEF03F0F090599264
:100638001100000E826E2D0E3A5C010E3B58D8B0A8
:1006480028EF03F02AEF03F03AEF03F02D0E385CA1
:10065800010E3958D8B033EF03F035EF03F03AEF15
:1006680003F0020E826E050E5DEF03F00D0E24EC12
:1006780006F0000E066E000E056E500E0524D96EAB
:10068800000E0620DA6EDF5024EC06F0054A062A32
:1006980006BE58EF03F0065009E1050E055CD8A028
:1006A80058EF03F05AEF03F041EF03F0040E826EA7
:1006B800010E12000D0E24EC06F0000E826E000EE4
:1006C8001F6E000E1E6E600E1E24D96E000E1F20B7
:1006D800DA6EDF5024EC06F01E4A1F2A1FBE7EEF9A
:1006E80003F01F5009E10A0E1E5CD8A07EEF03F04C
:1006F80080EF03F067EF03F03E0E046E000E056E08
:100708003D0E066E000E076E3A0E086E000E096E5C
:10071800380E0A6E000E0B6E3C0E0C6E000E0D6E3F
:10072800D3EC01F0020E1200000E826E3C0E3E1851
:10073800D8A4A1EF03F0A3EF03F0AFEF03F03E0E50
:100748003C18D8A4AAEF03F0ACEF03F0AFEF03F026
:10075800030ED0EF03F00D0E24EC06F0000E066E2B
:10076800000E056E500E0524D96E000E0620DA6EB6
:10077800DF5024EC06F0054A062A06BECDEF03F04A
:10078800065009E1050E055CD8A0CDEF03F0CFEFC8
:1007980003F0B6EF03F0010E1200949C948E12C081
:1007A80008F013C009F0000E09BEFF0E0A6E0B6EAA
:1007B800000E046E120E056E7A0E066E000E076E9F
:1007C800D6EC00F004C014F005C015F006C016F011
:1007D80007C017F014C004F015C005F016C006F0E5
:1007E80017C007F0400E086E000E096E000E0A6E64
:1007F800000E0B6ED6EC00F00404AF6EAC94AC980F
:10080800AB8EAC9CAC8AAB9CAB881200720ED36EDC
:10081800B468B59E0F0EC16E000E836E000E8C6E0E
:10082800F00E956E000E826E000E8B6E000E946EAA
:10083800000E816E000E8A6E9368250E136E800E70
:10084800126ED1EC03F0000E946EF90ECB6E0C0E06
:10085800BD6E7D0EBE6E0C0EBA6E7D0EBB6E030EA7
:10086800CA6E000ECC6ECA841200000E2D6E000EE9
:100878002C6E000E2B6E000E2A6E8394839659EF11
:1008880004F082A44AEF04F04CEF04F04EEF04F0B9
:1008980052EC05F02A042B10D8A455EF04F057EFBA
:1008A80004F059EF04F084EC05F004502C5C05507A
:1008B8002D58D8A062EF04F064EF04F045EF04F07F
:1008C800838483861200000E2D6E000E2C6E000E9F
:1008D8002B6E000E2A6E8394839687EF04F082A411
:1008E80078EF04F07AEF04F07CEF04F06BEC05F09D
:1008F8002A042B10D8A483EF04F085EF04F087EFC7
:1009080004F099EC05F001502C5C02502D58D8A049
:1009180090EF04F092EF04F073EF04F08384838681
:1009280012001A0EF66E0C0EF76E000EF86E00EE40
:1009380060F010EE17F00900F5CFEEFFE550E1503A
:10094800FAE1310EF66E0C0EF76E000EF86E00EE40
:100958003FF010EE16F00900F5CFEEFFE550E1503C
:10096800FAE100EE22F01D0EEE6AE806FDE159906C
:100978005992000EF86E000130EF05F083908392D3
:10098800DEEF04F057505810D8A4CDEF04F0CFEFA5
:1009980004F0D3EF04F083848386DEEF04F057502D
:1009A8005810D8B4DAEF04F0DCEF04F0DEEF04F00E
:1009B8008394839657505810D8A4E5EF04F0E7EFD6
:1009C80004F0C6EF04F012000D0E24EC06F0000E41
:1009D800066E000E056E3F0E0524D96E000E062029
:1009E800DA6EDF5024EC06F0054A062A06BE06EF4A
:1009F80005F0065009E1070E055CD8A006EF05F0E2
:100A080008EF05F0EFEF04F0000E316E000E306EC7
:100A180012000D0E24EC06F0000E066E000E056E98
:100A28006D0E0524D96E000E0620DA6EDF5024EC18
:100A380006F0054A062A06BE2BEF05F0065009E126
:100A48000A0E055CD8A02BEF05F02DEF05F014EF8A
:100A580005F08268010E12000AEC04F02FEC06F093
:100A6800000E586E010E576E000E566E010E556E32
:100A780083848386C2EC04F0C1EC05F0E0EC05F059
:100A8800D1EC05F0000E316E010E306E45EC02F02F
:100A98005CEC01F046EF05F007EF00F02A042B109C
:100AA800D8A459EF05F05BEF05F05DEF05F06AEFAC
:100AB80005F082A462EF05F064EF05F06AEF05F037
:100AC8002C4A2D2A000E2B6E010E2A6E12002A04C3
:100AD8002B10D8A472EF05F074EF05F076EF05F04F
:100AE80083EF05F082A47BEF05F07DEF05F083EF3F
:100AF80005F02C4A2D2A000E2B6E010E2A6E1200CC
:100B080082A489EF05F08BEF05F08DEF05F098EFE3
:100B180005F082B492EF05F094EF05F098EF05F038
:100B2800000E2B6E000E2A6E120082A49EEF05F0B6
:100B3800A0EF05F0A2EF05F0ADEF05F082B4A7EF46
:100B480005F0A9EF05F0ADEF05F0000E2B6E000ED5
:100B58002A6E120004500602F3CF08F0F4CF09F011
:100B680004500702F350092605500602F3500926DF
:100B780008C004F009C005F01200838083928394B2
:100B8800839655505610D8A4CCEF05F0CEEF05F05B
:100B9800C3EF05F083848386120083908382000E5E
:100BA800056E190E046E39EC04F083848386000EFA
:100BB800566E000E556E120083808382000E056EFD
:100BC800190E046E39EC04F083848386000E586E87
:100BD800000E576E120083908382000E026E190E6B
:100BE800016E67EC04F083848386000E566E000E57
:100BF800556E120083808382000E026E190E016EFC
:100C080067EC04F083848386000E586E000E576EDE
:100C18001200456E7465725F636F6D6D616E645727
:100C2800616974696E672E2E2E47726163696173FC
:0F0C3800736C696465636C69636B4572726F728C
:100C4800046E9EA82AEF06F02CEF06F025EF06F0BA
:100C580004C0ADFF1200F28CD09EF28EF292F288A0
:100C6800F19CF19AF086F18E12009EAA3EEF06F0F2
:0C0C780040EF06F039EF06F0AE5012001D
:020000040020DA
:08000000FFFFFFFFFFFFFFFF00
:020000040030CA
:0E00000000091F1EFF0381FF0FC00FE00F401D
:00000001FF
