:020000040000FA
:040000001EEF3FF0C0
:107E3C0000EE01F0200EEE6AE806FDE10001C4EF51
:107E4C003FF082A42CEF3FF02EEF3FF030EF3FF0ED
:107E5C003BEF3FF082B435EF3FF037EF3FF03BEFB5
:107E6C003FF0000E046E000E036E120003040410AB
:107E7C00D8A443EF3FF045EF3FF047EF3FF054EF0E
:107E8C003FF082A44CEF3FF04EEF3FF054EF3FF049
:107E9C00014A022A000E046E010E036E1200600EDF
:107EAC00D36EB468B59E0F0EC16E94929494F90E75
:107EBC00CB6E0C0EBD6E7D0EBE6E0C0EBA6E7D0EB4
:107ECC00BB6E030ECA6E000ECC6ECA84949C949E3C
:107EDC009490120025BE77EF3FF075EF3FF07FEFE7
:107EEC003FF083908392246C251ED8B0252A81EF15
:107EFC003FF08380838224C021F025C022F090ECD7
:107F0C003FF021C026F022C027F026C024F027C065
:107F1C0025F01200000E026E000E016E000E046EB3
:107F2C00000E036E829CAFEF3FF082A4A0EF3FF0F7
:107F3C00A2EF3FF0A4EF3FF03CEC3FF00304041041
:107F4C00D8A4ABEF3FF0ADEF3FF0AFEF3FF027EC35
:107F5C003FF00150215C2250800A236E0250800AAF
:107F6C002358D8B0BCEF3FF0BEEF3FF09BEF3FF093
:107F7C00828C01C021F002C022F0120055EC3FF0BF
:107F8C00000E2F6EC80E2E6E030E2D6E200E2C6E54
:107F9C00000E206E000E1F6E000E206E000E1F6E67
:107FAC00000E256EC80E246E70EC3FF024C02AF033
:107FBC0025C02BF01F502A241F6E20502B20206E22
:107FCC00C80E1F182010D8A4EEEF3FF0F0EF3FF0D2
:107FDC00F1EF3FF08280020E296EC70E286E880EDC
:107FEC00E82EFED7282EFCD7292EFAD700D0829067
:047FFC0000EF00F0A2
:020000040020DA
:08000000FFFFFFFFFFFFFFFF00
:020000040030CA
:0E00000000091F1EFF0381FF0FC00FE00F401D
:00000001FF
